{
  "address": "0x10be6Df2c1B4228e594dC733515711f1a91344Dc",
  "abi": [
    {
      "inputs": [
        {
          "internalType": "address",
          "name": "_vault",
          "type": "address"
        },
        {
          "internalType": "address",
          "name": "_router",
          "type": "address"
        },
        {
          "internalType": "address",
          "name": "_weth",
          "type": "address"
        },
        {
          "internalType": "address",
          "name": "_shortsTracker",
          "type": "address"
        },
        {
          "internalType": "uint256",
          "name": "_depositFee",
          "type": "uint256"
        },
        {
          "internalType": "uint256",
          "name": "_minExecutionFee",
          "type": "uint256"
        }
      ],
      "stateMutability": "nonpayable",
      "type": "constructor"
    },
    {
      "anonymous": false,
      "inputs": [
        {
          "indexed": false,
          "internalType": "address",
          "name": "callbackTarget",
          "type": "address"
        },
        {
          "indexed": false,
          "internalType": "bool",
          "name": "success",
          "type": "bool"
        }
      ],
      "name": "Callback",
      "type": "event"
    },
    {
      "anonymous": false,
      "inputs": [
        {
          "indexed": true,
          "internalType": "address",
          "name": "account",
          "type": "address"
        },
        {
          "indexed": false,
          "internalType": "address[]",
          "name": "path",
          "type": "address[]"
        },
        {
          "indexed": false,
          "internalType": "address",
          "name": "indexToken",
          "type": "address"
        },
        {
          "indexed": false,
          "internalType": "uint256",
          "name": "collateralDelta",
          "type": "uint256"
        },
        {
          "indexed": false,
          "internalType": "uint256",
          "name": "sizeDelta",
          "type": "uint256"
        },
        {
          "indexed": false,
          "internalType": "bool",
          "name": "isLong",
          "type": "bool"
        },
        {
          "indexed": false,
          "internalType": "address",
          "name": "receiver",
          "type": "address"
        },
        {
          "indexed": false,
          "internalType": "uint256",
          "name": "acceptablePrice",
          "type": "uint256"
        },
        {
          "indexed": false,
          "internalType": "uint256",
          "name": "minOut",
          "type": "uint256"
        },
        {
          "indexed": false,
          "internalType": "uint256",
          "name": "executionFee",
          "type": "uint256"
        },
        {
          "indexed": false,
          "internalType": "uint256",
          "name": "blockGap",
          "type": "uint256"
        },
        {
          "indexed": false,
          "internalType": "uint256",
          "name": "timeGap",
          "type": "uint256"
        }
      ],
      "name": "CancelDecreasePosition",
      "type": "event"
    },
    {
      "anonymous": false,
      "inputs": [
        {
          "indexed": true,
          "internalType": "address",
          "name": "account",
          "type": "address"
        },
        {
          "indexed": false,
          "internalType": "address[]",
          "name": "path",
          "type": "address[]"
        },
        {
          "indexed": false,
          "internalType": "address",
          "name": "indexToken",
          "type": "address"
        },
        {
          "indexed": false,
          "internalType": "uint256",
          "name": "amountIn",
          "type": "uint256"
        },
        {
          "indexed": false,
          "internalType": "uint256",
          "name": "minOut",
          "type": "uint256"
        },
        {
          "indexed": false,
          "internalType": "uint256",
          "name": "sizeDelta",
          "type": "uint256"
        },
        {
          "indexed": false,
          "internalType": "bool",
          "name": "isLong",
          "type": "bool"
        },
        {
          "indexed": false,
          "internalType": "uint256",
          "name": "acceptablePrice",
          "type": "uint256"
        },
        {
          "indexed": false,
          "internalType": "uint256",
          "name": "executionFee",
          "type": "uint256"
        },
        {
          "indexed": false,
          "internalType": "uint256",
          "name": "blockGap",
          "type": "uint256"
        },
        {
          "indexed": false,
          "internalType": "uint256",
          "name": "timeGap",
          "type": "uint256"
        }
      ],
      "name": "CancelIncreasePosition",
      "type": "event"
    },
    {
      "anonymous": false,
      "inputs": [
        {
          "indexed": true,
          "internalType": "address",
          "name": "account",
          "type": "address"
        },
        {
          "indexed": false,
          "internalType": "address[]",
          "name": "path",
          "type": "address[]"
        },
        {
          "indexed": false,
          "internalType": "address",
          "name": "indexToken",
          "type": "address"
        },
        {
          "indexed": false,
          "internalType": "uint256",
          "name": "collateralDelta",
          "type": "uint256"
        },
        {
          "indexed": false,
          "internalType": "uint256",
          "name": "sizeDelta",
          "type": "uint256"
        },
        {
          "indexed": false,
          "internalType": "bool",
          "name": "isLong",
          "type": "bool"
        },
        {
          "indexed": false,
          "internalType": "address",
          "name": "receiver",
          "type": "address"
        },
        {
          "indexed": false,
          "internalType": "uint256",
          "name": "acceptablePrice",
          "type": "uint256"
        },
        {
          "indexed": false,
          "internalType": "uint256",
          "name": "minOut",
          "type": "uint256"
        },
        {
          "indexed": false,
          "internalType": "uint256",
          "name": "executionFee",
          "type": "uint256"
        },
        {
          "indexed": false,
          "internalType": "uint256",
          "name": "index",
          "type": "uint256"
        },
        {
          "indexed": false,
          "internalType": "uint256",
          "name": "queueIndex",
          "type": "uint256"
        },
        {
          "indexed": false,
          "internalType": "uint256",
          "name": "blockNumber",
          "type": "uint256"
        },
        {
          "indexed": false,
          "internalType": "uint256",
          "name": "blockTime",
          "type": "uint256"
        }
      ],
      "name": "CreateDecreasePosition",
      "type": "event"
    },
    {
      "anonymous": false,
      "inputs": [
        {
          "indexed": true,
          "internalType": "address",
          "name": "account",
          "type": "address"
        },
        {
          "indexed": false,
          "internalType": "address[]",
          "name": "path",
          "type": "address[]"
        },
        {
          "indexed": false,
          "internalType": "address",
          "name": "indexToken",
          "type": "address"
        },
        {
          "indexed": false,
          "internalType": "uint256",
          "name": "amountIn",
          "type": "uint256"
        },
        {
          "indexed": false,
          "internalType": "uint256",
          "name": "minOut",
          "type": "uint256"
        },
        {
          "indexed": false,
          "internalType": "uint256",
          "name": "sizeDelta",
          "type": "uint256"
        },
        {
          "indexed": false,
          "internalType": "bool",
          "name": "isLong",
          "type": "bool"
        },
        {
          "indexed": false,
          "internalType": "uint256",
          "name": "acceptablePrice",
          "type": "uint256"
        },
        {
          "indexed": false,
          "internalType": "uint256",
          "name": "executionFee",
          "type": "uint256"
        },
        {
          "indexed": false,
          "internalType": "uint256",
          "name": "index",
          "type": "uint256"
        },
        {
          "indexed": false,
          "internalType": "uint256",
          "name": "queueIndex",
          "type": "uint256"
        },
        {
          "indexed": false,
          "internalType": "uint256",
          "name": "blockNumber",
          "type": "uint256"
        },
        {
          "indexed": false,
          "internalType": "uint256",
          "name": "blockTime",
          "type": "uint256"
        },
        {
          "indexed": false,
          "internalType": "uint256",
          "name": "gasPrice",
          "type": "uint256"
        }
      ],
      "name": "CreateIncreasePosition",
      "type": "event"
    },
    {
      "anonymous": false,
      "inputs": [
        {
          "indexed": false,
          "internalType": "address",
          "name": "account",
          "type": "address"
        },
        {
          "indexed": false,
          "internalType": "uint256",
          "name": "sizeDelta",
          "type": "uint256"
        },
        {
          "indexed": false,
          "internalType": "uint256",
          "name": "marginFeeBasisPoints",
          "type": "uint256"
        },
        {
          "indexed": false,
          "internalType": "bytes32",
          "name": "referralCode",
          "type": "bytes32"
        },
        {
          "indexed": false,
          "internalType": "address",
          "name": "referrer",
          "type": "address"
        }
      ],
      "name": "DecreasePositionReferral",
      "type": "event"
    },
    {
      "anonymous": false,
      "inputs": [
        {
          "indexed": true,
          "internalType": "address",
          "name": "account",
          "type": "address"
        },
        {
          "indexed": false,
          "internalType": "address[]",
          "name": "path",
          "type": "address[]"
        },
        {
          "indexed": false,
          "internalType": "address",
          "name": "indexToken",
          "type": "address"
        },
        {
          "indexed": false,
          "internalType": "uint256",
          "name": "collateralDelta",
          "type": "uint256"
        },
        {
          "indexed": false,
          "internalType": "uint256",
          "name": "sizeDelta",
          "type": "uint256"
        },
        {
          "indexed": false,
          "internalType": "bool",
          "name": "isLong",
          "type": "bool"
        },
        {
          "indexed": false,
          "internalType": "address",
          "name": "receiver",
          "type": "address"
        },
        {
          "indexed": false,
          "internalType": "uint256",
          "name": "acceptablePrice",
          "type": "uint256"
        },
        {
          "indexed": false,
          "internalType": "uint256",
          "name": "minOut",
          "type": "uint256"
        },
        {
          "indexed": false,
          "internalType": "uint256",
          "name": "executionFee",
          "type": "uint256"
        },
        {
          "indexed": false,
          "internalType": "uint256",
          "name": "blockGap",
          "type": "uint256"
        },
        {
          "indexed": false,
          "internalType": "uint256",
          "name": "timeGap",
          "type": "uint256"
        }
      ],
      "name": "ExecuteDecreasePosition",
      "type": "event"
    },
    {
      "anonymous": false,
      "inputs": [
        {
          "indexed": true,
          "internalType": "address",
          "name": "account",
          "type": "address"
        },
        {
          "indexed": false,
          "internalType": "address[]",
          "name": "path",
          "type": "address[]"
        },
        {
          "indexed": false,
          "internalType": "address",
          "name": "indexToken",
          "type": "address"
        },
        {
          "indexed": false,
          "internalType": "uint256",
          "name": "amountIn",
          "type": "uint256"
        },
        {
          "indexed": false,
          "internalType": "uint256",
          "name": "minOut",
          "type": "uint256"
        },
        {
          "indexed": false,
          "internalType": "uint256",
          "name": "sizeDelta",
          "type": "uint256"
        },
        {
          "indexed": false,
          "internalType": "bool",
          "name": "isLong",
          "type": "bool"
        },
        {
          "indexed": false,
          "internalType": "uint256",
          "name": "acceptablePrice",
          "type": "uint256"
        },
        {
          "indexed": false,
          "internalType": "uint256",
          "name": "executionFee",
          "type": "uint256"
        },
        {
          "indexed": false,
          "internalType": "uint256",
          "name": "blockGap",
          "type": "uint256"
        },
        {
          "indexed": false,
          "internalType": "uint256",
          "name": "timeGap",
          "type": "uint256"
        }
      ],
      "name": "ExecuteIncreasePosition",
      "type": "event"
    },
    {
      "anonymous": false,
      "inputs": [
        {
          "indexed": false,
          "internalType": "address",
          "name": "account",
          "type": "address"
        },
        {
          "indexed": false,
          "internalType": "uint256",
          "name": "sizeDelta",
          "type": "uint256"
        },
        {
          "indexed": false,
          "internalType": "uint256",
          "name": "marginFeeBasisPoints",
          "type": "uint256"
        },
        {
          "indexed": false,
          "internalType": "bytes32",
          "name": "referralCode",
          "type": "bytes32"
        },
        {
          "indexed": false,
          "internalType": "address",
          "name": "referrer",
          "type": "address"
        }
      ],
      "name": "IncreasePositionReferral",
      "type": "event"
    },
    {
      "anonymous": false,
      "inputs": [
        {
          "indexed": false,
          "internalType": "address",
          "name": "admin",
          "type": "address"
        }
      ],
      "name": "SetAdmin",
      "type": "event"
    },
    {
      "anonymous": false,
      "inputs": [
        {
          "indexed": false,
          "internalType": "uint256",
          "name": "callbackGasLimit",
          "type": "uint256"
        }
      ],
      "name": "SetCallbackGasLimit",
      "type": "event"
    },
    {
      "anonymous": false,
      "inputs": [
        {
          "indexed": false,
          "internalType": "uint256",
          "name": "minBlockDelayKeeper",
          "type": "uint256"
        },
        {
          "indexed": false,
          "internalType": "uint256",
          "name": "minTimeDelayPublic",
          "type": "uint256"
        },
        {
          "indexed": false,
          "internalType": "uint256",
          "name": "maxTimeDelay",
          "type": "uint256"
        }
      ],
      "name": "SetDelayValues",
      "type": "event"
    },
    {
      "anonymous": false,
      "inputs": [
        {
          "indexed": false,
          "internalType": "uint256",
          "name": "depositFee",
          "type": "uint256"
        }
      ],
      "name": "SetDepositFee",
      "type": "event"
    },
    {
      "anonymous": false,
      "inputs": [
        {
          "indexed": false,
          "internalType": "uint256",
          "name": "increasePositionBufferBps",
          "type": "uint256"
        }
      ],
      "name": "SetIncreasePositionBufferBps",
      "type": "event"
    },
    {
      "anonymous": false,
      "inputs": [
        {
          "indexed": false,
          "internalType": "bool",
          "name": "isLeverageEnabled",
          "type": "bool"
        }
      ],
      "name": "SetIsLeverageEnabled",
      "type": "event"
    },
    {
      "anonymous": false,
      "inputs": [
        {
          "indexed": false,
          "internalType": "address[]",
          "name": "tokens",
          "type": "address[]"
        },
        {
          "indexed": false,
          "internalType": "uint256[]",
          "name": "longSizes",
          "type": "uint256[]"
        },
        {
          "indexed": false,
          "internalType": "uint256[]",
          "name": "shortSizes",
          "type": "uint256[]"
        }
      ],
      "name": "SetMaxGlobalSizes",
      "type": "event"
    },
    {
      "anonymous": false,
      "inputs": [
        {
          "indexed": false,
          "internalType": "uint256",
          "name": "minExecutionFee",
          "type": "uint256"
        }
      ],
      "name": "SetMinExecutionFee",
      "type": "event"
    },
    {
      "anonymous": false,
      "inputs": [
        {
          "indexed": true,
          "internalType": "address",
          "name": "account",
          "type": "address"
        },
        {
          "indexed": false,
          "internalType": "bool",
          "name": "isActive",
          "type": "bool"
        }
      ],
      "name": "SetPositionKeeper",
      "type": "event"
    },
    {
      "anonymous": false,
      "inputs": [
        {
          "indexed": false,
          "internalType": "address",
          "name": "referralStorage",
          "type": "address"
        }
      ],
      "name": "SetReferralStorage",
      "type": "event"
    },
    {
      "anonymous": false,
      "inputs": [
        {
          "indexed": false,
          "internalType": "uint256",
          "name": "increasePositionRequestKeysStart",
          "type": "uint256"
        },
        {
          "indexed": false,
          "internalType": "uint256",
          "name": "decreasePositionRequestKeysStart",
          "type": "uint256"
        }
      ],
      "name": "SetRequestKeysStartValues",
      "type": "event"
    },
    {
      "anonymous": false,
      "inputs": [
        {
          "indexed": false,
          "internalType": "address",
          "name": "token",
          "type": "address"
        },
        {
          "indexed": false,
          "internalType": "address",
          "name": "receiver",
          "type": "address"
        },
        {
          "indexed": false,
          "internalType": "uint256",
          "name": "amount",
          "type": "uint256"
        }
      ],
      "name": "WithdrawFees",
      "type": "event"
    },
    {
      "inputs": [],
      "name": "BASIS_POINTS_DIVISOR",
      "outputs": [
        {
          "internalType": "uint256",
          "name": "",
          "type": "uint256"
        }
      ],
      "stateMutability": "view",
      "type": "function"
    },
    {
      "inputs": [],
      "name": "admin",
      "outputs": [
        {
          "internalType": "address",
          "name": "",
          "type": "address"
        }
      ],
      "stateMutability": "view",
      "type": "function"
    },
    {
      "inputs": [
        {
          "internalType": "address",
          "name": "_token",
          "type": "address"
        },
        {
          "internalType": "address",
          "name": "_spender",
          "type": "address"
        },
        {
          "internalType": "uint256",
          "name": "_amount",
          "type": "uint256"
        }
      ],
      "name": "approve",
      "outputs": [],
      "stateMutability": "nonpayable",
      "type": "function"
    },
    {
      "inputs": [],
      "name": "callbackGasLimit",
      "outputs": [
        {
          "internalType": "uint256",
          "name": "",
          "type": "uint256"
        }
      ],
      "stateMutability": "view",
      "type": "function"
    },
    {
      "inputs": [
        {
          "internalType": "bytes32",
          "name": "_key",
          "type": "bytes32"
        },
        {
          "internalType": "address payable",
          "name": "_executionFeeReceiver",
          "type": "address"
        }
      ],
      "name": "cancelDecreasePosition",
      "outputs": [
        {
          "internalType": "bool",
          "name": "",
          "type": "bool"
        }
      ],
      "stateMutability": "nonpayable",
      "type": "function"
    },
    {
      "inputs": [
        {
          "internalType": "bytes32",
          "name": "_key",
          "type": "bytes32"
        },
        {
          "internalType": "address payable",
          "name": "_executionFeeReceiver",
          "type": "address"
        }
      ],
      "name": "cancelIncreasePosition",
      "outputs": [
        {
          "internalType": "bool",
          "name": "",
          "type": "bool"
        }
      ],
      "stateMutability": "nonpayable",
      "type": "function"
    },
    {
      "inputs": [
        {
          "internalType": "address[]",
          "name": "_path",
          "type": "address[]"
        },
        {
          "internalType": "address",
          "name": "_indexToken",
          "type": "address"
        },
        {
          "internalType": "uint256",
          "name": "_collateralDelta",
          "type": "uint256"
        },
        {
          "internalType": "uint256",
          "name": "_sizeDelta",
          "type": "uint256"
        },
        {
          "internalType": "bool",
          "name": "_isLong",
          "type": "bool"
        },
        {
          "internalType": "address",
          "name": "_receiver",
          "type": "address"
        },
        {
          "internalType": "uint256",
          "name": "_acceptablePrice",
          "type": "uint256"
        },
        {
          "internalType": "uint256",
          "name": "_minOut",
          "type": "uint256"
        },
        {
          "internalType": "uint256",
          "name": "_executionFee",
          "type": "uint256"
        },
        {
          "internalType": "bool",
          "name": "_withdrawETH",
          "type": "bool"
        },
        {
          "internalType": "address",
          "name": "_callbackTarget",
          "type": "address"
        }
      ],
      "name": "createDecreasePosition",
      "outputs": [
        {
          "internalType": "bytes32",
          "name": "",
          "type": "bytes32"
        }
      ],
      "stateMutability": "payable",
      "type": "function"
    },
    {
      "inputs": [
        {
          "internalType": "address[]",
          "name": "_path",
          "type": "address[]"
        },
        {
          "internalType": "address",
          "name": "_indexToken",
          "type": "address"
        },
        {
          "internalType": "uint256",
          "name": "_amountIn",
          "type": "uint256"
        },
        {
          "internalType": "uint256",
          "name": "_minOut",
          "type": "uint256"
        },
        {
          "internalType": "uint256",
          "name": "_sizeDelta",
          "type": "uint256"
        },
        {
          "internalType": "bool",
          "name": "_isLong",
          "type": "bool"
        },
        {
          "internalType": "uint256",
          "name": "_acceptablePrice",
          "type": "uint256"
        },
        {
          "internalType": "uint256",
          "name": "_executionFee",
          "type": "uint256"
        },
        {
          "internalType": "bytes32",
          "name": "_referralCode",
          "type": "bytes32"
        },
        {
          "internalType": "address",
          "name": "_callbackTarget",
          "type": "address"
        }
      ],
      "name": "createIncreasePosition",
      "outputs": [
        {
          "internalType": "bytes32",
          "name": "",
          "type": "bytes32"
        }
      ],
      "stateMutability": "payable",
      "type": "function"
    },
    {
      "inputs": [
        {
          "internalType": "address[]",
          "name": "_path",
          "type": "address[]"
        },
        {
          "internalType": "address",
          "name": "_indexToken",
          "type": "address"
        },
        {
          "internalType": "uint256",
          "name": "_minOut",
          "type": "uint256"
        },
        {
          "internalType": "uint256",
          "name": "_sizeDelta",
          "type": "uint256"
        },
        {
          "internalType": "bool",
          "name": "_isLong",
          "type": "bool"
        },
        {
          "internalType": "uint256",
          "name": "_acceptablePrice",
          "type": "uint256"
        },
        {
          "internalType": "uint256",
          "name": "_executionFee",
          "type": "uint256"
        },
        {
          "internalType": "bytes32",
          "name": "_referralCode",
          "type": "bytes32"
        },
        {
          "internalType": "address",
          "name": "_callbackTarget",
          "type": "address"
        }
      ],
      "name": "createIncreasePositionETH",
      "outputs": [
        {
          "internalType": "bytes32",
          "name": "",
          "type": "bytes32"
        }
      ],
      "stateMutability": "payable",
      "type": "function"
    },
    {
      "inputs": [
        {
          "internalType": "uint256",
          "name": "",
          "type": "uint256"
        }
      ],
      "name": "decreasePositionRequestKeys",
      "outputs": [
        {
          "internalType": "bytes32",
          "name": "",
          "type": "bytes32"
        }
      ],
      "stateMutability": "view",
      "type": "function"
    },
    {
      "inputs": [],
      "name": "decreasePositionRequestKeysStart",
      "outputs": [
        {
          "internalType": "uint256",
          "name": "",
          "type": "uint256"
        }
      ],
      "stateMutability": "view",
      "type": "function"
    },
    {
      "inputs": [
        {
          "internalType": "bytes32",
          "name": "",
          "type": "bytes32"
        }
      ],
      "name": "decreasePositionRequests",
      "outputs": [
        {
          "internalType": "address",
          "name": "account",
          "type": "address"
        },
        {
          "internalType": "address",
          "name": "indexToken",
          "type": "address"
        },
        {
          "internalType": "uint256",
          "name": "collateralDelta",
          "type": "uint256"
        },
        {
          "internalType": "uint256",
          "name": "sizeDelta",
          "type": "uint256"
        },
        {
          "internalType": "bool",
          "name": "isLong",
          "type": "bool"
        },
        {
          "internalType": "address",
          "name": "receiver",
          "type": "address"
        },
        {
          "internalType": "uint256",
          "name": "acceptablePrice",
          "type": "uint256"
        },
        {
          "internalType": "uint256",
          "name": "minOut",
          "type": "uint256"
        },
        {
          "internalType": "uint256",
          "name": "executionFee",
          "type": "uint256"
        },
        {
          "internalType": "uint256",
          "name": "blockNumber",
          "type": "uint256"
        },
        {
          "internalType": "uint256",
          "name": "blockTime",
          "type": "uint256"
        },
        {
          "internalType": "bool",
          "name": "withdrawETH",
          "type": "bool"
        },
        {
          "internalType": "address",
          "name": "callbackTarget",
          "type": "address"
        }
      ],
      "stateMutability": "view",
      "type": "function"
    },
    {
      "inputs": [
        {
          "internalType": "address",
          "name": "",
          "type": "address"
        }
      ],
      "name": "decreasePositionsIndex",
      "outputs": [
        {
          "internalType": "uint256",
          "name": "",
          "type": "uint256"
        }
      ],
      "stateMutability": "view",
      "type": "function"
    },
    {
      "inputs": [],
      "name": "depositFee",
      "outputs": [
        {
          "internalType": "uint256",
          "name": "",
          "type": "uint256"
        }
      ],
      "stateMutability": "view",
      "type": "function"
    },
    {
      "inputs": [
        {
          "internalType": "bytes32",
          "name": "_key",
          "type": "bytes32"
        },
        {
          "internalType": "address payable",
          "name": "_executionFeeReceiver",
          "type": "address"
        }
      ],
      "name": "executeDecreasePosition",
      "outputs": [
        {
          "internalType": "bool",
          "name": "",
          "type": "bool"
        }
      ],
      "stateMutability": "nonpayable",
      "type": "function"
    },
    {
      "inputs": [
        {
          "internalType": "uint256",
          "name": "_endIndex",
          "type": "uint256"
        },
        {
          "internalType": "address payable",
          "name": "_executionFeeReceiver",
          "type": "address"
        }
      ],
      "name": "executeDecreasePositions",
      "outputs": [],
      "stateMutability": "nonpayable",
      "type": "function"
    },
    {
      "inputs": [
        {
          "internalType": "bytes32",
          "name": "_key",
          "type": "bytes32"
        },
        {
          "internalType": "address payable",
          "name": "_executionFeeReceiver",
          "type": "address"
        }
      ],
      "name": "executeIncreasePosition",
      "outputs": [
        {
          "internalType": "bool",
          "name": "",
          "type": "bool"
        }
      ],
      "stateMutability": "nonpayable",
      "type": "function"
    },
    {
      "inputs": [
        {
          "internalType": "uint256",
          "name": "_endIndex",
          "type": "uint256"
        },
        {
          "internalType": "address payable",
          "name": "_executionFeeReceiver",
          "type": "address"
        }
      ],
      "name": "executeIncreasePositions",
      "outputs": [],
      "stateMutability": "nonpayable",
      "type": "function"
    },
    {
      "inputs": [
        {
          "internalType": "address",
          "name": "",
          "type": "address"
        }
      ],
      "name": "feeReserves",
      "outputs": [
        {
          "internalType": "uint256",
          "name": "",
          "type": "uint256"
        }
      ],
      "stateMutability": "view",
      "type": "function"
    },
    {
      "inputs": [
        {
          "internalType": "bytes32",
          "name": "_key",
          "type": "bytes32"
        }
      ],
      "name": "getDecreasePositionRequestPath",
      "outputs": [
        {
          "internalType": "address[]",
          "name": "",
          "type": "address[]"
        }
      ],
      "stateMutability": "view",
      "type": "function"
    },
    {
      "inputs": [
        {
          "internalType": "bytes32",
          "name": "_key",
          "type": "bytes32"
        }
      ],
      "name": "getIncreasePositionRequestPath",
      "outputs": [
        {
          "internalType": "address[]",
          "name": "",
          "type": "address[]"
        }
      ],
      "stateMutability": "view",
      "type": "function"
    },
    {
      "inputs": [
        {
          "internalType": "address",
          "name": "_account",
          "type": "address"
        },
        {
          "internalType": "uint256",
          "name": "_index",
          "type": "uint256"
        }
      ],
      "name": "getRequestKey",
      "outputs": [
        {
          "internalType": "bytes32",
          "name": "",
          "type": "bytes32"
        }
      ],
      "stateMutability": "pure",
      "type": "function"
    },
    {
      "inputs": [],
      "name": "getRequestQueueLengths",
      "outputs": [
        {
          "internalType": "uint256",
          "name": "",
          "type": "uint256"
        },
        {
          "internalType": "uint256",
          "name": "",
          "type": "uint256"
        },
        {
          "internalType": "uint256",
          "name": "",
          "type": "uint256"
        },
        {
          "internalType": "uint256",
          "name": "",
          "type": "uint256"
        }
      ],
      "stateMutability": "view",
      "type": "function"
    },
    {
      "inputs": [],
      "name": "gov",
      "outputs": [
        {
          "internalType": "address",
          "name": "",
          "type": "address"
        }
      ],
      "stateMutability": "view",
      "type": "function"
    },
    {
      "inputs": [],
      "name": "increasePositionBufferBps",
      "outputs": [
        {
          "internalType": "uint256",
          "name": "",
          "type": "uint256"
        }
      ],
      "stateMutability": "view",
      "type": "function"
    },
    {
      "inputs": [
        {
          "internalType": "uint256",
          "name": "",
          "type": "uint256"
        }
      ],
      "name": "increasePositionRequestKeys",
      "outputs": [
        {
          "internalType": "bytes32",
          "name": "",
          "type": "bytes32"
        }
      ],
      "stateMutability": "view",
      "type": "function"
    },
    {
      "inputs": [],
      "name": "increasePositionRequestKeysStart",
      "outputs": [
        {
          "internalType": "uint256",
          "name": "",
          "type": "uint256"
        }
      ],
      "stateMutability": "view",
      "type": "function"
    },
    {
      "inputs": [
        {
          "internalType": "bytes32",
          "name": "",
          "type": "bytes32"
        }
      ],
      "name": "increasePositionRequests",
      "outputs": [
        {
          "internalType": "address",
          "name": "account",
          "type": "address"
        },
        {
          "internalType": "address",
          "name": "indexToken",
          "type": "address"
        },
        {
          "internalType": "uint256",
          "name": "amountIn",
          "type": "uint256"
        },
        {
          "internalType": "uint256",
          "name": "minOut",
          "type": "uint256"
        },
        {
          "internalType": "uint256",
          "name": "sizeDelta",
          "type": "uint256"
        },
        {
          "internalType": "bool",
          "name": "isLong",
          "type": "bool"
        },
        {
          "internalType": "uint256",
          "name": "acceptablePrice",
          "type": "uint256"
        },
        {
          "internalType": "uint256",
          "name": "executionFee",
          "type": "uint256"
        },
        {
          "internalType": "uint256",
          "name": "blockNumber",
          "type": "uint256"
        },
        {
          "internalType": "uint256",
          "name": "blockTime",
          "type": "uint256"
        },
        {
          "internalType": "bool",
          "name": "hasCollateralInETH",
          "type": "bool"
        },
        {
          "internalType": "address",
          "name": "callbackTarget",
          "type": "address"
        }
      ],
      "stateMutability": "view",
      "type": "function"
    },
    {
      "inputs": [
        {
          "internalType": "address",
          "name": "",
          "type": "address"
        }
      ],
      "name": "increasePositionsIndex",
      "outputs": [
        {
          "internalType": "uint256",
          "name": "",
          "type": "uint256"
        }
      ],
      "stateMutability": "view",
      "type": "function"
    },
    {
      "inputs": [],
      "name": "isLeverageEnabled",
      "outputs": [
        {
          "internalType": "bool",
          "name": "",
          "type": "bool"
        }
      ],
      "stateMutability": "view",
      "type": "function"
    },
    {
      "inputs": [
        {
          "internalType": "address",
          "name": "",
          "type": "address"
        }
      ],
      "name": "isPositionKeeper",
      "outputs": [
        {
          "internalType": "bool",
          "name": "",
          "type": "bool"
        }
      ],
      "stateMutability": "view",
      "type": "function"
    },
    {
      "inputs": [
        {
          "internalType": "address",
          "name": "",
          "type": "address"
        }
      ],
      "name": "maxGlobalLongSizes",
      "outputs": [
        {
          "internalType": "uint256",
          "name": "",
          "type": "uint256"
        }
      ],
      "stateMutability": "view",
      "type": "function"
    },
    {
      "inputs": [
        {
          "internalType": "address",
          "name": "",
          "type": "address"
        }
      ],
      "name": "maxGlobalShortSizes",
      "outputs": [
        {
          "internalType": "uint256",
          "name": "",
          "type": "uint256"
        }
      ],
      "stateMutability": "view",
      "type": "function"
    },
    {
      "inputs": [],
      "name": "maxTimeDelay",
      "outputs": [
        {
          "internalType": "uint256",
          "name": "",
          "type": "uint256"
        }
      ],
      "stateMutability": "view",
      "type": "function"
    },
    {
      "inputs": [],
      "name": "minBlockDelayKeeper",
      "outputs": [
        {
          "internalType": "uint256",
          "name": "",
          "type": "uint256"
        }
      ],
      "stateMutability": "view",
      "type": "function"
    },
    {
      "inputs": [],
      "name": "minExecutionFee",
      "outputs": [
        {
          "internalType": "uint256",
          "name": "",
          "type": "uint256"
        }
      ],
      "stateMutability": "view",
      "type": "function"
    },
    {
      "inputs": [],
      "name": "minTimeDelayPublic",
      "outputs": [
        {
          "internalType": "uint256",
          "name": "",
          "type": "uint256"
        }
      ],
      "stateMutability": "view",
      "type": "function"
    },
    {
      "inputs": [],
      "name": "referralStorage",
      "outputs": [
        {
          "internalType": "address",
          "name": "",
          "type": "address"
        }
      ],
      "stateMutability": "view",
      "type": "function"
    },
    {
      "inputs": [],
      "name": "router",
      "outputs": [
        {
          "internalType": "address",
          "name": "",
          "type": "address"
        }
      ],
      "stateMutability": "view",
      "type": "function"
    },
    {
      "inputs": [
        {
          "internalType": "address payable",
          "name": "_receiver",
          "type": "address"
        },
        {
          "internalType": "uint256",
          "name": "_amount",
          "type": "uint256"
        }
      ],
      "name": "sendValue",
      "outputs": [],
      "stateMutability": "nonpayable",
      "type": "function"
    },
    {
      "inputs": [
        {
          "internalType": "address",
          "name": "_admin",
          "type": "address"
        }
      ],
      "name": "setAdmin",
      "outputs": [],
      "stateMutability": "nonpayable",
      "type": "function"
    },
    {
      "inputs": [
        {
          "internalType": "uint256",
          "name": "_callbackGasLimit",
          "type": "uint256"
        }
      ],
      "name": "setCallbackGasLimit",
      "outputs": [],
      "stateMutability": "nonpayable",
      "type": "function"
    },
    {
      "inputs": [
        {
          "internalType": "uint256",
          "name": "_minBlockDelayKeeper",
          "type": "uint256"
        },
        {
          "internalType": "uint256",
          "name": "_minTimeDelayPublic",
          "type": "uint256"
        },
        {
          "internalType": "uint256",
          "name": "_maxTimeDelay",
          "type": "uint256"
        }
      ],
      "name": "setDelayValues",
      "outputs": [],
      "stateMutability": "nonpayable",
      "type": "function"
    },
    {
      "inputs": [
        {
          "internalType": "uint256",
          "name": "_depositFee",
          "type": "uint256"
        }
      ],
      "name": "setDepositFee",
      "outputs": [],
      "stateMutability": "nonpayable",
      "type": "function"
    },
    {
      "inputs": [
        {
          "internalType": "address",
          "name": "_gov",
          "type": "address"
        }
      ],
      "name": "setGov",
      "outputs": [],
      "stateMutability": "nonpayable",
      "type": "function"
    },
    {
      "inputs": [
        {
          "internalType": "uint256",
          "name": "_increasePositionBufferBps",
          "type": "uint256"
        }
      ],
      "name": "setIncreasePositionBufferBps",
      "outputs": [],
      "stateMutability": "nonpayable",
      "type": "function"
    },
    {
      "inputs": [
        {
          "internalType": "bool",
          "name": "_isLeverageEnabled",
          "type": "bool"
        }
      ],
      "name": "setIsLeverageEnabled",
      "outputs": [],
      "stateMutability": "nonpayable",
      "type": "function"
    },
    {
      "inputs": [
        {
          "internalType": "address[]",
          "name": "_tokens",
          "type": "address[]"
        },
        {
          "internalType": "uint256[]",
          "name": "_longSizes",
          "type": "uint256[]"
        },
        {
          "internalType": "uint256[]",
          "name": "_shortSizes",
          "type": "uint256[]"
        }
      ],
      "name": "setMaxGlobalSizes",
      "outputs": [],
      "stateMutability": "nonpayable",
      "type": "function"
    },
    {
      "inputs": [
        {
          "internalType": "uint256",
          "name": "_minExecutionFee",
          "type": "uint256"
        }
      ],
      "name": "setMinExecutionFee",
      "outputs": [],
      "stateMutability": "nonpayable",
      "type": "function"
    },
    {
      "inputs": [
        {
          "internalType": "address",
          "name": "_account",
          "type": "address"
        },
        {
          "internalType": "bool",
          "name": "_isActive",
          "type": "bool"
        }
      ],
      "name": "setPositionKeeper",
      "outputs": [],
      "stateMutability": "nonpayable",
      "type": "function"
    },
    {
      "inputs": [
        {
          "internalType": "address",
          "name": "_referralStorage",
          "type": "address"
        }
      ],
      "name": "setReferralStorage",
      "outputs": [],
      "stateMutability": "nonpayable",
      "type": "function"
    },
    {
      "inputs": [
        {
          "internalType": "uint256",
          "name": "_increasePositionRequestKeysStart",
          "type": "uint256"
        },
        {
          "internalType": "uint256",
          "name": "_decreasePositionRequestKeysStart",
          "type": "uint256"
        }
      ],
      "name": "setRequestKeysStartValues",
      "outputs": [],
      "stateMutability": "nonpayable",
      "type": "function"
    },
    {
      "inputs": [],
      "name": "shortsTracker",
      "outputs": [
        {
          "internalType": "address",
          "name": "",
          "type": "address"
        }
      ],
      "stateMutability": "view",
      "type": "function"
    },
    {
      "inputs": [],
      "name": "vault",
      "outputs": [
        {
          "internalType": "address",
          "name": "",
          "type": "address"
        }
      ],
      "stateMutability": "view",
      "type": "function"
    },
    {
      "inputs": [],
      "name": "weth",
      "outputs": [
        {
          "internalType": "address",
          "name": "",
          "type": "address"
        }
      ],
      "stateMutability": "view",
      "type": "function"
    },
    {
      "inputs": [
        {
          "internalType": "address",
          "name": "_token",
          "type": "address"
        },
        {
          "internalType": "address",
          "name": "_receiver",
          "type": "address"
        }
      ],
      "name": "withdrawFees",
      "outputs": [],
      "stateMutability": "nonpayable",
      "type": "function"
    },
    {
      "stateMutability": "payable",
      "type": "receive"
    }
  ],
  "transactionHash": "0x68e6f35957f182ada88fd19be2d9bcad3ed6580f6ddca90eeb21c047d32c1cfb",
  "args": [
    "0x67B200de87Dc9B67310417c8B23BeE034F69ba41",
    "0xACB2e1a98244eB6e7f0d083E966cF8B3Ec6481DE",
    "0x90D2753010931972e7cb30b2fBFD1194E015104e",
    "0xED35D34ffF1d4d442258c552d2e88300763e7521",
    30,
    "100000000000000"
  ],
  "numDeployments": 1,
  "solcInputHash": "a5c1ec6ed734a994a4a7c4ed9bed389b",
  "bytecode": "0x608060405260646008556011805460ff191660011790553480156200002357600080fd5b50604051620060a2380380620060a2833981810160405260c08110156200004957600080fd5b508051602082015160408301516060840151608085015160a090950151600160008181558154336001600160a01b031991821681179093556003805482166001600160a01b03998a16179055600580548216978916979097179096556006805487169588169590951790945560079690965560048054851695909216949094179055600280549092169093179055600d55615fb7908190620000eb90396000f3fe60806040526004361061028e5760003560e01c8063633451de11610156578063633451de1461090f57806363ae210314610942578063657bc5d01461095757806367a527931461096c578063704b6c02146109815780637be7d141146109b45780637c2eb9f714610a9f5780638a54942f14610acb57806395e9bbd714610af55780639698d25a14610b1f57806398d1e03a14610b525780639a20810014610b675780639b57862014610ba0578063ae4d7f9a14610bb5578063cb0269c914610be8578063cfad57a214610bfd578063e1f21c6714610c30578063ef12c67e14610c73578063f255527814610e25578063f2ae372f14610e60578063f2cea6a514610f3f578063f3883d8b14610f7a578063f851a44014610fb3578063f887ea4014610fc8578063fa44457714610fdd578063faf990f314611010578063fbfa77cf146110a9578063fc2cee62146110be576102de565b80626cc35e146102e357806304225954146103145780630d4d003d146103505780631045c74e1461039d578063126082cf146103d057806312d43a51146103e55780631bca8cf0146103fa5780631ce9cb8f1461040f5780631f28510614610442578063225fc9fd146104e4578063233bfe3b1461051d57806324a084df1461054757806324f746971461058057806327b42c0f14610595578063308aa81f146105ce5780633422ead1146105fe57806336eba48a146106395780633a2a80c71461066c5780633e72a262146106815780633fc8cef3146106965780634067b132146106ab5780634278555f146106e1578063490ae2101461070b5780635841fcaa146107355780635b88e8c61461074a5780635d5c22e81461082357806360a362e21461089d57806362f8a3fe146108d6576102de565b366102de576006546001600160a01b031633146102dc5760405162461bcd60e51b8152600401808060200182810382526023815260200180615f5e6023913960400191505060405180910390fd5b005b600080fd5b3480156102ef57600080fd5b506102f86110e8565b604080516001600160a01b039092168252519081900360200190f35b34801561032057600080fd5b5061033e6004803603602081101561033757600080fd5b50356110f7565b60408051918252519081900360200190f35b34801561035c57600080fd5b506103896004803603604081101561037357600080fd5b50803590602001356001600160a01b0316611115565b604080519115158252519081900360200190f35b3480156103a957600080fd5b5061033e600480360360208110156103c057600080fd5b50356001600160a01b03166115b3565b3480156103dc57600080fd5b5061033e6115c5565b3480156103f157600080fd5b506102f86115cb565b34801561040657600080fd5b5061033e6115da565b34801561041b57600080fd5b5061033e6004803603602081101561043257600080fd5b50356001600160a01b03166115e0565b34801561044e57600080fd5b5061046c6004803603602081101561046557600080fd5b50356115f2565b604080516001600160a01b039e8f1681529c8e1660208e01528c81019b909b5260608c019990995296151560808b0152948a1660a08a015260c089019390935260e088019190915261010087015261012086015261014085015215156101608401529092166101808201529051908190036101a00190f35b3480156104f057600080fd5b506103896004803603604081101561050757600080fd5b50803590602001356001600160a01b0316611665565b34801561052957600080fd5b506102dc6004803603602081101561054057600080fd5b5035611a2f565b34801561055357600080fd5b506102dc6004803603604081101561056a57600080fd5b506001600160a01b038135169060200135611ab7565b34801561058c57600080fd5b5061033e611b1b565b3480156105a157600080fd5b50610389600480360360408110156105b857600080fd5b50803590602001356001600160a01b0316611b21565b3480156105da57600080fd5b506102dc600480360360408110156105f157600080fd5b5080359060200135611f83565b34801561060a57600080fd5b506102dc6004803603604081101561062157600080fd5b506001600160a01b0381351690602001351515612019565b34801561064557600080fd5b506103896004803603602081101561065c57600080fd5b50356001600160a01b03166120c6565b34801561067857600080fd5b5061033e6120db565b34801561068d57600080fd5b506103896120e1565b3480156106a257600080fd5b506102f86120ea565b3480156106b757600080fd5b506102dc600480360360608110156106ce57600080fd5b50803590602081013590604001356120f9565b3480156106ed57600080fd5b5061033e6004803603602081101561070457600080fd5b503561219a565b34801561071757600080fd5b506102dc6004803603602081101561072e57600080fd5b50356121a7565b34801561074157600080fd5b5061033e61222f565b61033e600480360361012081101561076157600080fd5b810190602081018135600160201b81111561077b57600080fd5b82018360208201111561078d57600080fd5b803590602001918460208302840111600160201b831117156107ae57600080fd5b919080806020026020016040519081016040528093929190818152602001838360200280828437600092019190915250929550505081356001600160a01b03908116935060208301359260408101359250606081013515159160808201359160a08101359160c08201359160e0013516612235565b34801561082f57600080fd5b5061084d6004803603602081101561084657600080fd5b50356123f1565b60408051602080825283518183015283519192839290830191858101910280838360005b83811015610889578181015183820152602001610871565b505050509050019250505060405180910390f35b3480156108a957600080fd5b50610389600480360360408110156108c057600080fd5b50803590602001356001600160a01b0316612527565b3480156108e257600080fd5b5061033e600480360360408110156108f957600080fd5b506001600160a01b0381351690602001356128c5565b34801561091b57600080fd5b5061033e6004803603602081101561093257600080fd5b50356001600160a01b031661290b565b34801561094e57600080fd5b5061033e61291d565b34801561096357600080fd5b506102f8612923565b34801561097857600080fd5b5061033e612932565b34801561098d57600080fd5b506102dc600480360360208110156109a457600080fd5b50356001600160a01b0316612938565b61033e60048036036101608110156109cb57600080fd5b810190602081018135600160201b8111156109e557600080fd5b8201836020820111156109f757600080fd5b803590602001918460208302840111600160201b83111715610a1857600080fd5b919080806020026020016040519081016040528093929190818152602001838360200280828437600092019190915250929550505081356001600160a01b039081169350602083013592604081013592506060810135151591608082013581169160a08101359160c08201359160e0810135916101008201351515916101200135166129d9565b348015610aab57600080fd5b506102dc60048036036020811015610ac257600080fd5b50351515612b89565b348015610ad757600080fd5b506102dc60048036036020811015610aee57600080fd5b5035612c1d565b348015610b0157600080fd5b5061084d60048036036020811015610b1857600080fd5b5035612ca5565b348015610b2b57600080fd5b5061033e60048036036020811015610b4257600080fd5b50356001600160a01b0316612dd3565b348015610b5e57600080fd5b5061033e612de5565b348015610b7357600080fd5b506102dc60048036036040811015610b8a57600080fd5b50803590602001356001600160a01b0316612deb565b348015610bac57600080fd5b5061033e612fc3565b348015610bc157600080fd5b506102dc60048036036020811015610bd857600080fd5b50356001600160a01b0316612fc9565b348015610bf457600080fd5b5061033e61306a565b348015610c0957600080fd5b506102dc60048036036020811015610c2057600080fd5b50356001600160a01b0316613070565b348015610c3c57600080fd5b506102dc60048036036060811015610c5357600080fd5b506001600160a01b038135811691602081013590911690604001356130df565b348015610c7f57600080fd5b506102dc60048036036060811015610c9657600080fd5b810190602081018135600160201b811115610cb057600080fd5b820183602082011115610cc257600080fd5b803590602001918460208302840111600160201b83111715610ce357600080fd5b9190808060200260200160405190810160405280939291908181526020018383602002808284376000920191909152509295949360208101935035915050600160201b811115610d3257600080fd5b820183602082011115610d4457600080fd5b803590602001918460208302840111600160201b83111715610d6557600080fd5b9190808060200260200160405190810160405280939291908181526020018383602002808284376000920191909152509295949360208101935035915050600160201b811115610db457600080fd5b820183602082011115610dc657600080fd5b803590602001918460208302840111600160201b83111715610de757600080fd5b9190808060200260200160405190810160405280939291908181526020018383602002808284376000920191909152509295506131b4945050505050565b348015610e3157600080fd5b506102dc60048036036040811015610e4857600080fd5b506001600160a01b03813581169160200135166133a3565b61033e6004803603610140811015610e7757600080fd5b810190602081018135600160201b811115610e9157600080fd5b820183602082011115610ea357600080fd5b803590602001918460208302840111600160201b83111715610ec457600080fd5b919080806020026020016040519081016040528093929190818152602001838360200280828437600092019190915250929550506001600160a01b038335811694506020840135936040810135935060608101359250608081013515159160a08201359160c08101359160e082013591610100013516613487565b348015610f4b57600080fd5b50610f5461366a565b604080519485526020850193909352838301919091526060830152519081900360800190f35b348015610f8657600080fd5b506102dc60048036036040811015610f9d57600080fd5b50803590602001356001600160a01b031661367c565b348015610fbf57600080fd5b506102f8613854565b348015610fd457600080fd5b506102f8613863565b348015610fe957600080fd5b5061033e6004803603602081101561100057600080fd5b50356001600160a01b0316613872565b34801561101c57600080fd5b5061103a6004803603602081101561103357600080fd5b5035613884565b604080516001600160a01b039d8e1681529b8d1660208d01528b81019a909a5260608b019890985260808a019690965293151560a089015260c088019290925260e087015261010086015261012085015215156101408401529092166101608201529051908190036101800190f35b3480156110b557600080fd5b506102f86138f8565b3480156110ca57600080fd5b506102dc600480360360208110156110e157600080fd5b5035613907565b6009546001600160a01b031681565b6012818154811061110457fe5b600091825260209091200154905081565b60006002600054141561115d576040805162461bcd60e51b815260206004820152601f6024820152600080516020615d99833981519152604482015290519081900360640190fd5b600260005561116a615b95565b6000848152601b602090815260409182902082516101c08101845281546001600160a01b03168152600182018054855181860281018601909652808652919492938581019392908301828280156111ea57602002820191906000526020600020905b81546001600160a01b031681526001909101906020018083116111cc575b505050918352505060028201546001600160a01b0390811660208301526003830154604083015260048301546060830152600583015460ff8082161515608085015261010091829004831660a0850152600685015460c0850152600785015460e08501526008850154828501526009850154610120850152600a850154610140850152600b90940154938416151561016084015290920482166101809091015281519192501661129e5760019150506115a8565b60006112b9826101400151836101600151846000015161398f565b9050806112cb576000925050506115a8565b6000858152601b6020526040812080546001600160a01b0319168155906112f56001830182615c2c565b506002810180546001600160a01b0319169055600060038201819055600482018190556005820180546001600160a81b031990811690915560068301829055600783018290556008830182905560098301829055600a8301829055600b909201805490921690915582516020840151805161139b929190849061137457fe5b60200260200101518560400151866060015187608001518860a00151308a60e00151613b15565b9050801561144a576001836020015151111561140b57600354602084015180516113f4926001600160a01b03169184916000906113d457fe5b60200260200101516001600160a01b0316613fae9092919063ffffffff16565b611408836020015184610100015130614005565b90505b8261018001511561142957611424818460c00151614083565b61144a565b61144a8360c00151828560200151600187602001515103815181106113d457fe5b61145983610120015186614083565b82600001516001600160a01b03167f21435c5b618d77ff3657140cd3318e2cffaebc5e0e1b7318f56a9ba4044c3ed284602001518560400151866060015187608001518860a001518960c001518a60e001518b61010001518c61012001516114cf8e61014001514361411190919063ffffffff16565b6101608f01516114e0904290614111565b60405180806020018c6001600160a01b031681526020018b81526020018a81526020018915158152602001886001600160a01b0316815260200187815260200186815260200185815260200184815260200183815260200182810382528d818151815260200191508051906020019060200280838360005b83811015611570578181015183820152602001611558565b505050509050019c5050505050505050505050505060405180910390a26115a0836101a001518760016000614153565b600193505050505b600160005592915050565b600b6020526000908152604090205481565b61271081565b6001546001600160a01b031681565b60155481565b600a6020526000908152604090205481565b601b602052600090815260409020805460028201546003830154600484015460058501546006860154600787015460088801546009890154600a8a0154600b909a01546001600160a01b03998a169a988a16999798969760ff80881698610100988990048316989093918216929104168d565b6000600260005414156116ad576040805162461bcd60e51b815260206004820152601f6024820152600080516020615d99833981519152604482015290519081900360640190fd5b60026000556116ba615c4a565b60008481526019602090815260409182902082516101a08101845281546001600160a01b031681526001820180548551818602810186019096528086529194929385810193929083018282801561173a57602002820191906000526020600020905b81546001600160a01b0316815260019091019060200180831161171c575b505050918352505060028201546001600160a01b039081166020830152600383015460408301526004830154606083015260058301546080830152600683015460ff908116151560a0840152600784015460c0840152600884015460e0840152600984015461010080850191909152600a850154610120850152600b909401549081161515610140840152929092048216610160909101528151919250166117e65760019150506115a8565b60006118018261012001518361014001518460000151614259565b905080611813576000925050506115a8565b600085815260196020526040812080546001600160a01b03191681559061183d6001830182615c2c565b506002810180546001600160a01b0319169055600060038201819055600482018190556005820181905560068201805460ff19169055600782018190556008820181905560098201819055600a820155600b0180546001600160a81b0319169055610160820151156118c0576118bb82606001518360000151614083565b6118de565b6118de8260000151836060015184602001516000815181106113d457fe5b6118ed82610100015185614083565b81600001516001600160a01b03167f35b638e650e2328786fb405bd69d2083dbedc018d086662e74b775b4f1dae4bf83602001518460400151856060015186608001518760a001518860c001518960e001518a610100015161195d8c61012001514361411190919063ffffffff16565b6101408d015161196e904290614111565b60405180806020018b6001600160a01b031681526020018a8152602001898152602001888152602001871515815260200186815260200185815260200184815260200183815260200182810382528c818151815260200191508051906020019060200280838360005b838110156119ef5781810151838201526020016119d7565b505050509050019b50505050505050505050505060405180910390a2611a1e8261018001518660006001614153565b600192505050600160005592915050565b6002546001600160a01b03163314611a7c576040805162461bcd60e51b815260206004820152601e6024820152600080516020615e94833981519152604482015290519081900360640190fd5b60088190556040805182815290517f21167d0d4661af93817ebce920f18986eed3d75d5e1c03f2aed05efcbafbc4529181900360200190a150565b6001546001600160a01b03163314611b04576040805162461bcd60e51b81526020600482015260156024820152600080516020615db9833981519152604482015290519081900360640190fd5b611b176001600160a01b038316826142c1565b5050565b60165481565b600060026000541415611b69576040805162461bcd60e51b815260206004820152601f6024820152600080516020615d99833981519152604482015290519081900360640190fd5b6002600055611b76615c4a565b60008481526019602090815260409182902082516101a08101845281546001600160a01b0316815260018201805485518186028101860190965280865291949293858101939290830182828015611bf657602002820191906000526020600020905b81546001600160a01b03168152600190910190602001808311611bd8575b505050918352505060028201546001600160a01b039081166020830152600383015460408301526004830154606083015260058301546080830152600683015460ff908116151560a0840152600784015460c0840152600884015460e0840152600984015461010080850191909152600a850154610120850152600b90940154908116151561014084015292909204821661016090910152815191925016611ca25760019150506115a8565b6000611cbd826101200151836101400151846000015161398f565b905080611ccf576000925050506115a8565b600085815260196020526040812080546001600160a01b031916815590611cf96001830182615c2c565b506002810180546001600160a01b0319169055600060038201819055600482018190556005820181905560068201805460ff19169055600782018190556008820181905560098201819055600a820155600b0180546001600160a81b0319169055606082015115611e0657606082015160208301515160011015611db557600354606084015160208501518051611d9f936001600160a01b03169291906000906113d457fe5b611db28360200151846080015130614005565b90505b6000611dd53385602001518487604001518860c001518960a001516143a6565b60035460208601518051929350611e03926001600160a01b039092169184919060001981019081106113d457fe5b50505b815160208301518051611e449291906000198101908110611e2357fe5b602002602001015184604001518560a001518660c001518760e00151614485565b611e5382610100015185614083565b81600001516001600160a01b03167f1be316b94d38c07bd41cdb4913772d0a0a82802786a2f8b657b6e85dbcdfc64183602001518460400151856060015186608001518760a001518860c001518960e001518a6101000151611ec38c61012001514361411190919063ffffffff16565b6101408d0151611ed4904290614111565b60405180806020018b6001600160a01b031681526020018a8152602001898152602001888152602001871515815260200186815260200185815260200184815260200183815260200182810382528c818151815260200191508051906020019060200280838360005b83811015611f55578181015183820152602001611f3d565b505050509050019b50505050505050505050505060405180910390a2611a1e82610180015186600180614153565b6002546001600160a01b03163314611fd0576040805162461bcd60e51b815260206004820152601e6024820152600080516020615e94833981519152604482015290519081900360640190fd5b60148290556015819055604080518381526020810183905281517febb0f666150f4be5b60c45df8f3e49992510b0128027fe58eea6110f296493bc929181900390910190a15050565b6002546001600160a01b03163314612066576040805162461bcd60e51b815260206004820152601e6024820152600080516020615e94833981519152604482015290519081900360640190fd5b6001600160a01b038216600081815260176020908152604091829020805460ff1916851515908117909155825190815291517ffbabc02389290a451c6e600d05bf9887b99bfad39d8e1237e4e3df042e4941fe9281900390910190a25050565b60176020526000908152604090205460ff1681565b600f5481565b60115460ff1681565b6006546001600160a01b031681565b6002546001600160a01b03163314612146576040805162461bcd60e51b815260206004820152601e6024820152600080516020615e94833981519152604482015290519081900360640190fd5b600e839055600f8290556010819055604080518481526020810184905280820183905290517fb98e759701eaca2e60c25e91109003c1c7442ef731b5d569037063005da8254d9181900360600190a1505050565b6013818154811061110457fe5b6002546001600160a01b031633146121f4576040805162461bcd60e51b815260206004820152601e6024820152600080516020615e94833981519152604482015290519081900360640190fd5b60078190556040805182815290517f974fd3c1fcb4653dfc4fb740c4c692cd212d55c28f163f310128cb64d83006759181900360200190a150565b600e5481565b60006002600054141561227d576040805162461bcd60e51b815260206004820152601f6024820152600080516020615d99833981519152604482015290519081900360640190fd5b6002600055600d548410156122bf576040805162461bcd60e51b815260206004820152600360248201526266656560e81b604482015290519081900360640190fd5b833410156122fa576040805162461bcd60e51b81526020600482015260036024820152621d985b60ea1b604482015290519081900360640190fd5b89516001148061230b575089516002145b612342576040805162461bcd60e51b81526020600482015260036024820152623632b760e91b604482015290519081900360640190fd5b6006548a516001600160a01b03909116908b9060009061235e57fe5b60200260200101516001600160a01b0316146123aa576040805162461bcd60e51b815260206004808301919091526024820152630e0c2e8d60e31b604482015290519081900360640190fd5b6123b261488d565b6123bb836148f9565b60006123c73486614111565b90506123dd338c8c848d8d8d8d8d60018d61496d565b60016000559b9a5050505050505050505050565b60606123fb615b95565b6000838152601b602090815260409182902082516101c08101845281546001600160a01b031681526001820180548551818602810186019096528086529194929385810193929083018282801561247b57602002820191906000526020600020905b81546001600160a01b0316815260019091019060200180831161245d575b505050918352505060028201546001600160a01b039081166020808401919091526003840154604084015260048401546060840152600584015460ff8082161515608086015261010091829004841660a0860152600686015460c0860152600786015460e08601526008860154828601526009860154610120860152600a860154610140860152600b909501549485161515610160850152909304166101809091015201519392505050565b60006002600054141561256f576040805162461bcd60e51b815260206004820152601f6024820152600080516020615d99833981519152604482015290519081900360640190fd5b600260005561257c615b95565b6000848152601b602090815260409182902082516101c08101845281546001600160a01b03168152600182018054855181860281018601909652808652919492938581019392908301828280156125fc57602002820191906000526020600020905b81546001600160a01b031681526001909101906020018083116125de575b505050918352505060028201546001600160a01b0390811660208301526003830154604083015260048301546060830152600583015460ff8082161515608085015261010091829004831660a0850152600685015460c0850152600785015460e08501526008850154828501526009850154610120850152600a850154610140850152600b9094015493841615156101608401529092048216610180909101528151919250166126b05760019150506115a8565b60006126cb8261014001518361016001518460000151614259565b9050806126dd576000925050506115a8565b6000858152601b6020526040812080546001600160a01b0319168155906127076001830182615c2c565b506002810180546001600160a01b0319169055600060038201819055600482018190556005820180546001600160a81b031990811690915560068301829055600783018290556008830182905560098301829055600a830191909155600b9091018054909116905561012082015161277f9085614083565b81600001516001600160a01b03167f87abfd78e844f28318363bdf3da99eab2f4a2da9ff7ae365484507f7b6c3f80583602001518460400151856060015186608001518760a001518860c001518960e001518a61010001518b61012001516127f58d61014001514361411190919063ffffffff16565b6101608e0151612806904290614111565b60405180806020018c6001600160a01b031681526020018b81526020018a81526020018915158152602001886001600160a01b0316815260200187815260200186815260200185815260200184815260200183815260200182810382528d818151815260200191508051906020019060200280838360005b8381101561289657818101518382015260200161287e565b505050509050019c5050505050505050505050505060405180910390a2611a1e826101a0015186600080614153565b6000828260405160200180836001600160a01b031660601b8152601401828152602001925050506040516020818303038152906040528051906020012090505b92915050565b60186020526000908152604090205481565b600d5481565b6004546001600160a01b031681565b60075481565b6001546001600160a01b03163314612985576040805162461bcd60e51b81526020600482015260156024820152600080516020615db9833981519152604482015290519081900360640190fd5b600280546001600160a01b0383166001600160a01b0319909116811790915560408051918252517f5a272403b402d892977df56625f4164ccaf70ca3863991c43ecfe76a6905b0a19181900360200190a150565b600060026000541415612a21576040805162461bcd60e51b815260206004820152601f6024820152600080516020615d99833981519152604482015290519081900360640190fd5b6002600055600d54841015612a63576040805162461bcd60e51b815260206004820152600360248201526266656560e81b604482015290519081900360640190fd5b833414612a9d576040805162461bcd60e51b81526020600482015260036024820152621d985b60ea1b604482015290519081900360640190fd5b8b5160011480612aae57508b516002145b612ae5576040805162461bcd60e51b81526020600482015260036024820152623632b760e91b604482015290519081900360640190fd5b8215612b58576006548c516001600160a01b03909116908d906000198101908110612b0c57fe5b60200260200101516001600160a01b031614612b58576040805162461bcd60e51b815260206004808301919091526024820152630e0c2e8d60e31b604482015290519081900360640190fd5b612b6061488d565b612b74338d8d8d8d8d8d8d8d8d8d8d614b04565b60016000559c9b505050505050505050505050565b6002546001600160a01b03163314612bd6576040805162461bcd60e51b815260206004820152601e6024820152600080516020615e94833981519152604482015290519081900360640190fd5b6011805482151560ff19909116811790915560408051918252517f4eb87a5935d402aa24c01b45bfb30adefcd2328b480f2d967864de4b64ea929f9181900360200190a150565b6002546001600160a01b03163314612c6a576040805162461bcd60e51b815260206004820152601e6024820152600080516020615e94833981519152604482015290519081900360640190fd5b60168190556040805182815290517f22bd2c9f980325d046be74aaef5fc76df4a2bc3fbc7c5a1200fcc79fe80dab6c9181900360200190a150565b6060612caf615c4a565b60008381526019602090815260409182902082516101a08101845281546001600160a01b0316815260018201805485518186028101860190965280865291949293858101939290830182828015612d2f57602002820191906000526020600020905b81546001600160a01b03168152600190910190602001808311612d11575b505050918352505060028201546001600160a01b03908116602080840191909152600384015460408401526004840154606084015260058401546080840152600684015460ff908116151560a0850152600785015460c0850152600885015460e0850152600985015461010080860191909152600a860154610120860152600b90950154908116151561014085015293909304166101609091015201519392505050565b600c6020526000908152604090205481565b60085481565b3360009081526017602052604090205460ff16612e35576040805162461bcd60e51b815260206004820152600360248201526234303360e81b604482015290519081900360640190fd5b601454601254808210612e49575050611b17565b80841115612e55578093505b83821015612fbb57600060128381548110612e6c57fe5b90600052602060002001549050306001600160a01b03166327b42c0f82866040518363ffffffff1660e01b815260040180838152602001826001600160a01b0316815260200192505050602060405180830381600087803b158015612ed057600080fd5b505af1925050508015612ef557506040513d6020811015612ef057600080fd5b505160015b612f89576040805163225fc9fd60e01b8152600481018390526001600160a01b03861660248201529051309163225fc9fd9160448083019260209291908290030181600087803b158015612f4857600080fd5b505af1925050508015612f6d57506040513d6020811015612f6857600080fd5b505160015b612f7657612f84565b80612f82575050612fbb565b505b612f97565b80612f95575050612fbb565b505b60128381548110612fa457fe5b600091825260208220015550600190910190612e55565b506014555050565b60145481565b6002546001600160a01b03163314613016576040805162461bcd60e51b815260206004820152601e6024820152600080516020615e94833981519152604482015290519081900360640190fd5b600980546001600160a01b0383166001600160a01b0319909116811790915560408051918252517f828abcccea18192c21d645e575652c49e20b986dab777906fc473d056b01b6a89181900360200190a150565b60105481565b6001546001600160a01b031633146130bd576040805162461bcd60e51b81526020600482015260156024820152600080516020615db9833981519152604482015290519081900360640190fd5b600180546001600160a01b0319166001600160a01b0392909216919091179055565b6001546001600160a01b0316331461312c576040805162461bcd60e51b81526020600482015260156024820152600080516020615db9833981519152604482015290519081900360640190fd5b826001600160a01b031663095ea7b383836040518363ffffffff1660e01b815260040180836001600160a01b0316815260200182815260200192505050602060405180830381600087803b15801561318357600080fd5b505af1158015613197573d6000803e3d6000fd5b505050506040513d60208110156131ad57600080fd5b5050505050565b6002546001600160a01b03163314613201576040805162461bcd60e51b815260206004820152601e6024820152600080516020615e94833981519152604482015290519081900360640190fd5b60005b835181101561329c57600084828151811061321b57fe5b6020026020010151905083828151811061323157fe5b6020026020010151600b6000836001600160a01b03166001600160a01b031681526020019081526020016000208190555082828151811061326e57fe5b6020908102919091018101516001600160a01b039092166000908152600c9091526040902055600101613204565b507fae32d569b058895b9620d6552b09aaffedc9a6f396be4d595a224ad09f8b213983838360405180806020018060200180602001848103845287818151815260200191508051906020019060200280838360005b838110156133095781810151838201526020016132f1565b50505050905001848103835286818151815260200191508051906020019060200280838360005b83811015613348578181015183820152602001613330565b50505050905001848103825285818151815260200191508051906020019060200280838360005b8381101561338757818101518382015260200161336f565b50505050905001965050505050505060405180910390a1505050565b6002546001600160a01b031633146133f0576040805162461bcd60e51b815260206004820152601e6024820152600080516020615e94833981519152604482015290519081900360640190fd5b6001600160a01b0382166000908152600a6020526040902054806134145750611b17565b6001600160a01b0383166000818152600a6020526040812055613438908383613fae565b604080516001600160a01b0380861682528416602082015280820183905290517f4f1b51dd7a2fcb861aa2670f668be66835c4ee12b4bbbf037e4d0018f39819e49181900360600190a1505050565b6000600260005414156134cf576040805162461bcd60e51b815260206004820152601f6024820152600080516020615d99833981519152604482015290519081900360640190fd5b6002600055600d54841015613511576040805162461bcd60e51b815260206004820152600360248201526266656560e81b604482015290519081900360640190fd5b83341461354b576040805162461bcd60e51b81526020600482015260036024820152621d985b60ea1b604482015290519081900360640190fd5b8a516001148061355c57508a516002145b613593576040805162461bcd60e51b81526020600482015260036024820152623632b760e91b604482015290519081900360640190fd5b61359b61488d565b6135a4836148f9565b8815613656576005548b516001600160a01b0390911690631b827878908d906000906135cc57fe5b602002602001015133308d6040518563ffffffff1660e01b815260040180856001600160a01b03168152602001846001600160a01b03168152602001836001600160a01b03168152602001828152602001945050505050600060405180830381600087803b15801561363d57600080fd5b505af1158015613651573d6000803e3d6000fd5b505050505b6123dd338c8c8c8c8c8c8c8c60008c61496d565b60145460125460155460135490919293565b3360009081526017602052604090205460ff166136c6576040805162461bcd60e51b815260206004820152600360248201526234303360e81b604482015290519081900360640190fd5b6015546013548082106136da575050611b17565b808411156136e6578093505b8382101561384c576000601383815481106136fd57fe5b90600052602060002001549050306001600160a01b0316630d4d003d82866040518363ffffffff1660e01b815260040180838152602001826001600160a01b0316815260200192505050602060405180830381600087803b15801561376157600080fd5b505af192505050801561378657506040513d602081101561378157600080fd5b505160015b61381a5760408051633051b17160e11b8152600481018390526001600160a01b0386166024820152905130916360a362e29160448083019260209291908290030181600087803b1580156137d957600080fd5b505af19250505080156137fe57506040513d60208110156137f957600080fd5b505160015b61380757613815565b8061381357505061384c565b505b613828565b8061382657505061384c565b505b6013838154811061383557fe5b6000918252602082200155506001909101906136e6565b506015555050565b6002546001600160a01b031681565b6005546001600160a01b031681565b601a6020526000908152604090205481565b6019602052600090815260409020805460028201546003830154600484015460058501546006860154600787015460088801546009890154600a8a0154600b909a01546001600160a01b03998a169a988a169997989697959660ff958616969495939492939092908216916101009004168c565b6003546001600160a01b031681565b6002546001600160a01b03163314613954576040805162461bcd60e51b815260206004820152601e6024820152600080516020615e94833981519152604482015290519081900360640190fd5b600d8190556040805182815290517f52a8358457e20bbb36e4086b83fb0749599f1893fe4c35a876c46dc4886d12db9181900360200190a150565b6000426139a760105485614cde90919063ffffffff16565b116139e3576040805162461bcd60e51b8152602060048201526007602482015266195e1c1a5c995960ca1b604482015290519081900360640190fd5b600033301480613a0257503360009081526017602052604090205460ff165b60115490915060ff16158015613a16575080155b15613a4e576040805162461bcd60e51b815260206004820152600360248201526234303360e81b604482015290519081900360640190fd5b8015613a745743613a6a600e5487614cde90919063ffffffff16565b1115915050613b0e565b336001600160a01b03841614613ab7576040805162461bcd60e51b815260206004820152600360248201526234303360e81b604482015290519081900360640190fd5b42613acd600f5486614cde90919063ffffffff16565b1115613b08576040805162461bcd60e51b815260206004820152600560248201526464656c617960d81b604482015290519081900360640190fd5b60019150505b9392505050565b6003546000906001600160a01b03168185613ba857816001600160a01b031663e124e6d28a6040518263ffffffff1660e01b815260040180826001600160a01b0316815260200191505060206040518083038186803b158015613b7757600080fd5b505afa158015613b8b573d6000803e3d6000fd5b505050506040513d6020811015613ba157600080fd5b5051613c22565b816001600160a01b03166381a612d68a6040518263ffffffff1660e01b815260040180826001600160a01b0316815260200191505060206040518083038186803b158015613bf557600080fd5b505afa158015613c09573d6000803e3d6000fd5b505050506040513d6020811015613c1f57600080fd5b50515b90508515613c6e5783811015613c695760405162461bcd60e51b8152600401808060200182810382526030815260200180615e646030913960400191505060405180910390fd5b613cad565b83811115613cad5760405162461bcd60e51b8152600401808060200182810382526031815260200180615f046031913960400191505060405180910390fd5b6000826001600160a01b03166312d43a516040518163ffffffff1660e01b815260040160206040518083038186803b158015613ce857600080fd5b505afa158015613cfc573d6000803e3d6000fd5b505050506040513d6020811015613d1257600080fd5b81019080805190602001909291905050509050600460009054906101000a90046001600160a01b03166001600160a01b031663f3238cec8d8d8d8b8d8860006040518863ffffffff1660e01b815260040180886001600160a01b03168152602001876001600160a01b03168152602001866001600160a01b0316815260200185151581526020018481526020018381526020018215158152602001975050505050505050600060405180830381600087803b158015613dd057600080fd5b505af1158015613de4573d6000803e3d6000fd5b50505050806001600160a01b0316636d63c1d0846040518263ffffffff1660e01b815260040180826001600160a01b03168152602001915050600060405180830381600087803b158015613e3757600080fd5b505af1158015613e4b573d6000803e3d6000fd5b505050506000600560009054906101000a90046001600160a01b03166001600160a01b0316632662166b8e8e8e8e8e8e8e6040518863ffffffff1660e01b815260040180886001600160a01b03168152602001876001600160a01b03168152602001866001600160a01b031681526020018581526020018481526020018315158152602001826001600160a01b03168152602001975050505050505050602060405180830381600087803b158015613f0257600080fd5b505af1158015613f16573d6000803e3d6000fd5b505050506040513d6020811015613f2c57600080fd5b50516040805163d3c87bbb60e01b81526001600160a01b03878116600483015291519293509084169163d3c87bbb9160248082019260009290919082900301818387803b158015613f7c57600080fd5b505af1158015613f90573d6000803e3d6000fd5b50505050613f9e8d8a614d36565b9c9b505050505050505050505050565b604080516001600160a01b038416602482015260448082018490528251808303909101815260649091019091526020810180516001600160e01b031663a9059cbb60e01b179052614000908490614ebf565b505050565b600083516002141561404c576140458460008151811061402157fe5b60200260200101518560018151811061403657fe5b60200260200101518585614f70565b9050613b0e565b60405162461bcd60e51b8152600401808060200182810382526029815260200180615f356029913960400191505060405180910390fd5b60065460408051632e1a7d4d60e01b81526004810185905290516001600160a01b0390921691632e1a7d4d9160248082019260009290919082900301818387803b1580156140d057600080fd5b505af11580156140e4573d6000803e3d6000fd5b50506040516001600160a01b038416925084156108fc02915084906000818181858888f150505050505050565b6000613b0e83836040518060400160405280601e81526020017f536166654d6174683a207375627472616374696f6e206f766572666c6f770000815250615046565b6001600160a01b03841661416657614253565b614178846001600160a01b03166150dd565b61418157614253565b6016548061418f5750614253565b6000856001600160a01b0316637d173b57838787876040518563ffffffff1660e01b815260040180848152602001831515815260200182151581526020019350505050600060405180830381600088803b1580156141ec57600080fd5b5087f1935050505080156141fe575060015b6142075761420b565b5060015b604080516001600160a01b0388168152821515602082015281517f46ddbd62fc1a7626fe9c43026cb0694aec0b031fe81ac66fb4cfe9381dc6fe72929181900390910190a150505b50505050565b60008033301480613a0257503360009081526017602052604090205460ff1660115490915060ff16158015613a16575080613a4e576040805162461bcd60e51b815260206004820152600360248201526234303360e81b604482015290519081900360640190fd5b80471015614316576040805162461bcd60e51b815260206004820152601d60248201527f416464726573733a20696e73756666696369656e742062616c616e6365000000604482015290519081900360640190fd5b6040516000906001600160a01b0384169083908381818185875af1925050503d8060008114614361576040519150601f19603f3d011682016040523d82523d6000602084013e614366565b606091505b50509050806140005760405162461bcd60e51b815260040180806020018281038252603a815260200180615e04603a913960400191505060405180910390fd5b6000806143b78888888888886150e3565b905080156144765760006143ee6127106143e86143e160075461271061411190919063ffffffff16565b8a906152c0565b90615319565b905060006143fc8883614111565b905060008960018b51038151811061441057fe5b6020026020010151905061445282600a6000846001600160a01b03166001600160a01b0316815260200190815260200160002054614cde90919063ffffffff16565b6001600160a01b039091166000908152600a602052604090205550915061447b9050565b859150505b9695505050505050565b6003546001600160a01b031660008361451657816001600160a01b03166381a612d6876040518263ffffffff1660e01b815260040180826001600160a01b0316815260200191505060206040518083038186803b1580156144e557600080fd5b505afa1580156144f9573d6000803e3d6000fd5b505050506040513d602081101561450f57600080fd5b5051614590565b816001600160a01b031663e124e6d2876040518263ffffffff1660e01b815260040180826001600160a01b0316815260200191505060206040518083038186803b15801561456357600080fd5b505afa158015614577573d6000803e3d6000fd5b505050506040513d602081101561458d57600080fd5b50515b905083156145dc57828111156145d75760405162461bcd60e51b8152600401808060200182810382526031815260200180615f046031913960400191505060405180910390fd5b61461b565b8281101561461b5760405162461bcd60e51b8152600401808060200182810382526030815260200180615e646030913960400191505060405180910390fd5b614626868587615358565b6000826001600160a01b03166312d43a516040518163ffffffff1660e01b815260040160206040518083038186803b15801561466157600080fd5b505afa158015614675573d6000803e3d6000fd5b505050506040513d602081101561468b57600080fd5b50516004805460408051633cc8e33b60e21b81526001600160a01b038e8116948201949094528c841660248201528b841660448201528915156064820152608481018b905260a48101879052600160c4820152905193945091169163f3238cec9160e48082019260009290919082900301818387803b15801561470d57600080fd5b505af1158015614721573d6000803e3d6000fd5b50505050806001600160a01b0316636d63c1d0846040518263ffffffff1660e01b815260040180826001600160a01b03168152602001915050600060405180830381600087803b15801561477457600080fd5b505af1158015614788573d6000803e3d6000fd5b505060055460408051630f8ee8bb60e11b81526001600160a01b038e811660048301528d811660248301528c81166044830152606482018c90528a151560848301529151919092169350631f1dd176925060a480830192600092919082900301818387803b1580156147f957600080fd5b505af115801561480d573d6000803e3d6000fd5b50505050806001600160a01b031663d3c87bbb846040518263ffffffff1660e01b815260040180826001600160a01b03168152602001915050600060405180830381600087803b15801561486057600080fd5b505af1158015614874573d6000803e3d6000fd5b50505050614882898761550a565b505050505050505050565b34156148f757600660009054906101000a90046001600160a01b03166001600160a01b031663d0e30db0346040518263ffffffff1660e01b81526004016000604051808303818588803b1580156148e357600080fd5b505af11580156131ad573d6000803e3d6000fd5b565b801580159061491257506009546001600160a01b031615155b1561496a57600954604080516356b4b2ad60e01b81523360048201526024810184905290516001600160a01b03909216916356b4b2ad9160448082019260009290919082900301818387803b1580156148e357600080fd5b50565b6000614977615c4a565b604051806101a001604052808e6001600160a01b031681526020018d81526020018c6001600160a01b031681526020018b81526020018a815260200189815260200188151581526020018781526020018681526020014381526020014281526020018515158152602001846001600160a01b031681525090506000806149fc83615610565b915091508e6001600160a01b03167f5265bc4952da402633b3fc35f67ab4245493a0ab94dd8ab123667c8d45a4485c8f8f8f8f8f8f8f8f8b60016012805490500343423a60405180806020018e6001600160a01b031681526020018d81526020018c81526020018b81526020018a1515815260200189815260200188815260200187815260200186815260200185815260200184815260200183815260200182810382528f818151815260200191508051906020019060200280838360005b83811015614ad3578181015183820152602001614abb565b505050509050019e50505050505050505050505050505060405180910390a29e9d5050505050505050505050505050565b6000614b0e615b95565b604051806101c001604052808f6001600160a01b031681526020018e81526020018d6001600160a01b031681526020018c81526020018b81526020018a15158152602001896001600160a01b031681526020018881526020018781526020018681526020014381526020014281526020018515158152602001846001600160a01b03168152509050600080614ba2836157ae565b9150915082600001516001600160a01b03167f81ed0476a7e785a9e4728fffd679ea97176ca1ac85e1003462558bb5677da57b84602001518560400151866060015187608001518860a001518960c001518a60e001518b61010001518c61012001518c600160138054905003434260405180806020018e6001600160a01b031681526020018d81526020018c81526020018b151581526020018a6001600160a01b0316815260200189815260200188815260200187815260200186815260200185815260200184815260200183815260200182810382528f818151815260200191508051906020019060200280838360005b83811015614cac578181015183820152602001614c94565b505050509050019e50505050505050505050505050505060405180910390a29f9e505050505050505050505050505050565b600082820183811015613b0e576040805162461bcd60e51b815260206004820152601b60248201527a536166654d6174683a206164646974696f6e206f766572666c6f7760281b604482015290519081900360640190fd5b6009546001600160a01b031680614d4d5750611b17565b600080826001600160a01b031663534ef883866040518263ffffffff1660e01b815260040180826001600160a01b03168152602001915050604080518083038186803b158015614d9c57600080fd5b505afa158015614db0573d6000803e3d6000fd5b505050506040513d6040811015614dc657600080fd5b508051602090910151909250905081614de157505050611b17565b7f474c763ff84bf2c2039a6d9fea955ecd0f724030e3c365b91169c6a16fe751b78585600360009054906101000a90046001600160a01b03166001600160a01b031663318bc6896040518163ffffffff1660e01b815260040160206040518083038186803b158015614e5257600080fd5b505afa158015614e66573d6000803e3d6000fd5b505050506040513d6020811015614e7c57600080fd5b5051604080516001600160a01b03948516815260208101939093528281019190915260608201869052918416608082015290519081900360a00190a15050505050565b6060614f14826040518060400160405280602081526020017f5361666545524332303a206c6f772d6c6576656c2063616c6c206661696c6564815250856001600160a01b03166159579092919063ffffffff16565b80519091501561400057808060200190516020811015614f3357600080fd5b50516140005760405162461bcd60e51b815260040180806020018281038252602a815260200180615f81602a913960400191505060405180910390fd5b60035460408051634998b10960e11b81526001600160a01b03878116600483015286811660248301528481166044830152915160009384931691639331621291606480830192602092919082900301818787803b158015614fd057600080fd5b505af1158015614fe4573d6000803e3d6000fd5b505050506040513d6020811015614ffa57600080fd5b505190508381101561503d5760405162461bcd60e51b815260040180806020018281038252602b815260200180615dd9602b913960400191505060405180910390fd5b95945050505050565b600081848411156150d55760405162461bcd60e51b81526004018080602001828103825283818151815260200191508051906020019080838360005b8381101561509a578181015183820152602001615082565b50505050905090810190601f1680156150c75780820380516001836020036101000a031916815260200191505b509250505060405180910390fd5b505050900390565b3b151590565b6000826150f25750600061447b565b816150ff5750600161447b565b60008660018851038151811061511157fe5b602090810291909101015160035460408051634a3f088d60e01b81526001600160a01b038c81166004830152808516602483015289811660448301528815156064830152915193945091169160009182918491634a3f088d91608480830192610100929190829003018186803b15801561518a57600080fd5b505afa15801561519e573d6000803e3d6000fd5b505050506040513d6101008110156151b557600080fd5b5080516020909101519092509050816151d557600094505050505061447b565b60006151e18388614cde565b90506000846001600160a01b0316630a48d5a9878d6040518363ffffffff1660e01b815260040180836001600160a01b031681526020018281526020019250505060206040518083038186803b15801561523a57600080fd5b505afa15801561524e573d6000803e3d6000fd5b505050506040513d602081101561526457600080fd5b5051905060006152748483614cde565b90506000615288856143e8886127106152c0565b905060006152a9836143e860085461271001886152c090919063ffffffff16565b919091109f9e505050505050505050505050505050565b6000826152cf57506000612905565b828202828482816152dc57fe5b0414613b0e5760405162461bcd60e51b8152600401808060200182810382526021815260200180615ee36021913960400191505060405180910390fd5b6000613b0e83836040518060400160405280601a815260200179536166654d6174683a206469766973696f6e206279207a65726f60301b81525061596e565b8061536257614000565b8115615455576001600160a01b0383166000908152600b6020526040902054801580159061541357506003546040805163783a2b6760e11b81526001600160a01b0387811660048301529151849361541193879391169163f07456ce91602480820192602092909190829003018186803b1580156153df57600080fd5b505afa1580156153f3573d6000803e3d6000fd5b505050506040513d602081101561540957600080fd5b505190614cde565b115b1561544f5760405162461bcd60e51b815260040180806020018281038252602e815260200180615d6b602e913960400191505060405180910390fd5b50614000565b6001600160a01b0383166000908152600c602052604090205480158015906154ce57506003546040805163114f1b5560e31b81526001600160a01b038781166004830152915184936154cc938793911691638a78daa891602480820192602092909190829003018186803b1580156153df57600080fd5b115b156142535760405162461bcd60e51b815260040180806020018281038252602f815260200180615eb4602f913960400191505060405180910390fd5b6009546001600160a01b0316806155215750611b17565b600080826001600160a01b031663534ef883866040518263ffffffff1660e01b815260040180826001600160a01b03168152602001915050604080518083038186803b15801561557057600080fd5b505afa158015615584573d6000803e3d6000fd5b505050506040513d604081101561559a57600080fd5b5080516020918201516003546040805163318bc68960e01b815290519396509194507fc2414023ce7002ee98557d1e7be21e5559073336f2217ee5f9b2e50fd85f71ee93899389936001600160a01b039093169263318bc689926004808301939192829003018186803b158015614e5257600080fd5b80516001600160a01b03811660009081526018602052604081205490918291829061563c906001614cde565b6001600160a01b038316600090815260186020526040812082905590915061566483836128c5565b6000818152601960209081526040909120885181546001600160a01b0319166001600160a01b03909116178155888201518051939450899391926156b092600185019290910190615cd1565b5060408201516002820180546001600160a01b039283166001600160a01b0319909116179055606083015160038301556080830151600483015560a0830151600583015560c083015160068301805491151560ff1992831617905560e084015160078401556101008085015160088501556101208501516009850155610140850151600a850155610160850151600b90940180546101809096015190931602610100600160a81b0319931515949091169390931791909116919091179055601280546001810182556000919091527fbb8a6a4669ba250d26cd7a459eca9d215f8307e33aebe50379bc5a3617ec344401819055909350915050915091565b80516001600160a01b0381166000908152601a60205260408120549091829182906157da906001614cde565b6001600160a01b0383166000908152601a6020526040812082905590915061580283836128c5565b6000818152601b60209081526040909120885181546001600160a01b0319166001600160a01b039091161781558882015180519394508993919261584e92600185019290910190615cd1565b5060408201516002820180546001600160a01b039283166001600160a01b0319909116179055606083015160038301556080830151600483015560a083015160058301805460c08601518416610100908102610100600160a81b031994151560ff199384161785161790925560e0860151600686015581860151600786015561012086015160088601556101408601516009860155610160860151600a860155610180860151600b90950180546101a090970151909416909102931515941693909317909216179055601380546001810182556000919091527f66de8ffda797e3de9c05e8fc57b3bf0ec28a930d40b0d285d93c06501cf6a09001819055909350915050915091565b606061596684846000856159d3565b949350505050565b600081836159bd5760405162461bcd60e51b815260206004820181815283516024840152835190928392604490910191908501908083836000831561509a578181015183820152602001615082565b5060008385816159c957fe5b0495945050505050565b606082471015615a145760405162461bcd60e51b8152600401808060200182810382526026815260200180615e3e6026913960400191505060405180910390fd5b615a1d856150dd565b615a6e576040805162461bcd60e51b815260206004820152601d60248201527f416464726573733a2063616c6c20746f206e6f6e2d636f6e7472616374000000604482015290519081900360640190fd5b60006060866001600160a01b031685876040518082805190602001908083835b60208310615aad5780518252601f199092019160209182019101615a8e565b6001836020036101000a03801982511681845116808217855250505050505090500191505060006040518083038185875af1925050503d8060008114615b0f576040519150601f19603f3d011682016040523d82523d6000602084013e615b14565b606091505b5091509150615b24828286615b2f565b979650505050505050565b60608315615b3e575081613b0e565b825115615b4e5782518084602001fd5b60405162461bcd60e51b815260206004820181815284516024840152845185939192839260440191908501908083836000831561509a578181015183820152602001615082565b604051806101c0016040528060006001600160a01b031681526020016060815260200160006001600160a01b03168152602001600081526020016000815260200160001515815260200160006001600160a01b03168152602001600081526020016000815260200160008152602001600081526020016000815260200160001515815260200160006001600160a01b031681525090565b508054600082559060005260206000209081019061496a9190615d36565b604051806101a0016040528060006001600160a01b031681526020016060815260200160006001600160a01b031681526020016000815260200160008152602001600081526020016000151581526020016000815260200160008152602001600081526020016000815260200160001515815260200160006001600160a01b031681525090565b828054828255906000526020600020908101928215615d26579160200282015b82811115615d2657825182546001600160a01b0319166001600160a01b03909116178255602090920191600190910190615cf1565b50615d32929150615d4b565b5090565b5b80821115615d325760008155600101615d37565b5b80821115615d325780546001600160a01b0319168155600101615d4c56fe42617365506f736974696f6e4d616e616765723a206d617820676c6f62616c206c6f6e67732065786365656465645265656e7472616e637947756172643a207265656e7472616e742063616c6c00476f7665726e61626c653a20666f7262696464656e000000000000000000000042617365506f736974696f6e4d616e616765723a20696e73756666696369656e7420616d6f756e744f7574416464726573733a20756e61626c6520746f2073656e642076616c75652c20726563697069656e74206d61792068617665207265766572746564416464726573733a20696e73756666696369656e742062616c616e636520666f722063616c6c42617365506f736974696f6e4d616e616765723a206d61726b207072696365206c6f776572207468616e206c696d697442617365506f736974696f6e4d616e616765723a20666f7262696464656e000042617365506f736974696f6e4d616e616765723a206d617820676c6f62616c2073686f727473206578636565646564536166654d6174683a206d756c7469706c69636174696f6e206f766572666c6f7742617365506f736974696f6e4d616e616765723a206d61726b20707269636520686967686572207468616e206c696d697442617365506f736974696f6e4d616e616765723a20696e76616c6964205f706174682e6c656e67746842617365506f736974696f6e4d616e616765723a20696e76616c69642073656e6465725361666545524332303a204552433230206f7065726174696f6e20646964206e6f742073756363656564a164736f6c634300060c000a",
  "devdoc": {
    "kind": "dev",
    "methods": {},
    "version": 1
  },
  "userdoc": {
    "kind": "user",
    "methods": {},
    "version": 1
  },
  "storageLayout": {
    "storage": [
      {
        "astId": 23515,
        "contract": "contracts/core/PositionRouter.sol:PositionRouter",
        "label": "_status",
        "offset": 0,
        "slot": "0",
        "type": "t_uint256"
      },
      {
        "astId": 3,
        "contract": "contracts/core/PositionRouter.sol:PositionRouter",
        "label": "gov",
        "offset": 0,
        "slot": "1",
        "type": "t_address"
      },
      {
        "astId": 1548,
        "contract": "contracts/core/PositionRouter.sol:PositionRouter",
        "label": "admin",
        "offset": 0,
        "slot": "2",
        "type": "t_address"
      },
      {
        "astId": 1550,
        "contract": "contracts/core/PositionRouter.sol:PositionRouter",
        "label": "vault",
        "offset": 0,
        "slot": "3",
        "type": "t_address"
      },
      {
        "astId": 1552,
        "contract": "contracts/core/PositionRouter.sol:PositionRouter",
        "label": "shortsTracker",
        "offset": 0,
        "slot": "4",
        "type": "t_address"
      },
      {
        "astId": 1554,
        "contract": "contracts/core/PositionRouter.sol:PositionRouter",
        "label": "router",
        "offset": 0,
        "slot": "5",
        "type": "t_address"
      },
      {
        "astId": 1556,
        "contract": "contracts/core/PositionRouter.sol:PositionRouter",
        "label": "weth",
        "offset": 0,
        "slot": "6",
        "type": "t_address"
      },
      {
        "astId": 1558,
        "contract": "contracts/core/PositionRouter.sol:PositionRouter",
        "label": "depositFee",
        "offset": 0,
        "slot": "7",
        "type": "t_uint256"
      },
      {
        "astId": 1561,
        "contract": "contracts/core/PositionRouter.sol:PositionRouter",
        "label": "increasePositionBufferBps",
        "offset": 0,
        "slot": "8",
        "type": "t_uint256"
      },
      {
        "astId": 1563,
        "contract": "contracts/core/PositionRouter.sol:PositionRouter",
        "label": "referralStorage",
        "offset": 0,
        "slot": "9",
        "type": "t_address"
      },
      {
        "astId": 1567,
        "contract": "contracts/core/PositionRouter.sol:PositionRouter",
        "label": "feeReserves",
        "offset": 0,
        "slot": "10",
        "type": "t_mapping(t_address,t_uint256)"
      },
      {
        "astId": 1572,
        "contract": "contracts/core/PositionRouter.sol:PositionRouter",
        "label": "maxGlobalLongSizes",
        "offset": 0,
        "slot": "11",
        "type": "t_mapping(t_address,t_uint256)"
      },
      {
        "astId": 1577,
        "contract": "contracts/core/PositionRouter.sol:PositionRouter",
        "label": "maxGlobalShortSizes",
        "offset": 0,
        "slot": "12",
        "type": "t_mapping(t_address,t_uint256)"
      },
      {
        "astId": 6526,
        "contract": "contracts/core/PositionRouter.sol:PositionRouter",
        "label": "minExecutionFee",
        "offset": 0,
        "slot": "13",
        "type": "t_uint256"
      },
      {
        "astId": 6528,
        "contract": "contracts/core/PositionRouter.sol:PositionRouter",
        "label": "minBlockDelayKeeper",
        "offset": 0,
        "slot": "14",
        "type": "t_uint256"
      },
      {
        "astId": 6530,
        "contract": "contracts/core/PositionRouter.sol:PositionRouter",
        "label": "minTimeDelayPublic",
        "offset": 0,
        "slot": "15",
        "type": "t_uint256"
      },
      {
        "astId": 6532,
        "contract": "contracts/core/PositionRouter.sol:PositionRouter",
        "label": "maxTimeDelay",
        "offset": 0,
        "slot": "16",
        "type": "t_uint256"
      },
      {
        "astId": 6535,
        "contract": "contracts/core/PositionRouter.sol:PositionRouter",
        "label": "isLeverageEnabled",
        "offset": 0,
        "slot": "17",
        "type": "t_bool"
      },
      {
        "astId": 6538,
        "contract": "contracts/core/PositionRouter.sol:PositionRouter",
        "label": "increasePositionRequestKeys",
        "offset": 0,
        "slot": "18",
        "type": "t_array(t_bytes32)dyn_storage"
      },
      {
        "astId": 6541,
        "contract": "contracts/core/PositionRouter.sol:PositionRouter",
        "label": "decreasePositionRequestKeys",
        "offset": 0,
        "slot": "19",
        "type": "t_array(t_bytes32)dyn_storage"
      },
      {
        "astId": 6544,
        "contract": "contracts/core/PositionRouter.sol:PositionRouter",
        "label": "increasePositionRequestKeysStart",
        "offset": 0,
        "slot": "20",
        "type": "t_uint256"
      },
      {
        "astId": 6547,
        "contract": "contracts/core/PositionRouter.sol:PositionRouter",
        "label": "decreasePositionRequestKeysStart",
        "offset": 0,
        "slot": "21",
        "type": "t_uint256"
      },
      {
        "astId": 6549,
        "contract": "contracts/core/PositionRouter.sol:PositionRouter",
        "label": "callbackGasLimit",
        "offset": 0,
        "slot": "22",
        "type": "t_uint256"
      },
      {
        "astId": 6553,
        "contract": "contracts/core/PositionRouter.sol:PositionRouter",
        "label": "isPositionKeeper",
        "offset": 0,
        "slot": "23",
        "type": "t_mapping(t_address,t_bool)"
      },
      {
        "astId": 6557,
        "contract": "contracts/core/PositionRouter.sol:PositionRouter",
        "label": "increasePositionsIndex",
        "offset": 0,
        "slot": "24",
        "type": "t_mapping(t_address,t_uint256)"
      },
      {
        "astId": 6561,
        "contract": "contracts/core/PositionRouter.sol:PositionRouter",
        "label": "increasePositionRequests",
        "offset": 0,
        "slot": "25",
        "type": "t_mapping(t_bytes32,t_struct(IncreasePositionRequest)6494_storage)"
      },
      {
        "astId": 6565,
        "contract": "contracts/core/PositionRouter.sol:PositionRouter",
        "label": "decreasePositionsIndex",
        "offset": 0,
        "slot": "26",
        "type": "t_mapping(t_address,t_uint256)"
      },
      {
        "astId": 6569,
        "contract": "contracts/core/PositionRouter.sol:PositionRouter",
        "label": "decreasePositionRequests",
        "offset": 0,
        "slot": "27",
        "type": "t_mapping(t_bytes32,t_struct(DecreasePositionRequest)6524_storage)"
      }
    ],
    "types": {
      "t_address": {
        "encoding": "inplace",
        "label": "address",
        "numberOfBytes": "20"
      },
      "t_array(t_address)dyn_storage": {
        "base": "t_address",
        "encoding": "dynamic_array",
        "label": "address[]",
        "numberOfBytes": "32"
      },
      "t_array(t_bytes32)dyn_storage": {
        "base": "t_bytes32",
        "encoding": "dynamic_array",
        "label": "bytes32[]",
        "numberOfBytes": "32"
      },
      "t_bool": {
        "encoding": "inplace",
        "label": "bool",
        "numberOfBytes": "1"
      },
      "t_bytes32": {
        "encoding": "inplace",
        "label": "bytes32",
        "numberOfBytes": "32"
      },
      "t_mapping(t_address,t_bool)": {
        "encoding": "mapping",
        "key": "t_address",
        "label": "mapping(address => bool)",
        "numberOfBytes": "32",
        "value": "t_bool"
      },
      "t_mapping(t_address,t_uint256)": {
        "encoding": "mapping",
        "key": "t_address",
        "label": "mapping(address => uint256)",
        "numberOfBytes": "32",
        "value": "t_uint256"
      },
      "t_mapping(t_bytes32,t_struct(DecreasePositionRequest)6524_storage)": {
        "encoding": "mapping",
        "key": "t_bytes32",
        "label": "mapping(bytes32 => struct PositionRouter.DecreasePositionRequest)",
        "numberOfBytes": "32",
        "value": "t_struct(DecreasePositionRequest)6524_storage"
      },
      "t_mapping(t_bytes32,t_struct(IncreasePositionRequest)6494_storage)": {
        "encoding": "mapping",
        "key": "t_bytes32",
        "label": "mapping(bytes32 => struct PositionRouter.IncreasePositionRequest)",
        "numberOfBytes": "32",
        "value": "t_struct(IncreasePositionRequest)6494_storage"
      },
      "t_struct(DecreasePositionRequest)6524_storage": {
        "encoding": "inplace",
        "label": "struct PositionRouter.DecreasePositionRequest",
        "members": [
          {
            "astId": 6496,
            "contract": "contracts/core/PositionRouter.sol:PositionRouter",
            "label": "account",
            "offset": 0,
            "slot": "0",
            "type": "t_address"
          },
          {
            "astId": 6499,
            "contract": "contracts/core/PositionRouter.sol:PositionRouter",
            "label": "path",
            "offset": 0,
            "slot": "1",
            "type": "t_array(t_address)dyn_storage"
          },
          {
            "astId": 6501,
            "contract": "contracts/core/PositionRouter.sol:PositionRouter",
            "label": "indexToken",
            "offset": 0,
            "slot": "2",
            "type": "t_address"
          },
          {
            "astId": 6503,
            "contract": "contracts/core/PositionRouter.sol:PositionRouter",
            "label": "collateralDelta",
            "offset": 0,
            "slot": "3",
            "type": "t_uint256"
          },
          {
            "astId": 6505,
            "contract": "contracts/core/PositionRouter.sol:PositionRouter",
            "label": "sizeDelta",
            "offset": 0,
            "slot": "4",
            "type": "t_uint256"
          },
          {
            "astId": 6507,
            "contract": "contracts/core/PositionRouter.sol:PositionRouter",
            "label": "isLong",
            "offset": 0,
            "slot": "5",
            "type": "t_bool"
          },
          {
            "astId": 6509,
            "contract": "contracts/core/PositionRouter.sol:PositionRouter",
            "label": "receiver",
            "offset": 1,
            "slot": "5",
            "type": "t_address"
          },
          {
            "astId": 6511,
            "contract": "contracts/core/PositionRouter.sol:PositionRouter",
            "label": "acceptablePrice",
            "offset": 0,
            "slot": "6",
            "type": "t_uint256"
          },
          {
            "astId": 6513,
            "contract": "contracts/core/PositionRouter.sol:PositionRouter",
            "label": "minOut",
            "offset": 0,
            "slot": "7",
            "type": "t_uint256"
          },
          {
            "astId": 6515,
            "contract": "contracts/core/PositionRouter.sol:PositionRouter",
            "label": "executionFee",
            "offset": 0,
            "slot": "8",
            "type": "t_uint256"
          },
          {
            "astId": 6517,
            "contract": "contracts/core/PositionRouter.sol:PositionRouter",
            "label": "blockNumber",
            "offset": 0,
            "slot": "9",
            "type": "t_uint256"
          },
          {
            "astId": 6519,
            "contract": "contracts/core/PositionRouter.sol:PositionRouter",
            "label": "blockTime",
            "offset": 0,
            "slot": "10",
            "type": "t_uint256"
          },
          {
            "astId": 6521,
            "contract": "contracts/core/PositionRouter.sol:PositionRouter",
            "label": "withdrawETH",
            "offset": 0,
            "slot": "11",
            "type": "t_bool"
          },
          {
            "astId": 6523,
            "contract": "contracts/core/PositionRouter.sol:PositionRouter",
            "label": "callbackTarget",
            "offset": 1,
            "slot": "11",
            "type": "t_address"
          }
        ],
        "numberOfBytes": "384"
      },
      "t_struct(IncreasePositionRequest)6494_storage": {
        "encoding": "inplace",
        "label": "struct PositionRouter.IncreasePositionRequest",
        "members": [
          {
            "astId": 6468,
            "contract": "contracts/core/PositionRouter.sol:PositionRouter",
            "label": "account",
            "offset": 0,
            "slot": "0",
            "type": "t_address"
          },
          {
            "astId": 6471,
            "contract": "contracts/core/PositionRouter.sol:PositionRouter",
            "label": "path",
            "offset": 0,
            "slot": "1",
            "type": "t_array(t_address)dyn_storage"
          },
          {
            "astId": 6473,
            "contract": "contracts/core/PositionRouter.sol:PositionRouter",
            "label": "indexToken",
            "offset": 0,
            "slot": "2",
            "type": "t_address"
          },
          {
            "astId": 6475,
            "contract": "contracts/core/PositionRouter.sol:PositionRouter",
            "label": "amountIn",
            "offset": 0,
            "slot": "3",
            "type": "t_uint256"
          },
          {
            "astId": 6477,
            "contract": "contracts/core/PositionRouter.sol:PositionRouter",
            "label": "minOut",
            "offset": 0,
            "slot": "4",
            "type": "t_uint256"
          },
          {
            "astId": 6479,
            "contract": "contracts/core/PositionRouter.sol:PositionRouter",
            "label": "sizeDelta",
            "offset": 0,
            "slot": "5",
            "type": "t_uint256"
          },
          {
            "astId": 6481,
            "contract": "contracts/core/PositionRouter.sol:PositionRouter",
            "label": "isLong",
            "offset": 0,
            "slot": "6",
            "type": "t_bool"
          },
          {
            "astId": 6483,
            "contract": "contracts/core/PositionRouter.sol:PositionRouter",
            "label": "acceptablePrice",
            "offset": 0,
            "slot": "7",
            "type": "t_uint256"
          },
          {
            "astId": 6485,
            "contract": "contracts/core/PositionRouter.sol:PositionRouter",
            "label": "executionFee",
            "offset": 0,
            "slot": "8",
            "type": "t_uint256"
          },
          {
            "astId": 6487,
            "contract": "contracts/core/PositionRouter.sol:PositionRouter",
            "label": "blockNumber",
            "offset": 0,
            "slot": "9",
            "type": "t_uint256"
          },
          {
            "astId": 6489,
            "contract": "contracts/core/PositionRouter.sol:PositionRouter",
            "label": "blockTime",
            "offset": 0,
            "slot": "10",
            "type": "t_uint256"
          },
          {
            "astId": 6491,
            "contract": "contracts/core/PositionRouter.sol:PositionRouter",
            "label": "hasCollateralInETH",
            "offset": 0,
            "slot": "11",
            "type": "t_bool"
          },
          {
            "astId": 6493,
            "contract": "contracts/core/PositionRouter.sol:PositionRouter",
            "label": "callbackTarget",
            "offset": 1,
            "slot": "11",
            "type": "t_address"
          }
        ],
        "numberOfBytes": "384"
      },
      "t_uint256": {
        "encoding": "inplace",
        "label": "uint256",
        "numberOfBytes": "32"
      }
    }
  }
}