{
  "address": "0x63D4b8c0E8F52EF3B3a769Dd5Fb3B9c58A2aF068",
  "abi": [
    {
      "inputs": [
        {
          "internalType": "address",
          "name": "_vault",
          "type": "address"
        },
        {
          "internalType": "address",
          "name": "_usdg",
          "type": "address"
        },
        {
          "internalType": "address",
          "name": "_xlx",
          "type": "address"
        },
        {
          "internalType": "address",
          "name": "_shortsTracker",
          "type": "address"
        },
        {
          "internalType": "uint256",
          "name": "_cooldownDuration",
          "type": "uint256"
        }
      ],
      "stateMutability": "nonpayable",
      "type": "constructor"
    },
    {
      "anonymous": false,
      "inputs": [
        {
          "indexed": false,
          "internalType": "address",
          "name": "account",
          "type": "address"
        },
        {
          "indexed": false,
          "internalType": "address",
          "name": "token",
          "type": "address"
        },
        {
          "indexed": false,
          "internalType": "uint256",
          "name": "amount",
          "type": "uint256"
        },
        {
          "indexed": false,
          "internalType": "uint256",
          "name": "aumInUsdg",
          "type": "uint256"
        },
        {
          "indexed": false,
          "internalType": "uint256",
          "name": "xlxSupply",
          "type": "uint256"
        },
        {
          "indexed": false,
          "internalType": "uint256",
          "name": "usdgAmount",
          "type": "uint256"
        },
        {
          "indexed": false,
          "internalType": "uint256",
          "name": "mintAmount",
          "type": "uint256"
        }
      ],
      "name": "AddLiquidity",
      "type": "event"
    },
    {
      "anonymous": false,
      "inputs": [
        {
          "indexed": false,
          "internalType": "address",
          "name": "account",
          "type": "address"
        },
        {
          "indexed": false,
          "internalType": "address",
          "name": "token",
          "type": "address"
        },
        {
          "indexed": false,
          "internalType": "uint256",
          "name": "xlxAmount",
          "type": "uint256"
        },
        {
          "indexed": false,
          "internalType": "uint256",
          "name": "aumInUsdg",
          "type": "uint256"
        },
        {
          "indexed": false,
          "internalType": "uint256",
          "name": "xlxSupply",
          "type": "uint256"
        },
        {
          "indexed": false,
          "internalType": "uint256",
          "name": "usdgAmount",
          "type": "uint256"
        },
        {
          "indexed": false,
          "internalType": "uint256",
          "name": "amountOut",
          "type": "uint256"
        }
      ],
      "name": "RemoveLiquidity",
      "type": "event"
    },
    {
      "inputs": [],
      "name": "BASIS_POINTS_DIVISOR",
      "outputs": [
        {
          "internalType": "uint256",
          "name": "",
          "type": "uint256"
        }
      ],
      "stateMutability": "view",
      "type": "function"
    },
    {
      "inputs": [],
      "name": "MAX_COOLDOWN_DURATION",
      "outputs": [
        {
          "internalType": "uint256",
          "name": "",
          "type": "uint256"
        }
      ],
      "stateMutability": "view",
      "type": "function"
    },
    {
      "inputs": [],
      "name": "PRICE_PRECISION",
      "outputs": [
        {
          "internalType": "uint256",
          "name": "",
          "type": "uint256"
        }
      ],
      "stateMutability": "view",
      "type": "function"
    },
    {
      "inputs": [],
      "name": "USDG_DECIMALS",
      "outputs": [
        {
          "internalType": "uint256",
          "name": "",
          "type": "uint256"
        }
      ],
      "stateMutability": "view",
      "type": "function"
    },
    {
      "inputs": [],
      "name": "XLX_PRECISION",
      "outputs": [
        {
          "internalType": "uint256",
          "name": "",
          "type": "uint256"
        }
      ],
      "stateMutability": "view",
      "type": "function"
    },
    {
      "inputs": [
        {
          "internalType": "address",
          "name": "_token",
          "type": "address"
        },
        {
          "internalType": "uint256",
          "name": "_amount",
          "type": "uint256"
        },
        {
          "internalType": "uint256",
          "name": "_minUsdg",
          "type": "uint256"
        },
        {
          "internalType": "uint256",
          "name": "_minXlx",
          "type": "uint256"
        }
      ],
      "name": "addLiquidity",
      "outputs": [
        {
          "internalType": "uint256",
          "name": "",
          "type": "uint256"
        }
      ],
      "stateMutability": "nonpayable",
      "type": "function"
    },
    {
      "inputs": [
        {
          "internalType": "address",
          "name": "_fundingAccount",
          "type": "address"
        },
        {
          "internalType": "address",
          "name": "_account",
          "type": "address"
        },
        {
          "internalType": "address",
          "name": "_token",
          "type": "address"
        },
        {
          "internalType": "uint256",
          "name": "_amount",
          "type": "uint256"
        },
        {
          "internalType": "uint256",
          "name": "_minUsdg",
          "type": "uint256"
        },
        {
          "internalType": "uint256",
          "name": "_minXlx",
          "type": "uint256"
        }
      ],
      "name": "addLiquidityForAccount",
      "outputs": [
        {
          "internalType": "uint256",
          "name": "",
          "type": "uint256"
        }
      ],
      "stateMutability": "nonpayable",
      "type": "function"
    },
    {
      "inputs": [],
      "name": "aumAddition",
      "outputs": [
        {
          "internalType": "uint256",
          "name": "",
          "type": "uint256"
        }
      ],
      "stateMutability": "view",
      "type": "function"
    },
    {
      "inputs": [],
      "name": "aumDeduction",
      "outputs": [
        {
          "internalType": "uint256",
          "name": "",
          "type": "uint256"
        }
      ],
      "stateMutability": "view",
      "type": "function"
    },
    {
      "inputs": [],
      "name": "cooldownDuration",
      "outputs": [
        {
          "internalType": "uint256",
          "name": "",
          "type": "uint256"
        }
      ],
      "stateMutability": "view",
      "type": "function"
    },
    {
      "inputs": [
        {
          "internalType": "bool",
          "name": "maximise",
          "type": "bool"
        }
      ],
      "name": "getAum",
      "outputs": [
        {
          "internalType": "uint256",
          "name": "",
          "type": "uint256"
        }
      ],
      "stateMutability": "view",
      "type": "function"
    },
    {
      "inputs": [
        {
          "internalType": "bool",
          "name": "maximise",
          "type": "bool"
        }
      ],
      "name": "getAumInUsdg",
      "outputs": [
        {
          "internalType": "uint256",
          "name": "",
          "type": "uint256"
        }
      ],
      "stateMutability": "view",
      "type": "function"
    },
    {
      "inputs": [],
      "name": "getAums",
      "outputs": [
        {
          "internalType": "uint256[]",
          "name": "",
          "type": "uint256[]"
        }
      ],
      "stateMutability": "view",
      "type": "function"
    },
    {
      "inputs": [
        {
          "internalType": "address",
          "name": "_token",
          "type": "address"
        }
      ],
      "name": "getGlobalShortAveragePrice",
      "outputs": [
        {
          "internalType": "uint256",
          "name": "",
          "type": "uint256"
        }
      ],
      "stateMutability": "view",
      "type": "function"
    },
    {
      "inputs": [
        {
          "internalType": "address",
          "name": "_token",
          "type": "address"
        },
        {
          "internalType": "uint256",
          "name": "_price",
          "type": "uint256"
        },
        {
          "internalType": "uint256",
          "name": "_size",
          "type": "uint256"
        }
      ],
      "name": "getGlobalShortDelta",
      "outputs": [
        {
          "internalType": "uint256",
          "name": "",
          "type": "uint256"
        },
        {
          "internalType": "bool",
          "name": "",
          "type": "bool"
        }
      ],
      "stateMutability": "view",
      "type": "function"
    },
    {
      "inputs": [
        {
          "internalType": "bool",
          "name": "_maximise",
          "type": "bool"
        }
      ],
      "name": "getPrice",
      "outputs": [
        {
          "internalType": "uint256",
          "name": "",
          "type": "uint256"
        }
      ],
      "stateMutability": "view",
      "type": "function"
    },
    {
      "inputs": [],
      "name": "gov",
      "outputs": [
        {
          "internalType": "address",
          "name": "",
          "type": "address"
        }
      ],
      "stateMutability": "view",
      "type": "function"
    },
    {
      "inputs": [],
      "name": "inPrivateMode",
      "outputs": [
        {
          "internalType": "bool",
          "name": "",
          "type": "bool"
        }
      ],
      "stateMutability": "view",
      "type": "function"
    },
    {
      "inputs": [
        {
          "internalType": "address",
          "name": "",
          "type": "address"
        }
      ],
      "name": "isHandler",
      "outputs": [
        {
          "internalType": "bool",
          "name": "",
          "type": "bool"
        }
      ],
      "stateMutability": "view",
      "type": "function"
    },
    {
      "inputs": [
        {
          "internalType": "address",
          "name": "",
          "type": "address"
        }
      ],
      "name": "lastAddedAt",
      "outputs": [
        {
          "internalType": "uint256",
          "name": "",
          "type": "uint256"
        }
      ],
      "stateMutability": "view",
      "type": "function"
    },
    {
      "inputs": [
        {
          "internalType": "address",
          "name": "_tokenOut",
          "type": "address"
        },
        {
          "internalType": "uint256",
          "name": "_xlxAmount",
          "type": "uint256"
        },
        {
          "internalType": "uint256",
          "name": "_minOut",
          "type": "uint256"
        },
        {
          "internalType": "address",
          "name": "_receiver",
          "type": "address"
        }
      ],
      "name": "removeLiquidity",
      "outputs": [
        {
          "internalType": "uint256",
          "name": "",
          "type": "uint256"
        }
      ],
      "stateMutability": "nonpayable",
      "type": "function"
    },
    {
      "inputs": [
        {
          "internalType": "address",
          "name": "_account",
          "type": "address"
        },
        {
          "internalType": "address",
          "name": "_tokenOut",
          "type": "address"
        },
        {
          "internalType": "uint256",
          "name": "_xlxAmount",
          "type": "uint256"
        },
        {
          "internalType": "uint256",
          "name": "_minOut",
          "type": "uint256"
        },
        {
          "internalType": "address",
          "name": "_receiver",
          "type": "address"
        }
      ],
      "name": "removeLiquidityForAccount",
      "outputs": [
        {
          "internalType": "uint256",
          "name": "",
          "type": "uint256"
        }
      ],
      "stateMutability": "nonpayable",
      "type": "function"
    },
    {
      "inputs": [
        {
          "internalType": "uint256",
          "name": "_aumAddition",
          "type": "uint256"
        },
        {
          "internalType": "uint256",
          "name": "_aumDeduction",
          "type": "uint256"
        }
      ],
      "name": "setAumAdjustment",
      "outputs": [],
      "stateMutability": "nonpayable",
      "type": "function"
    },
    {
      "inputs": [
        {
          "internalType": "uint256",
          "name": "_cooldownDuration",
          "type": "uint256"
        }
      ],
      "name": "setCooldownDuration",
      "outputs": [],
      "stateMutability": "nonpayable",
      "type": "function"
    },
    {
      "inputs": [
        {
          "internalType": "address",
          "name": "_gov",
          "type": "address"
        }
      ],
      "name": "setGov",
      "outputs": [],
      "stateMutability": "nonpayable",
      "type": "function"
    },
    {
      "inputs": [
        {
          "internalType": "address",
          "name": "_handler",
          "type": "address"
        },
        {
          "internalType": "bool",
          "name": "_isActive",
          "type": "bool"
        }
      ],
      "name": "setHandler",
      "outputs": [],
      "stateMutability": "nonpayable",
      "type": "function"
    },
    {
      "inputs": [
        {
          "internalType": "bool",
          "name": "_inPrivateMode",
          "type": "bool"
        }
      ],
      "name": "setInPrivateMode",
      "outputs": [],
      "stateMutability": "nonpayable",
      "type": "function"
    },
    {
      "inputs": [
        {
          "internalType": "contract IShortsTracker",
          "name": "_shortsTracker",
          "type": "address"
        }
      ],
      "name": "setShortsTracker",
      "outputs": [],
      "stateMutability": "nonpayable",
      "type": "function"
    },
    {
      "inputs": [
        {
          "internalType": "uint256",
          "name": "_shortsTrackerAveragePriceWeight",
          "type": "uint256"
        }
      ],
      "name": "setShortsTrackerAveragePriceWeight",
      "outputs": [],
      "stateMutability": "nonpayable",
      "type": "function"
    },
    {
      "inputs": [],
      "name": "shortsTracker",
      "outputs": [
        {
          "internalType": "contract IShortsTracker",
          "name": "",
          "type": "address"
        }
      ],
      "stateMutability": "view",
      "type": "function"
    },
    {
      "inputs": [],
      "name": "shortsTrackerAveragePriceWeight",
      "outputs": [
        {
          "internalType": "uint256",
          "name": "",
          "type": "uint256"
        }
      ],
      "stateMutability": "view",
      "type": "function"
    },
    {
      "inputs": [],
      "name": "usdg",
      "outputs": [
        {
          "internalType": "address",
          "name": "",
          "type": "address"
        }
      ],
      "stateMutability": "view",
      "type": "function"
    },
    {
      "inputs": [],
      "name": "vault",
      "outputs": [
        {
          "internalType": "contract IVault",
          "name": "",
          "type": "address"
        }
      ],
      "stateMutability": "view",
      "type": "function"
    },
    {
      "inputs": [],
      "name": "xlx",
      "outputs": [
        {
          "internalType": "address",
          "name": "",
          "type": "address"
        }
      ],
      "stateMutability": "view",
      "type": "function"
    }
  ],
  "transactionHash": "0x8214d73934ebd6b0013d77495ab5f78068043d0991497ded9ef2114ce878fc72",
  "args": [
    "0xb84439AA177f3838d46F0AD4e0CB3cb5C2534fdb",
    "0xdacab13164E42E7299be11971389cee5A277cbAC",
    "0x818ea01d8d2F5dF177b39607132a58Ce7c4b24F0",
    "0x4e1548256ef5c1Fb420b4F8eEB32F94D1a581D38",
    "900"
  ],
  "numDeployments": 2,
  "solcInputHash": "a5c1ec6ed734a994a4a7c4ed9bed389b",
  "bytecode": "0x608060405234801561001057600080fd5b5060405161264a38038061264a833981810160405260a081101561003357600080fd5b5080516020820151604083015160608401516080909401516001600081905580546001600160a01b031990811633908117821617909155600280546001600160a01b039687169083161790556004805494861694821694909417909355600580549285169284169290921790915560038054939094169290911691909117909155600655612584806100c66000396000f3fe608060405234801561001057600080fd5b50600436106101a65760003560e01c80636a86da19116100ea5780636a86da191461036657806371d597ad14610385578063870d917c146103c95780638b770e11146103d15780638fed0b2c146103f75780639116c4ae1461043157806395082d2514610454578063966be0751461045c5780639cb7de4b14610479578063a1acd3d5146104a7578063b172bb0c146104f2578063cfad57a2146104fa578063d34ee09314610520578063e245b5af14610546578063ed0d1c0414610565578063f5b91b7b146105bd578063fbfa77cf146105c5576101a6565b806303391476146101ab578063070eacee146101dc578063126082cf146101f857806312d43a511461020057806317eb2a1514610224578063196b68cb1461026c5780631e9049cf146102745780631ece366a1461027c57806321ded378146102b457806335269315146102bc578063440d828a146102c457806346ea87af146102ea5780634f5f6b5e1461031057806363efdf381461032f57806364e6617f14610337578063657bc5d01461033f57806368a0a3e014610347575b600080fd5b6101ca600480360360208110156101c157600080fd5b503515156105cd565b60408051918252519081900360200190f35b6101e4610c4b565b604080519115158252519081900360200190f35b6101ca610c54565b610208610c5a565b604080516001600160a01b039092168252519081900360200190f35b6101ca600480360360c081101561023a57600080fd5b506001600160a01b03813581169160208101358216916040820135169060608101359060808101359060a00135610c69565b6101ca610cdc565b6101ca610ce2565b6101ca6004803603608081101561029257600080fd5b506001600160a01b038135169060208101359060408101359060600135610ce9565b6101ca610daa565b6101ca610db6565b6101ca600480360360208110156102da57600080fd5b50356001600160a01b0316610dbc565b6101e46004803603602081101561030057600080fd5b50356001600160a01b03166110cd565b61032d6004803603602081101561032657600080fd5b50356110e2565b005b61020861118a565b6101ca611199565b61020861119f565b6101ca6004803603602081101561035d57600080fd5b503515156111ae565b61032d6004803603602081101561037c57600080fd5b503515156111e5565b6101ca600480360360a081101561039b57600080fd5b506001600160a01b038135811691602081013582169160408201359160608101359160809091013516611245565b6101ca6112b6565b6101ca600480360360208110156103e757600080fd5b50356001600160a01b03166112bb565b6101ca6004803603608081101561040d57600080fd5b506001600160a01b03813581169160208101359160408201359160600135166112cd565b61032d6004803603604081101561044757600080fd5b508035906020013561137f565b6101ca6113d7565b61032d6004803603602081101561047257600080fd5b50356113e7565b61032d6004803603604081101561048f57600080fd5b506001600160a01b038135169060200135151561147b565b6104d9600480360360608110156104bd57600080fd5b506001600160a01b0381351690602081013590604001356114f3565b6040805192835290151560208301528051918290030190f35b6101ca611547565b61032d6004803603602081101561051057600080fd5b50356001600160a01b031661154d565b61032d6004803603602081101561053657600080fd5b50356001600160a01b03166115bc565b6101ca6004803603602081101561055c57600080fd5b5035151561162b565b61056d6116d5565b60408051602080825283518183015283519192839290830191858101910280838360005b838110156105a9578181015183820152602001610591565b505050509050019250505060405180910390f35b610208611743565b610208611752565b600080600260009054906101000a90046001600160a01b03166001600160a01b0316630842b0766040518163ffffffff1660e01b815260040160206040518083038186803b15801561061e57600080fd5b505afa158015610632573d6000803e3d6000fd5b505050506040513d602081101561064857600080fd5b5051600854600254919250906000906001600160a01b0316815b84811015610c045760025460408051630e468baf60e41b81526004810184905290516000926001600160a01b03169163e468baf0916024808301926020929190829003018186803b1580156106b657600080fd5b505afa1580156106ca573d6000803e3d6000fd5b505050506040513d60208110156106e057600080fd5b505160025460408051630daf9c2160e41b81526001600160a01b0380851660048301529151939450600093919092169163daf9c210916024808301926020929190829003018186803b15801561073557600080fd5b505afa158015610749573d6000803e3d6000fd5b505050506040513d602081101561075f57600080fd5b505190508061076f575050610bfc565b6000896107f457846001600160a01b03166381a612d6846040518263ffffffff1660e01b815260040180826001600160a01b0316815260200191505060206040518083038186803b1580156107c357600080fd5b505afa1580156107d7573d6000803e3d6000fd5b505050506040513d60208110156107ed57600080fd5b505161086e565b846001600160a01b031663e124e6d2846040518263ffffffff1660e01b815260040180826001600160a01b0316815260200191505060206040518083038186803b15801561084157600080fd5b505afa158015610855573d6000803e3d6000fd5b505050506040513d602081101561086b57600080fd5b50515b90506000856001600160a01b03166352f55eed856040518263ffffffff1660e01b815260040180826001600160a01b0316815260200191505060206040518083038186803b1580156108bf57600080fd5b505afa1580156108d3573d6000803e3d6000fd5b505050506040513d60208110156108e957600080fd5b5051604080516323b95ceb60e21b81526001600160a01b038781166004830152915192935060009291891691638ee573ac91602480820192602092909190829003018186803b15801561093b57600080fd5b505afa15801561094f573d6000803e3d6000fd5b505050506040513d602081101561096557600080fd5b5051604080516342b60b0360e01b81526001600160a01b0388811660048301529151929350908916916342b60b0391602480820192602092909190829003018186803b1580156109b457600080fd5b505afa1580156109c8573d6000803e3d6000fd5b505050506040513d60208110156109de57600080fd5b505115610a0e57610a07610a00600a83900a6109fa8587611761565b906117c3565b8a90611802565b9850610bf6565b6000876001600160a01b0316638a78daa8876040518263ffffffff1660e01b815260040180826001600160a01b0316815260200191505060206040518083038186803b158015610a5d57600080fd5b505afa158015610a71573d6000803e3d6000fd5b505050506040513d6020811015610a8757600080fd5b505190508015610ac957600080610a9f8887856114f3565b9150915080610ab957610ab28c83611802565b9b50610ac6565b610ac38b83611802565b9a505b50505b610b4c886001600160a01b031663f07456ce886040518263ffffffff1660e01b815260040180826001600160a01b0316815260200191505060206040518083038186803b158015610b1957600080fd5b505afa158015610b2d573d6000803e3d6000fd5b505050506040513d6020811015610b4357600080fd5b50518b90611802565b99506000886001600160a01b031663c3c7b9e9886040518263ffffffff1660e01b815260040180826001600160a01b0316815260200191505060206040518083038186803b158015610b9d57600080fd5b505afa158015610bb1573d6000803e3d6000fd5b505050506040513d6020811015610bc757600080fd5b50519050610bf1610bea600a85900a6109fa88610be4898761185a565b90611761565b8c90611802565b9a5050505b50505050505b600101610662565b50828211610c1b57610c16838361185a565b610c1e565b60005b92508260095411610c3c57600954610c3790849061185a565b610c3f565b60005b9450505050505b919050565b600a5460ff1681565b61271081565b6001546001600160a01b031681565b600060026000541415610cb1576040805162461bcd60e51b815260206004820152601f6024820152600080516020612481833981519152604482015290519081900360640190fd5b6002600055610cbe61189c565b610ccc8787878787876118fa565b6001600055979650505050505050565b60085481565b6202a30081565b600060026000541415610d31576040805162461bcd60e51b815260206004820152601f6024820152600080516020612481833981519152604482015290519081900360640190fd5b6002600055600a5460ff1615610d8e576040805162461bcd60e51b815260206004820152601e60248201527f586c784d616e616765723a20616374696f6e206e6f7420656e61626c65640000604482015290519081900360640190fd5b610d9c3333878787876118fa565b600160005595945050505050565b670de0b6b3a764000081565b60065481565b6003546000906001600160a01b0316801580610e3a5750806001600160a01b0316639a11178f6040518163ffffffff1660e01b815260040160206040518083038186803b158015610e0c57600080fd5b505afa158015610e20573d6000803e3d6000fd5b505050506040513d6020811015610e3657600080fd5b5051155b15610ec15760025460408051636274980360e01b81526001600160a01b038681166004830152915191909216916362749803916024808301926020929190829003018186803b158015610e8c57600080fd5b505afa158015610ea0573d6000803e3d6000fd5b505050506040513d6020811015610eb657600080fd5b50519150610c469050565b600b5480610f4c5760025460408051636274980360e01b81526001600160a01b038781166004830152915191909216916362749803916024808301926020929190829003018186803b158015610f1657600080fd5b505afa158015610f2a573d6000803e3d6000fd5b505050506040513d6020811015610f4057600080fd5b50519250610c46915050565b612710811415610fa357816001600160a01b03166362749803856040518263ffffffff1660e01b815260040180826001600160a01b0316815260200191505060206040518083038186803b158015610f1657600080fd5b60025460408051636274980360e01b81526001600160a01b03878116600483015291516000939290921691636274980391602480820192602092909190829003018186803b158015610ff457600080fd5b505afa158015611008573d6000803e3d6000fd5b505050506040513d602081101561101e57600080fd5b505160408051636274980360e01b81526001600160a01b038881166004830152915192935060009291861691636274980391602480820192602092909190829003018186803b15801561107057600080fd5b505afa158015611084573d6000803e3d6000fd5b505050506040513d602081101561109a57600080fd5b50519050610c3f6127106109fa6110b18487611761565b6110c76110c06127108961185a565b8790611761565b90611802565b600c6020526000908152604090205460ff1681565b6001546001600160a01b0316331461112f576040805162461bcd60e51b815260206004820152601560248201526000805160206124a1833981519152604482015290519081900360640190fd5b612710600b541115611185576040805162461bcd60e51b815260206004820152601a602482015279161b1e13585b9859d95c8e881a5b9d985b1a59081dd95a59da1d60321b604482015290519081900360640190fd5b600b55565b6005546001600160a01b031681565b600b5481565b6003546001600160a01b031681565b6000806111ba836105cd565b90506111de68327cb2734119d3b7a9601e1b6109fa83670de0b6b3a7640000611761565b9392505050565b6001546001600160a01b03163314611232576040805162461bcd60e51b815260206004820152601560248201526000805160206124a1833981519152604482015290519081900360640190fd5b600a805460ff1916911515919091179055565b60006002600054141561128d576040805162461bcd60e51b815260206004820152601f6024820152600080516020612481833981519152604482015290519081900360640190fd5b600260005561129a61189c565b6112a78686868686611c13565b60016000559695505050505050565b601281565b60076020526000908152604090205481565b600060026000541415611315576040805162461bcd60e51b815260206004820152601f6024820152600080516020612481833981519152604482015290519081900360640190fd5b6002600055600a5460ff1615611372576040805162461bcd60e51b815260206004820152601e60248201527f586c784d616e616765723a20616374696f6e206e6f7420656e61626c65640000604482015290519081900360640190fd5b610d9c3386868686611c13565b6001546001600160a01b031633146113cc576040805162461bcd60e51b815260206004820152601560248201526000805160206124a1833981519152604482015290519081900360640190fd5b600891909155600955565b68327cb2734119d3b7a9601e1b81565b6001546001600160a01b03163314611434576040805162461bcd60e51b815260206004820152601560248201526000805160206124a1833981519152604482015290519081900360640190fd5b6202a3008111156114765760405162461bcd60e51b81526004018080602001828103825260258152602001806124c16025913960400191505060405180910390fd5b600655565b6001546001600160a01b031633146114c8576040805162461bcd60e51b815260206004820152601560248201526000805160206124a1833981519152604482015290519081900360640190fd5b6001600160a01b03919091166000908152600c60205260409020805460ff1916911515919091179055565b600080600061150186610dbc565b9050600085821161151b57611516868361185a565b611525565b611525828761185a565b90506000611537836109fa8885611761565b9450505084109050935093915050565b60095481565b6001546001600160a01b0316331461159a576040805162461bcd60e51b815260206004820152601560248201526000805160206124a1833981519152604482015290519081900360640190fd5b600180546001600160a01b0319166001600160a01b0392909216919091179055565b6001546001600160a01b03163314611609576040805162461bcd60e51b815260206004820152601560248201526000805160206124a1833981519152604482015290519081900360640190fd5b600380546001600160a01b0319166001600160a01b0392909216919091179055565b600080611637836105cd565b90506000600560009054906101000a90046001600160a01b03166001600160a01b03166318160ddd6040518163ffffffff1660e01b815260040160206040518083038186803b15801561168957600080fd5b505afa15801561169d573d6000803e3d6000fd5b505050506040513d60208110156116b357600080fd5b505190506116cd816109fa84670de0b6b3a7640000611761565b949350505050565b60408051600280825260608083018452928392919060208301908036833701905050905061170360016105cd565b8160008151811061171057fe5b60200260200101818152505061172660006105cd565b8160018151811061173357fe5b6020908102919091010152905090565b6004546001600160a01b031681565b6002546001600160a01b031681565b600082611770575060006117bd565b8282028284828161177d57fe5b04146117ba5760405162461bcd60e51b81526004018080602001828103825260218152602001806125096021913960400191505060405180910390fd5b90505b92915050565b60006117ba83836040518060400160405280601a815260200179536166654d6174683a206469766973696f6e206279207a65726f60301b8152506120b0565b6000828201838110156117ba576040805162461bcd60e51b815260206004820152601b60248201527a536166654d6174683a206164646974696f6e206f766572666c6f7760281b604482015290519081900360640190fd5b60006117ba83836040518060400160405280601e81526020017f536166654d6174683a207375627472616374696f6e206f766572666c6f770000815250612152565b336000908152600c602052604090205460ff166118f8576040805162461bcd60e51b81526020600482015260156024820152742c363c26b0b730b3b2b91d103337b93134b23232b760591b604482015290519081900360640190fd5b565b600080841161194e576040805162461bcd60e51b815260206004820152601b60248201527a161b1e13585b9859d95c8e881a5b9d985b1a590817d85b5bdd5b9d602a1b604482015290519081900360640190fd5b600061195a60016111ae565b90506000600560009054906101000a90046001600160a01b03166001600160a01b03166318160ddd6040518163ffffffff1660e01b815260040160206040518083038186803b1580156119ac57600080fd5b505afa1580156119c0573d6000803e3d6000fd5b505050506040513d60208110156119d657600080fd5b50516002549091506119f7906001600160a01b03898116918c9116896121ac565b6002546040805163817bb85760e01b81526001600160a01b038a811660048301523060248301529151600093929092169163817bb8579160448082019260209290919082900301818787803b158015611a4f57600080fd5b505af1158015611a63573d6000803e3d6000fd5b505050506040513d6020811015611a7957600080fd5b5051905085811015611abc5760405162461bcd60e51b815260040180806020018281038252602481526020018061252a6024913960400191505060405180910390fd5b60008315611ad757611ad2846109fa8486611761565b611ad9565b815b905085811015611b1a5760405162461bcd60e51b81526004018080602001828103825260238152602001806124e66023913960400191505060405180910390fd5b600554604080516340c10f1960e01b81526001600160a01b038d8116600483015260248201859052915191909216916340c10f1991604480830192600092919082900301818387803b158015611b6f57600080fd5b505af1158015611b83573d6000803e3d6000fd5b5050506001600160a01b03808c166000818152600760209081526040918290204290558151928352928d16928201929092528082018b9052606081018790526080810186905260a0810185905260c0810184905290517f38dc38b96482be64113daffd8d464ebda93e856b70ccfc605e69ccf892ab981e92509081900360e00190a19a9950505050505050505050565b6000808411611c69576040805162461bcd60e51b815260206004820152601e60248201527f586c784d616e616765723a20696e76616c6964205f786c78416d6f756e740000604482015290519081900360640190fd5b6006546001600160a01b0387166000908152600760205260409020544291611c919190611802565b1115611cce5760405162461bcd60e51b815260040180806020018281038252602c815260200180612455602c913960400191505060405180910390fd5b6000611cda60006111ae565b90506000600560009054906101000a90046001600160a01b03166001600160a01b03166318160ddd6040518163ffffffff1660e01b815260040160206040518083038186803b158015611d2c57600080fd5b505afa158015611d40573d6000803e3d6000fd5b505050506040513d6020811015611d5657600080fd5b505190506000611d6a826109fa8986611761565b60048054604080516370a0823160e01b81523093810193909352519293506000926001600160a01b03909116916370a08231916024808301926020929190829003018186803b158015611dbc57600080fd5b505afa158015611dd0573d6000803e3d6000fd5b505050506040513d6020811015611de657600080fd5b5051905080821115611e6d576004546001600160a01b03166340c10f1930611e0e858561185a565b6040518363ffffffff1660e01b815260040180836001600160a01b0316815260200182815260200192505050600060405180830381600087803b158015611e5457600080fd5b505af1158015611e68573d6000803e3d6000fd5b505050505b60055460408051632770a7eb60e21b81526001600160a01b038d81166004830152602482018c905291519190921691639dc29fac91604480830192600092919082900301818387803b158015611ec257600080fd5b505af1158015611ed6573d6000803e3d6000fd5b5050600480546002546040805163a9059cbb60e01b81526001600160a01b039283169481019490945260248401889052519116935063a9059cbb925060448083019260209291908290030181600087803b158015611f3357600080fd5b505af1158015611f47573d6000803e3d6000fd5b505050506040513d6020811015611f5d57600080fd5b505060025460408051630711e61960e41b81526001600160a01b038c8116600483015289811660248301529151600093929092169163711e61909160448082019260209290919082900301818787803b158015611fb957600080fd5b505af1158015611fcd573d6000803e3d6000fd5b505050506040513d6020811015611fe357600080fd5b505190508781101561203c576040805162461bcd60e51b815260206004820152601f60248201527f586c784d616e616765723a20696e73756666696369656e74206f757470757400604482015290519081900360640190fd5b604080516001600160a01b03808e1682528c1660208201528082018b9052606081018790526080810186905260a0810185905260c0810183905290517f87b9679bb9a4944bafa98c267e7cd4a00ab29fed48afdefae25f0fca5da279409181900360e00190a19a9950505050505050505050565b6000818361213c5760405162461bcd60e51b81526004018080602001828103825283818151815260200191508051906020019080838360005b838110156121015781810151838201526020016120e9565b50505050905090810190601f16801561212e5780820380516001836020036101000a031916815260200191505b509250505060405180910390fd5b50600083858161214857fe5b0495945050505050565b600081848411156121a45760405162461bcd60e51b81526020600482018181528351602484015283519092839260449091019190850190808383600083156121015781810151838201526020016120e9565b505050900390565b604080516001600160a01b0380861660248301528416604482015260648082018490528251808303909101815260849091019091526020810180516001600160e01b03166323b872dd60e01b17905261220690859061220c565b50505050565b6060612261826040518060400160405280602081526020017f5361666545524332303a206c6f772d6c6576656c2063616c6c206661696c6564815250856001600160a01b03166122c29092919063ffffffff16565b8051909150156122bd5780806020019051602081101561228057600080fd5b50516122bd5760405162461bcd60e51b815260040180806020018281038252602a81526020018061254e602a913960400191505060405180910390fd5b505050565b60606116cd8484600085856122d6856123e8565b612327576040805162461bcd60e51b815260206004820152601d60248201527f416464726573733a2063616c6c20746f206e6f6e2d636f6e7472616374000000604482015290519081900360640190fd5b60006060866001600160a01b031685876040518082805190602001908083835b602083106123665780518252601f199092019160209182019101612347565b6001836020036101000a03801982511681845116808217855250505050505090500191505060006040518083038185875af1925050503d80600081146123c8576040519150601f19603f3d011682016040523d82523d6000602084013e6123cd565b606091505b50915091506123dd8282866123ee565b979650505050505050565b3b151590565b606083156123fd5750816111de565b82511561240d5782518084602001fd5b60405162461bcd60e51b81526020600482018181528451602484015284518593919283926044019190850190808383600083156121015781810151838201526020016120e956fe586c784d616e616765723a20636f6f6c646f776e206475726174696f6e206e6f7420796574207061737365645265656e7472616e637947756172643a207265656e7472616e742063616c6c00476f7665726e61626c653a20666f7262696464656e0000000000000000000000586c784d616e616765723a20696e76616c6964205f636f6f6c646f776e4475726174696f6e586c784d616e616765723a20696e73756666696369656e7420584c58206f7574707574536166654d6174683a206d756c7469706c69636174696f6e206f766572666c6f77586c784d616e616765723a20696e73756666696369656e742055534447206f75747075745361666545524332303a204552433230206f7065726174696f6e20646964206e6f742073756363656564a164736f6c634300060c000a",
  "devdoc": {
    "kind": "dev",
    "methods": {},
    "version": 1
  },
  "userdoc": {
    "kind": "user",
    "methods": {},
    "version": 1
  },
  "storageLayout": {
    "storage": [
      {
        "astId": 23515,
        "contract": "contracts/core/XlxManager.sol:XlxManager",
        "label": "_status",
        "offset": 0,
        "slot": "0",
        "type": "t_uint256"
      },
      {
        "astId": 3,
        "contract": "contracts/core/XlxManager.sol:XlxManager",
        "label": "gov",
        "offset": 0,
        "slot": "1",
        "type": "t_address"
      },
      {
        "astId": 17520,
        "contract": "contracts/core/XlxManager.sol:XlxManager",
        "label": "vault",
        "offset": 0,
        "slot": "2",
        "type": "t_contract(IVault)19477"
      },
      {
        "astId": 17522,
        "contract": "contracts/core/XlxManager.sol:XlxManager",
        "label": "shortsTracker",
        "offset": 0,
        "slot": "3",
        "type": "t_contract(IShortsTracker)18841"
      },
      {
        "astId": 17525,
        "contract": "contracts/core/XlxManager.sol:XlxManager",
        "label": "usdg",
        "offset": 0,
        "slot": "4",
        "type": "t_address"
      },
      {
        "astId": 17528,
        "contract": "contracts/core/XlxManager.sol:XlxManager",
        "label": "xlx",
        "offset": 0,
        "slot": "5",
        "type": "t_address"
      },
      {
        "astId": 17531,
        "contract": "contracts/core/XlxManager.sol:XlxManager",
        "label": "cooldownDuration",
        "offset": 0,
        "slot": "6",
        "type": "t_uint256"
      },
      {
        "astId": 17536,
        "contract": "contracts/core/XlxManager.sol:XlxManager",
        "label": "lastAddedAt",
        "offset": 0,
        "slot": "7",
        "type": "t_mapping(t_address,t_uint256)"
      },
      {
        "astId": 17538,
        "contract": "contracts/core/XlxManager.sol:XlxManager",
        "label": "aumAddition",
        "offset": 0,
        "slot": "8",
        "type": "t_uint256"
      },
      {
        "astId": 17540,
        "contract": "contracts/core/XlxManager.sol:XlxManager",
        "label": "aumDeduction",
        "offset": 0,
        "slot": "9",
        "type": "t_uint256"
      },
      {
        "astId": 17542,
        "contract": "contracts/core/XlxManager.sol:XlxManager",
        "label": "inPrivateMode",
        "offset": 0,
        "slot": "10",
        "type": "t_bool"
      },
      {
        "astId": 17544,
        "contract": "contracts/core/XlxManager.sol:XlxManager",
        "label": "shortsTrackerAveragePriceWeight",
        "offset": 0,
        "slot": "11",
        "type": "t_uint256"
      },
      {
        "astId": 17548,
        "contract": "contracts/core/XlxManager.sol:XlxManager",
        "label": "isHandler",
        "offset": 0,
        "slot": "12",
        "type": "t_mapping(t_address,t_bool)"
      }
    ],
    "types": {
      "t_address": {
        "encoding": "inplace",
        "label": "address",
        "numberOfBytes": "20"
      },
      "t_bool": {
        "encoding": "inplace",
        "label": "bool",
        "numberOfBytes": "1"
      },
      "t_contract(IShortsTracker)18841": {
        "encoding": "inplace",
        "label": "contract IShortsTracker",
        "numberOfBytes": "20"
      },
      "t_contract(IVault)19477": {
        "encoding": "inplace",
        "label": "contract IVault",
        "numberOfBytes": "20"
      },
      "t_mapping(t_address,t_bool)": {
        "encoding": "mapping",
        "key": "t_address",
        "label": "mapping(address => bool)",
        "numberOfBytes": "32",
        "value": "t_bool"
      },
      "t_mapping(t_address,t_uint256)": {
        "encoding": "mapping",
        "key": "t_address",
        "label": "mapping(address => uint256)",
        "numberOfBytes": "32",
        "value": "t_uint256"
      },
      "t_uint256": {
        "encoding": "inplace",
        "label": "uint256",
        "numberOfBytes": "32"
      }
    }
  }
}