{
  "_format": "hh-sol-artifact-1",
  "contractName": "EsXDX",
  "sourceName": "contracts/xdx/EsXDX.sol",
  "abi": [
    {
      "inputs": [],
      "stateMutability": "nonpayable",
      "type": "constructor"
    },
    {
      "anonymous": false,
      "inputs": [
        {
          "indexed": true,
          "internalType": "address",
          "name": "owner",
          "type": "address"
        },
        {
          "indexed": true,
          "internalType": "address",
          "name": "spender",
          "type": "address"
        },
        {
          "indexed": false,
          "internalType": "uint256",
          "name": "value",
          "type": "uint256"
        }
      ],
      "name": "Approval",
      "type": "event"
    },
    {
      "anonymous": false,
      "inputs": [
        {
          "indexed": true,
          "internalType": "address",
          "name": "from",
          "type": "address"
        },
        {
          "indexed": true,
          "internalType": "address",
          "name": "to",
          "type": "address"
        },
        {
          "indexed": false,
          "internalType": "uint256",
          "name": "value",
          "type": "uint256"
        }
      ],
      "name": "Transfer",
      "type": "event"
    },
    {
      "inputs": [
        {
          "internalType": "address",
          "name": "_account",
          "type": "address"
        }
      ],
      "name": "addAdmin",
      "outputs": [],
      "stateMutability": "nonpayable",
      "type": "function"
    },
    {
      "inputs": [
        {
          "internalType": "address",
          "name": "_account",
          "type": "address"
        }
      ],
      "name": "addNonStakingAccount",
      "outputs": [],
      "stateMutability": "nonpayable",
      "type": "function"
    },
    {
      "inputs": [
        {
          "internalType": "address",
          "name": "",
          "type": "address"
        }
      ],
      "name": "admins",
      "outputs": [
        {
          "internalType": "bool",
          "name": "",
          "type": "bool"
        }
      ],
      "stateMutability": "view",
      "type": "function"
    },
    {
      "inputs": [
        {
          "internalType": "address",
          "name": "_owner",
          "type": "address"
        },
        {
          "internalType": "address",
          "name": "_spender",
          "type": "address"
        }
      ],
      "name": "allowance",
      "outputs": [
        {
          "internalType": "uint256",
          "name": "",
          "type": "uint256"
        }
      ],
      "stateMutability": "view",
      "type": "function"
    },
    {
      "inputs": [
        {
          "internalType": "address",
          "name": "",
          "type": "address"
        },
        {
          "internalType": "address",
          "name": "",
          "type": "address"
        }
      ],
      "name": "allowances",
      "outputs": [
        {
          "internalType": "uint256",
          "name": "",
          "type": "uint256"
        }
      ],
      "stateMutability": "view",
      "type": "function"
    },
    {
      "inputs": [
        {
          "internalType": "address",
          "name": "_spender",
          "type": "address"
        },
        {
          "internalType": "uint256",
          "name": "_amount",
          "type": "uint256"
        }
      ],
      "name": "approve",
      "outputs": [
        {
          "internalType": "bool",
          "name": "",
          "type": "bool"
        }
      ],
      "stateMutability": "nonpayable",
      "type": "function"
    },
    {
      "inputs": [
        {
          "internalType": "address",
          "name": "_account",
          "type": "address"
        }
      ],
      "name": "balanceOf",
      "outputs": [
        {
          "internalType": "uint256",
          "name": "",
          "type": "uint256"
        }
      ],
      "stateMutability": "view",
      "type": "function"
    },
    {
      "inputs": [
        {
          "internalType": "address",
          "name": "",
          "type": "address"
        }
      ],
      "name": "balances",
      "outputs": [
        {
          "internalType": "uint256",
          "name": "",
          "type": "uint256"
        }
      ],
      "stateMutability": "view",
      "type": "function"
    },
    {
      "inputs": [
        {
          "internalType": "address",
          "name": "_account",
          "type": "address"
        },
        {
          "internalType": "uint256",
          "name": "_amount",
          "type": "uint256"
        }
      ],
      "name": "burn",
      "outputs": [],
      "stateMutability": "nonpayable",
      "type": "function"
    },
    {
      "inputs": [
        {
          "internalType": "address",
          "name": "_receiver",
          "type": "address"
        }
      ],
      "name": "claim",
      "outputs": [],
      "stateMutability": "nonpayable",
      "type": "function"
    },
    {
      "inputs": [],
      "name": "decimals",
      "outputs": [
        {
          "internalType": "uint8",
          "name": "",
          "type": "uint8"
        }
      ],
      "stateMutability": "view",
      "type": "function"
    },
    {
      "inputs": [],
      "name": "gov",
      "outputs": [
        {
          "internalType": "address",
          "name": "",
          "type": "address"
        }
      ],
      "stateMutability": "view",
      "type": "function"
    },
    {
      "inputs": [],
      "name": "id",
      "outputs": [
        {
          "internalType": "string",
          "name": "_name",
          "type": "string"
        }
      ],
      "stateMutability": "pure",
      "type": "function"
    },
    {
      "inputs": [],
      "name": "inPrivateTransferMode",
      "outputs": [
        {
          "internalType": "bool",
          "name": "",
          "type": "bool"
        }
      ],
      "stateMutability": "view",
      "type": "function"
    },
    {
      "inputs": [
        {
          "internalType": "address",
          "name": "",
          "type": "address"
        }
      ],
      "name": "isHandler",
      "outputs": [
        {
          "internalType": "bool",
          "name": "",
          "type": "bool"
        }
      ],
      "stateMutability": "view",
      "type": "function"
    },
    {
      "inputs": [
        {
          "internalType": "address",
          "name": "",
          "type": "address"
        }
      ],
      "name": "isMinter",
      "outputs": [
        {
          "internalType": "bool",
          "name": "",
          "type": "bool"
        }
      ],
      "stateMutability": "view",
      "type": "function"
    },
    {
      "inputs": [
        {
          "internalType": "address",
          "name": "_account",
          "type": "address"
        },
        {
          "internalType": "uint256",
          "name": "_amount",
          "type": "uint256"
        }
      ],
      "name": "mint",
      "outputs": [],
      "stateMutability": "nonpayable",
      "type": "function"
    },
    {
      "inputs": [],
      "name": "name",
      "outputs": [
        {
          "internalType": "string",
          "name": "",
          "type": "string"
        }
      ],
      "stateMutability": "view",
      "type": "function"
    },
    {
      "inputs": [
        {
          "internalType": "address",
          "name": "",
          "type": "address"
        }
      ],
      "name": "nonStakingAccounts",
      "outputs": [
        {
          "internalType": "bool",
          "name": "",
          "type": "bool"
        }
      ],
      "stateMutability": "view",
      "type": "function"
    },
    {
      "inputs": [],
      "name": "nonStakingSupply",
      "outputs": [
        {
          "internalType": "uint256",
          "name": "",
          "type": "uint256"
        }
      ],
      "stateMutability": "view",
      "type": "function"
    },
    {
      "inputs": [
        {
          "internalType": "address",
          "name": "_account",
          "type": "address"
        },
        {
          "internalType": "address",
          "name": "_receiver",
          "type": "address"
        }
      ],
      "name": "recoverClaim",
      "outputs": [],
      "stateMutability": "nonpayable",
      "type": "function"
    },
    {
      "inputs": [
        {
          "internalType": "address",
          "name": "_account",
          "type": "address"
        }
      ],
      "name": "removeAdmin",
      "outputs": [],
      "stateMutability": "nonpayable",
      "type": "function"
    },
    {
      "inputs": [
        {
          "internalType": "address",
          "name": "_account",
          "type": "address"
        }
      ],
      "name": "removeNonStakingAccount",
      "outputs": [],
      "stateMutability": "nonpayable",
      "type": "function"
    },
    {
      "inputs": [
        {
          "internalType": "address",
          "name": "_gov",
          "type": "address"
        }
      ],
      "name": "setGov",
      "outputs": [],
      "stateMutability": "nonpayable",
      "type": "function"
    },
    {
      "inputs": [
        {
          "internalType": "address",
          "name": "_handler",
          "type": "address"
        },
        {
          "internalType": "bool",
          "name": "_isActive",
          "type": "bool"
        }
      ],
      "name": "setHandler",
      "outputs": [],
      "stateMutability": "nonpayable",
      "type": "function"
    },
    {
      "inputs": [
        {
          "internalType": "bool",
          "name": "_inPrivateTransferMode",
          "type": "bool"
        }
      ],
      "name": "setInPrivateTransferMode",
      "outputs": [],
      "stateMutability": "nonpayable",
      "type": "function"
    },
    {
      "inputs": [
        {
          "internalType": "string",
          "name": "_name",
          "type": "string"
        },
        {
          "internalType": "string",
          "name": "_symbol",
          "type": "string"
        }
      ],
      "name": "setInfo",
      "outputs": [],
      "stateMutability": "nonpayable",
      "type": "function"
    },
    {
      "inputs": [
        {
          "internalType": "address",
          "name": "_minter",
          "type": "address"
        }
      ],
      "name": "setMinter",
      "outputs": [],
      "stateMutability": "nonpayable",
      "type": "function"
    },
    {
      "inputs": [
        {
          "internalType": "address[]",
          "name": "_yieldTrackers",
          "type": "address[]"
        }
      ],
      "name": "setYieldTrackers",
      "outputs": [],
      "stateMutability": "nonpayable",
      "type": "function"
    },
    {
      "inputs": [
        {
          "internalType": "address",
          "name": "_account",
          "type": "address"
        }
      ],
      "name": "stakedBalance",
      "outputs": [
        {
          "internalType": "uint256",
          "name": "",
          "type": "uint256"
        }
      ],
      "stateMutability": "view",
      "type": "function"
    },
    {
      "inputs": [],
      "name": "symbol",
      "outputs": [
        {
          "internalType": "string",
          "name": "",
          "type": "string"
        }
      ],
      "stateMutability": "view",
      "type": "function"
    },
    {
      "inputs": [],
      "name": "totalStaked",
      "outputs": [
        {
          "internalType": "uint256",
          "name": "",
          "type": "uint256"
        }
      ],
      "stateMutability": "view",
      "type": "function"
    },
    {
      "inputs": [],
      "name": "totalSupply",
      "outputs": [
        {
          "internalType": "uint256",
          "name": "",
          "type": "uint256"
        }
      ],
      "stateMutability": "view",
      "type": "function"
    },
    {
      "inputs": [
        {
          "internalType": "address",
          "name": "_recipient",
          "type": "address"
        },
        {
          "internalType": "uint256",
          "name": "_amount",
          "type": "uint256"
        }
      ],
      "name": "transfer",
      "outputs": [
        {
          "internalType": "bool",
          "name": "",
          "type": "bool"
        }
      ],
      "stateMutability": "nonpayable",
      "type": "function"
    },
    {
      "inputs": [
        {
          "internalType": "address",
          "name": "_sender",
          "type": "address"
        },
        {
          "internalType": "address",
          "name": "_recipient",
          "type": "address"
        },
        {
          "internalType": "uint256",
          "name": "_amount",
          "type": "uint256"
        }
      ],
      "name": "transferFrom",
      "outputs": [
        {
          "internalType": "bool",
          "name": "",
          "type": "bool"
        }
      ],
      "stateMutability": "nonpayable",
      "type": "function"
    },
    {
      "inputs": [
        {
          "internalType": "address",
          "name": "_token",
          "type": "address"
        },
        {
          "internalType": "address",
          "name": "_account",
          "type": "address"
        },
        {
          "internalType": "uint256",
          "name": "_amount",
          "type": "uint256"
        }
      ],
      "name": "withdrawToken",
      "outputs": [],
      "stateMutability": "nonpayable",
      "type": "function"
    },
    {
      "inputs": [
        {
          "internalType": "uint256",
          "name": "",
          "type": "uint256"
        }
      ],
      "name": "yieldTrackers",
      "outputs": [
        {
          "internalType": "address",
          "name": "",
          "type": "address"
        }
      ],
      "stateMutability": "view",
      "type": "function"
    }
  ],
  "bytecode": "0x60806040523480156200001157600080fd5b506040518060400160405280600c81526020016b08ae6c6e4deeecac840b088b60a31b81525060405180604001604052806006815260200165048cae6b088b60d31b815250600082828282600090805190602001906200007392919062000309565b5081516200008990600190602085019062000309565b50600480546001600160a01b03191633908117909155620000ab9082620000d2565b5050336000908152600c60205260409020805460ff1916600117905550620003a592505050565b6001600160a01b038216620001195760405162461bcd60e51b81526004018080602001828103825260238152602001806200254e6023913960400191505060405180910390fd5b620001248262000208565b6200014081600254620002a760201b620014611790919060201c565b6002556001600160a01b0382166000908152600560209081526040909120546200017591839062001461620002a7821b17901c565b6001600160a01b03831660009081526005602090815260408083209390935560089052205460ff1615620001c357620001bf81600354620002a760201b620014611790919060201c565b6003555b6040805182815290516001600160a01b038416916000917fddf252ad1be2c89b69c2b068fc378daa952ba7f163c4a11628f55a4df523b3ef9181900360200190a35050565b60005b600754811015620002a3576000600782815481106200022657fe5b600091825260208220015460408051635fd6196560e01b81526001600160a01b03878116600483015291519190921693508392635fd61965926024808201939182900301818387803b1580156200027c57600080fd5b505af115801562000291573d6000803e3d6000fd5b5050600190930192506200020b915050565b5050565b60008282018381101562000302576040805162461bcd60e51b815260206004820152601b60248201527f536166654d6174683a206164646974696f6e206f766572666c6f770000000000604482015290519081900360640190fd5b9392505050565b828054600181600116156101000203166002900490600052602060002090601f016020900481019282601f106200034c57805160ff19168380011785556200037c565b828001600101855582156200037c579182015b828111156200037c5782518255916020019190600101906200035f565b506200038a9291506200038e565b5090565b5b808211156200038a57600081556001016200038f565b61219980620003b56000396000f3fe608060405234801561001057600080fd5b50600436106101b75760003560e01c806301e33667146101bc57806306fdde03146101f4578063095ea7b31461027157806312d43a51146102b15780631785f53c146102d557806318160ddd146102fb5780631e83409a1461031557806323b872dd1461033b578063276eab4e1461037157806327e235e314610412578063313ce5671461043857806340c10f1914610456578063429b62e51461048257806346ea87af146104a857806352cd38d9146104ce57806355b6ed5c146104eb5780635a47a1a7146105195780636021726714610538578063622890771461055e578063704802751461058457806370a08231146105aa578063817b1cd2146105d05780639554381a146105d857806395d89b41146105fe578063996f11ee146106065780639cb7de4b146106345780639dc29fac14610662578063a9059cbb1461068e578063a923fc40146106ba578063aa271e1a146107e3578063af640d0f14610809578063c93be63614610811578063cfad57a214610819578063dd62ed3e1461083f578063dfbaefb11461086d578063fb30d91614610875578063fca3b5aa1461089b575b600080fd5b6101f2600480360360608110156101d257600080fd5b506001600160a01b038135811691602081013590911690604001356108c1565b005b6101fc610927565b6040805160208082528351818301528351919283929083019185019080838360005b8381101561023657818101518382015260200161021e565b50505050905090810190601f1680156102635780820380516001836020036101000a031916815260200191505b509250505060405180910390f35b61029d6004803603604081101561028757600080fd5b506001600160a01b0381351690602001356109b5565b604080519115158252519081900360200190f35b6102b96109cb565b604080516001600160a01b039092168252519081900360200190f35b6101f2600480360360208110156102eb57600080fd5b50356001600160a01b03166109da565b610303610a48565b60408051918252519081900360200190f35b6101f26004803603602081101561032b57600080fd5b50356001600160a01b0316610a4e565b61029d6004803603606081101561035157600080fd5b506001600160a01b03813581169160208101359091169060400135610b05565b6101f26004803603602081101561038757600080fd5b810190602081018135600160201b8111156103a157600080fd5b8201836020820111156103b357600080fd5b803590602001918460208302840111600160201b831117156103d457600080fd5b919080806020026020016040519081016040528093929190818152602001838360200280828437600092019190915250929550610b9f945050505050565b6103036004803603602081101561042857600080fd5b50356001600160a01b0316610bff565b610440610c11565b6040805160ff9092168252519081900360200190f35b6101f26004803603604081101561046c57600080fd5b506001600160a01b038135169060200135610c16565b61029d6004803603602081101561049857600080fd5b50356001600160a01b0316610c83565b61029d600480360360208110156104be57600080fd5b50356001600160a01b0316610c98565b6102b9600480360360208110156104e457600080fd5b5035610cad565b6103036004803603604081101561050157600080fd5b506001600160a01b0381358116916020013516610cd4565b6101f26004803603602081101561052f57600080fd5b50351515610cf1565b6103036004803603602081101561054e57600080fd5b50356001600160a01b0316610d51565b6101f26004803603602081101561057457600080fd5b50356001600160a01b0316610d9a565b6101f26004803603602081101561059a57600080fd5b50356001600160a01b0316610e8d565b610303600480360360208110156105c057600080fd5b50356001600160a01b0316610efe565b610303610f19565b61029d600480360360208110156105ee57600080fd5b50356001600160a01b0316610f37565b6101fc610f4c565b6101f26004803603604081101561061c57600080fd5b506001600160a01b0381358116916020013516610fa6565b6101f26004803603604081101561064a57600080fd5b506001600160a01b03813516906020013515156110ad565b6101f26004803603604081101561067857600080fd5b506001600160a01b038135169060200135611125565b61029d600480360360408110156106a457600080fd5b506001600160a01b038135169060200135611192565b6101f2600480360360408110156106d057600080fd5b810190602081018135600160201b8111156106ea57600080fd5b8201836020820111156106fc57600080fd5b803590602001918460018302840111600160201b8311171561071d57600080fd5b91908080601f0160208091040260200160405190810160405280939291908181526020018383808284376000920191909152509295949360208101935035915050600160201b81111561076f57600080fd5b82018360208201111561078157600080fd5b803590602001918460018302840111600160201b831117156107a257600080fd5b91908080601f01602080910402602001604051908101604052809392919081815260200183838082843760009201919091525092955061119f945050505050565b61029d600480360360208110156107f957600080fd5b50356001600160a01b0316611213565b6101fc611228565b610303611248565b6101f26004803603602081101561082f57600080fd5b50356001600160a01b031661124e565b6103036004803603604081101561085557600080fd5b506001600160a01b03813581169160200135166112bd565b61029d6112e8565b6101f26004803603602081101561088b57600080fd5b50356001600160a01b03166112f1565b6101f2600480360360208110156108b157600080fd5b50356001600160a01b03166113f0565b6004546001600160a01b0316331461090e576040805162461bcd60e51b81526020600482015260146024820152600080516020612012833981519152604482015290519081900360640190fd5b6109226001600160a01b03841683836114b9565b505050565b6000805460408051602060026001851615610100026000190190941693909304601f810184900484028201840190925281815292918301828280156109ad5780601f10610982576101008083540402835291602001916109ad565b820191906000526020600020905b81548152906001019060200180831161099057829003601f168201915b505050505081565b60006109c233848461150b565b50600192915050565b6004546001600160a01b031681565b6004546001600160a01b03163314610a27576040805162461bcd60e51b81526020600482015260146024820152600080516020612012833981519152604482015290519081900360640190fd5b6001600160a01b03166000908152600960205260409020805460ff19169055565b60025481565b60005b600754811015610b0157600060078281548110610a6a57fe5b6000918252602080832090910154604080516310e059a160e11b81523360048201526001600160a01b038881166024830152915191909216945084936321c0b34293604480850194919392918390030190829087803b158015610acc57600080fd5b505af1158015610ae0573d6000803e3d6000fd5b505050506040513d6020811015610af657600080fd5b505050600101610a51565b5050565b336000908152600b602052604081205460ff1615610b3057610b288484846115f7565b506001610b98565b6000610b7a836040518060600160405280602c8152602001611fc0602c91396001600160a01b0388166000908152600660209081526040808320338452909152902054919061180d565b9050610b8785338361150b565b610b928585856115f7565b60019150505b9392505050565b6004546001600160a01b03163314610bec576040805162461bcd60e51b81526020600482015260146024820152600080516020612012833981519152604482015290519081900360640190fd5b8051610b01906007906020840190611e17565b60056020526000908152604090205481565b601281565b336000908152600c602052604090205460ff16610c79576040805162461bcd60e51b815260206004820152601c60248201527b26b4b73a30b13632a130b9b2aa37b5b2b71d103337b93134b23232b760211b604482015290519081900360640190fd5b610b0182826118a4565b60096020526000908152604090205460ff1681565b600b6020526000908152604090205460ff1681565b60078181548110610cba57fe5b6000918252602090912001546001600160a01b0316905081565b600660209081526000928352604080842090915290825290205481565b6004546001600160a01b03163314610d3e576040805162461bcd60e51b81526020600482015260146024820152600080516020612012833981519152604482015290519081900360640190fd5b600a805460ff1916911515919091179055565b6001600160a01b03811660009081526008602052604081205460ff1615610d7a57506000610d95565b506001600160a01b0381166000908152600560205260409020545b919050565b3360009081526009602052604090205460ff16610dec576040805162461bcd60e51b81526020600482015260146024820152600080516020612012833981519152604482015290519081900360640190fd5b6001600160a01b03811660009081526008602052604090205460ff1615610e445760405162461bcd60e51b81526004018080602001828103825260228152602001806120a46022913960400191505060405180910390fd5b610e4d81611996565b6001600160a01b0381166000908152600860209081526040808320805460ff191660011790556005909152902054600354610e8791611461565b60035550565b6004546001600160a01b03163314610eda576040805162461bcd60e51b81526020600482015260146024820152600080516020612012833981519152604482015290519081900360640190fd5b6001600160a01b03166000908152600960205260409020805460ff19166001179055565b6001600160a01b031660009081526005602052604090205490565b6000610f32600354600254611a2c90919063ffffffff16565b905090565b60086020526000908152604090205460ff1681565b60018054604080516020600284861615610100026000190190941693909304601f810184900484028201840190925281815292918301828280156109ad5780601f10610982576101008083540402835291602001916109ad565b3360009081526009602052604090205460ff16610ff8576040805162461bcd60e51b81526020600482015260146024820152600080516020612012833981519152604482015290519081900360640190fd5b60005b6007548110156109225760006007828154811061101457fe5b6000918252602080832090910154604080516310e059a160e11b81526001600160a01b0389811660048301528881166024830152915191909216945084936321c0b34293604480850194919392918390030190829087803b15801561107857600080fd5b505af115801561108c573d6000803e3d6000fd5b505050506040513d60208110156110a257600080fd5b505050600101610ffb565b6004546001600160a01b031633146110fa576040805162461bcd60e51b81526020600482015260146024820152600080516020612012833981519152604482015290519081900360640190fd5b6001600160a01b03919091166000908152600b60205260409020805460ff1916911515919091179055565b336000908152600c602052604090205460ff16611188576040805162461bcd60e51b815260206004820152601c60248201527b26b4b73a30b13632a130b9b2aa37b5b2b71d103337b93134b23232b760211b604482015290519081900360640190fd5b610b018282611a6e565b60006109c23384846115f7565b6004546001600160a01b031633146111ec576040805162461bcd60e51b81526020600482015260146024820152600080516020612012833981519152604482015290519081900360640190fd5b81516111ff906000906020850190611e7c565b508051610922906001906020840190611e7c565b600c6020526000908152604090205460ff1681565b604080518082019091526006815265048cae6b088b60d31b602082015290565b60035481565b6004546001600160a01b0316331461129b576040805162461bcd60e51b81526020600482015260146024820152600080516020612012833981519152604482015290519081900360640190fd5b600480546001600160a01b0319166001600160a01b0392909216919091179055565b6001600160a01b03918216600090815260066020908152604080832093909416825291909152205490565b600a5460ff1681565b3360009081526009602052604090205460ff16611343576040805162461bcd60e51b81526020600482015260146024820152600080516020612012833981519152604482015290519081900360640190fd5b6001600160a01b03811660009081526008602052604090205460ff166113b0576040805162461bcd60e51b815260206004820152601e60248201527f42617365546f6b656e3a205f6163636f756e74206e6f74206d61726b65640000604482015290519081900360640190fd5b6113b981611996565b6001600160a01b0381166000908152600860209081526040808320805460ff191690556005909152902054600354610e8791611a2c565b6004546001600160a01b0316331461143d576040805162461bcd60e51b81526020600482015260146024820152600080516020612012833981519152604482015290519081900360640190fd5b6001600160a01b03166000908152600c60205260409020805460ff19166001179055565b600082820183811015610b98576040805162461bcd60e51b815260206004820152601b60248201527a536166654d6174683a206164646974696f6e206f766572666c6f7760281b604482015290519081900360640190fd5b604080516001600160a01b038416602482015260448082018490528251808303909101815260649091019091526020810180516001600160e01b031663a9059cbb60e01b179052610922908490611b87565b6001600160a01b0383166115505760405162461bcd60e51b81526004018080602001828103825260288152602001806120326028913960400191505060405180910390fd5b6001600160a01b0382166115955760405162461bcd60e51b8152600401808060200182810382526026815260200180611f9a6026913960400191505060405180910390fd5b6001600160a01b03808416600081815260066020908152604080832094871680845294825291829020859055815185815291517f8c5be1e5ebec7d5bd14f71427d1e84f3dd0314c0f7b2291e5b200ac8c7c3b9259281900390910190a3505050565b6001600160a01b03831661163c5760405162461bcd60e51b815260040180806020018281038252602981526020018061213b6029913960400191505060405180910390fd5b6001600160a01b0382166116815760405162461bcd60e51b8152600401808060200182810382526027815260200180611f506027913960400191505060405180910390fd5b600a5460ff16156116da57336000908152600b602052604090205460ff166116da5760405162461bcd60e51b8152600401808060200182810382526025815260200180611f2b6025913960400191505060405180910390fd5b6116e383611996565b6116ec82611996565b611729816040518060600160405280602a815260200161205a602a91396001600160a01b038616600090815260056020526040902054919061180d565b6001600160a01b0380851660009081526005602052604080822093909355908416815220546117589082611461565b6001600160a01b0380841660009081526005602090815260408083209490945591861681526008909152205460ff161561179d576003546117999082611a2c565b6003555b6001600160a01b03821660009081526008602052604090205460ff16156117cf576003546117cb9082611461565b6003555b816001600160a01b0316836001600160a01b0316600080516020612084833981519152836040518082815260200191505060405180910390a3505050565b6000818484111561189c5760405162461bcd60e51b81526004018080602001828103825283818151815260200191508051906020019080838360005b83811015611861578181015183820152602001611849565b50505050905090810190601f16801561188e5780820380516001836020036101000a031916815260200191505b509250505060405180910390fd5b505050900390565b6001600160a01b0382166118e95760405162461bcd60e51b8152600401808060200182810382526023815260200180611f776023913960400191505060405180910390fd5b6118f282611996565b6002546118ff9082611461565b6002556001600160a01b0382166000908152600560205260409020546119259082611461565b6001600160a01b03831660009081526005602090815260408083209390935560089052205460ff16156119635760035461195f9082611461565b6003555b6040805182815290516001600160a01b038416916000916000805160206120848339815191529181900360200190a35050565b60005b600754811015610b01576000600782815481106119b257fe5b600091825260208220015460408051635fd6196560e01b81526001600160a01b03878116600483015291519190921693508392635fd61965926024808201939182900301818387803b158015611a0757600080fd5b505af1158015611a1b573d6000803e3d6000fd5b505060019093019250611999915050565b6000610b9883836040518060400160405280601e81526020017f536166654d6174683a207375627472616374696f6e206f766572666c6f77000081525061180d565b6001600160a01b038216611ab35760405162461bcd60e51b81526004018080602001828103825260258152602001806121166025913960400191505060405180910390fd5b611abc82611996565b611af9816040518060600160405280602681526020016120c6602691396001600160a01b038516600090815260056020526040902054919061180d565b6001600160a01b038316600090815260056020526040902055600254611b1f9082611a2c565b6002556001600160a01b03821660009081526008602052604090205460ff1615611b5457600354611b509082611a2c565b6003555b6040805182815290516000916001600160a01b038516916000805160206120848339815191529181900360200190a35050565b6060611bdc826040518060400160405280602081526020017f5361666545524332303a206c6f772d6c6576656c2063616c6c206661696c6564815250856001600160a01b0316611c389092919063ffffffff16565b80519091501561092257808060200190516020811015611bfb57600080fd5b50516109225760405162461bcd60e51b815260040180806020018281038252602a8152602001806120ec602a913960400191505060405180910390fd5b6060611c478484600085611c4f565b949350505050565b606082471015611c905760405162461bcd60e51b8152600401808060200182810382526026815260200180611fec6026913960400191505060405180910390fd5b611c9985611dab565b611cea576040805162461bcd60e51b815260206004820152601d60248201527f416464726573733a2063616c6c20746f206e6f6e2d636f6e7472616374000000604482015290519081900360640190fd5b60006060866001600160a01b031685876040518082805190602001908083835b60208310611d295780518252601f199092019160209182019101611d0a565b6001836020036101000a03801982511681845116808217855250505050505090500191505060006040518083038185875af1925050503d8060008114611d8b576040519150601f19603f3d011682016040523d82523d6000602084013e611d90565b606091505b5091509150611da0828286611db1565b979650505050505050565b3b151590565b60608315611dc0575081610b98565b825115611dd05782518084602001fd5b60405162461bcd60e51b8152602060048201818152845160248401528451859391928392604401919085019080838360008315611861578181015183820152602001611849565b828054828255906000526020600020908101928215611e6c579160200282015b82811115611e6c57825182546001600160a01b0319166001600160a01b03909116178255602090920191600190910190611e37565b50611e78929150611ef6565b5090565b828054600181600116156101000203166002900490600052602060002090601f016020900481019282601f10611ebd57805160ff1916838001178555611eea565b82800160010185558215611eea579182015b82811115611eea578251825591602001919060010190611ecf565b50611e78929150611f15565b5b80821115611e785780546001600160a01b0319168155600101611ef7565b5b80821115611e785760008155600101611f1656fe42617365546f6b656e3a206d73672e73656e646572206e6f742077686974656c697374656442617365546f6b656e3a207472616e7366657220746f20746865207a65726f206164647265737342617365546f6b656e3a206d696e7420746f20746865207a65726f206164647265737342617365546f6b656e3a20617070726f766520746f20746865207a65726f206164647265737342617365546f6b656e3a207472616e7366657220616d6f756e74206578636565647320616c6c6f77616e6365416464726573733a20696e73756666696369656e742062616c616e636520666f722063616c6c42617365546f6b656e3a20666f7262696464656e00000000000000000000000042617365546f6b656e3a20617070726f76652066726f6d20746865207a65726f206164647265737342617365546f6b656e3a207472616e7366657220616d6f756e7420657863656564732062616c616e6365ddf252ad1be2c89b69c2b068fc378daa952ba7f163c4a11628f55a4df523b3ef42617365546f6b656e3a205f6163636f756e7420616c7265616479206d61726b656442617365546f6b656e3a206275726e20616d6f756e7420657863656564732062616c616e63655361666545524332303a204552433230206f7065726174696f6e20646964206e6f74207375636365656442617365546f6b656e3a206275726e2066726f6d20746865207a65726f206164647265737342617365546f6b656e3a207472616e736665722066726f6d20746865207a65726f2061646472657373a2646970667358221220459d9310875b6cf2bd0f909c57f0760a3c23632c1038e008f329b67820e610e664736f6c634300060c003342617365546f6b656e3a206d696e7420746f20746865207a65726f2061646472657373",
  "linkReferences": {},
  "deployedLinkReferences": {}
}