{
  "_format": "hh-sol-artifact-1",
  "contractName": "MintableBaseToken",
  "sourceName": "contracts/tokens/MintableBaseToken.sol",
  "abi": [
    {
      "inputs": [
        {
          "internalType": "string",
          "name": "_name",
          "type": "string"
        },
        {
          "internalType": "string",
          "name": "_symbol",
          "type": "string"
        },
        {
          "internalType": "uint256",
          "name": "_initialSupply",
          "type": "uint256"
        }
      ],
      "stateMutability": "nonpayable",
      "type": "constructor"
    },
    {
      "anonymous": false,
      "inputs": [
        {
          "indexed": true,
          "internalType": "address",
          "name": "owner",
          "type": "address"
        },
        {
          "indexed": true,
          "internalType": "address",
          "name": "spender",
          "type": "address"
        },
        {
          "indexed": false,
          "internalType": "uint256",
          "name": "value",
          "type": "uint256"
        }
      ],
      "name": "Approval",
      "type": "event"
    },
    {
      "anonymous": false,
      "inputs": [
        {
          "indexed": true,
          "internalType": "address",
          "name": "from",
          "type": "address"
        },
        {
          "indexed": true,
          "internalType": "address",
          "name": "to",
          "type": "address"
        },
        {
          "indexed": false,
          "internalType": "uint256",
          "name": "value",
          "type": "uint256"
        }
      ],
      "name": "Transfer",
      "type": "event"
    },
    {
      "inputs": [
        {
          "internalType": "address",
          "name": "_account",
          "type": "address"
        }
      ],
      "name": "addAdmin",
      "outputs": [],
      "stateMutability": "nonpayable",
      "type": "function"
    },
    {
      "inputs": [
        {
          "internalType": "address",
          "name": "_account",
          "type": "address"
        }
      ],
      "name": "addNonStakingAccount",
      "outputs": [],
      "stateMutability": "nonpayable",
      "type": "function"
    },
    {
      "inputs": [
        {
          "internalType": "address",
          "name": "",
          "type": "address"
        }
      ],
      "name": "admins",
      "outputs": [
        {
          "internalType": "bool",
          "name": "",
          "type": "bool"
        }
      ],
      "stateMutability": "view",
      "type": "function"
    },
    {
      "inputs": [
        {
          "internalType": "address",
          "name": "_owner",
          "type": "address"
        },
        {
          "internalType": "address",
          "name": "_spender",
          "type": "address"
        }
      ],
      "name": "allowance",
      "outputs": [
        {
          "internalType": "uint256",
          "name": "",
          "type": "uint256"
        }
      ],
      "stateMutability": "view",
      "type": "function"
    },
    {
      "inputs": [
        {
          "internalType": "address",
          "name": "",
          "type": "address"
        },
        {
          "internalType": "address",
          "name": "",
          "type": "address"
        }
      ],
      "name": "allowances",
      "outputs": [
        {
          "internalType": "uint256",
          "name": "",
          "type": "uint256"
        }
      ],
      "stateMutability": "view",
      "type": "function"
    },
    {
      "inputs": [
        {
          "internalType": "address",
          "name": "_spender",
          "type": "address"
        },
        {
          "internalType": "uint256",
          "name": "_amount",
          "type": "uint256"
        }
      ],
      "name": "approve",
      "outputs": [
        {
          "internalType": "bool",
          "name": "",
          "type": "bool"
        }
      ],
      "stateMutability": "nonpayable",
      "type": "function"
    },
    {
      "inputs": [
        {
          "internalType": "address",
          "name": "_account",
          "type": "address"
        }
      ],
      "name": "balanceOf",
      "outputs": [
        {
          "internalType": "uint256",
          "name": "",
          "type": "uint256"
        }
      ],
      "stateMutability": "view",
      "type": "function"
    },
    {
      "inputs": [
        {
          "internalType": "address",
          "name": "",
          "type": "address"
        }
      ],
      "name": "balances",
      "outputs": [
        {
          "internalType": "uint256",
          "name": "",
          "type": "uint256"
        }
      ],
      "stateMutability": "view",
      "type": "function"
    },
    {
      "inputs": [
        {
          "internalType": "address",
          "name": "_account",
          "type": "address"
        },
        {
          "internalType": "uint256",
          "name": "_amount",
          "type": "uint256"
        }
      ],
      "name": "burn",
      "outputs": [],
      "stateMutability": "nonpayable",
      "type": "function"
    },
    {
      "inputs": [
        {
          "internalType": "address",
          "name": "_receiver",
          "type": "address"
        }
      ],
      "name": "claim",
      "outputs": [],
      "stateMutability": "nonpayable",
      "type": "function"
    },
    {
      "inputs": [],
      "name": "decimals",
      "outputs": [
        {
          "internalType": "uint8",
          "name": "",
          "type": "uint8"
        }
      ],
      "stateMutability": "view",
      "type": "function"
    },
    {
      "inputs": [],
      "name": "gov",
      "outputs": [
        {
          "internalType": "address",
          "name": "",
          "type": "address"
        }
      ],
      "stateMutability": "view",
      "type": "function"
    },
    {
      "inputs": [],
      "name": "inPrivateTransferMode",
      "outputs": [
        {
          "internalType": "bool",
          "name": "",
          "type": "bool"
        }
      ],
      "stateMutability": "view",
      "type": "function"
    },
    {
      "inputs": [
        {
          "internalType": "address",
          "name": "",
          "type": "address"
        }
      ],
      "name": "isHandler",
      "outputs": [
        {
          "internalType": "bool",
          "name": "",
          "type": "bool"
        }
      ],
      "stateMutability": "view",
      "type": "function"
    },
    {
      "inputs": [
        {
          "internalType": "address",
          "name": "",
          "type": "address"
        }
      ],
      "name": "isMinter",
      "outputs": [
        {
          "internalType": "bool",
          "name": "",
          "type": "bool"
        }
      ],
      "stateMutability": "view",
      "type": "function"
    },
    {
      "inputs": [
        {
          "internalType": "address",
          "name": "_account",
          "type": "address"
        },
        {
          "internalType": "uint256",
          "name": "_amount",
          "type": "uint256"
        }
      ],
      "name": "mint",
      "outputs": [],
      "stateMutability": "nonpayable",
      "type": "function"
    },
    {
      "inputs": [],
      "name": "name",
      "outputs": [
        {
          "internalType": "string",
          "name": "",
          "type": "string"
        }
      ],
      "stateMutability": "view",
      "type": "function"
    },
    {
      "inputs": [
        {
          "internalType": "address",
          "name": "",
          "type": "address"
        }
      ],
      "name": "nonStakingAccounts",
      "outputs": [
        {
          "internalType": "bool",
          "name": "",
          "type": "bool"
        }
      ],
      "stateMutability": "view",
      "type": "function"
    },
    {
      "inputs": [],
      "name": "nonStakingSupply",
      "outputs": [
        {
          "internalType": "uint256",
          "name": "",
          "type": "uint256"
        }
      ],
      "stateMutability": "view",
      "type": "function"
    },
    {
      "inputs": [
        {
          "internalType": "address",
          "name": "_account",
          "type": "address"
        },
        {
          "internalType": "address",
          "name": "_receiver",
          "type": "address"
        }
      ],
      "name": "recoverClaim",
      "outputs": [],
      "stateMutability": "nonpayable",
      "type": "function"
    },
    {
      "inputs": [
        {
          "internalType": "address",
          "name": "_account",
          "type": "address"
        }
      ],
      "name": "removeAdmin",
      "outputs": [],
      "stateMutability": "nonpayable",
      "type": "function"
    },
    {
      "inputs": [
        {
          "internalType": "address",
          "name": "_account",
          "type": "address"
        }
      ],
      "name": "removeNonStakingAccount",
      "outputs": [],
      "stateMutability": "nonpayable",
      "type": "function"
    },
    {
      "inputs": [
        {
          "internalType": "address",
          "name": "_gov",
          "type": "address"
        }
      ],
      "name": "setGov",
      "outputs": [],
      "stateMutability": "nonpayable",
      "type": "function"
    },
    {
      "inputs": [
        {
          "internalType": "address",
          "name": "_handler",
          "type": "address"
        },
        {
          "internalType": "bool",
          "name": "_isActive",
          "type": "bool"
        }
      ],
      "name": "setHandler",
      "outputs": [],
      "stateMutability": "nonpayable",
      "type": "function"
    },
    {
      "inputs": [
        {
          "internalType": "bool",
          "name": "_inPrivateTransferMode",
          "type": "bool"
        }
      ],
      "name": "setInPrivateTransferMode",
      "outputs": [],
      "stateMutability": "nonpayable",
      "type": "function"
    },
    {
      "inputs": [
        {
          "internalType": "string",
          "name": "_name",
          "type": "string"
        },
        {
          "internalType": "string",
          "name": "_symbol",
          "type": "string"
        }
      ],
      "name": "setInfo",
      "outputs": [],
      "stateMutability": "nonpayable",
      "type": "function"
    },
    {
      "inputs": [
        {
          "internalType": "address",
          "name": "_minter",
          "type": "address"
        }
      ],
      "name": "setMinter",
      "outputs": [],
      "stateMutability": "nonpayable",
      "type": "function"
    },
    {
      "inputs": [
        {
          "internalType": "address[]",
          "name": "_yieldTrackers",
          "type": "address[]"
        }
      ],
      "name": "setYieldTrackers",
      "outputs": [],
      "stateMutability": "nonpayable",
      "type": "function"
    },
    {
      "inputs": [
        {
          "internalType": "address",
          "name": "_account",
          "type": "address"
        }
      ],
      "name": "stakedBalance",
      "outputs": [
        {
          "internalType": "uint256",
          "name": "",
          "type": "uint256"
        }
      ],
      "stateMutability": "view",
      "type": "function"
    },
    {
      "inputs": [],
      "name": "symbol",
      "outputs": [
        {
          "internalType": "string",
          "name": "",
          "type": "string"
        }
      ],
      "stateMutability": "view",
      "type": "function"
    },
    {
      "inputs": [],
      "name": "totalStaked",
      "outputs": [
        {
          "internalType": "uint256",
          "name": "",
          "type": "uint256"
        }
      ],
      "stateMutability": "view",
      "type": "function"
    },
    {
      "inputs": [],
      "name": "totalSupply",
      "outputs": [
        {
          "internalType": "uint256",
          "name": "",
          "type": "uint256"
        }
      ],
      "stateMutability": "view",
      "type": "function"
    },
    {
      "inputs": [
        {
          "internalType": "address",
          "name": "_recipient",
          "type": "address"
        },
        {
          "internalType": "uint256",
          "name": "_amount",
          "type": "uint256"
        }
      ],
      "name": "transfer",
      "outputs": [
        {
          "internalType": "bool",
          "name": "",
          "type": "bool"
        }
      ],
      "stateMutability": "nonpayable",
      "type": "function"
    },
    {
      "inputs": [
        {
          "internalType": "address",
          "name": "_sender",
          "type": "address"
        },
        {
          "internalType": "address",
          "name": "_recipient",
          "type": "address"
        },
        {
          "internalType": "uint256",
          "name": "_amount",
          "type": "uint256"
        }
      ],
      "name": "transferFrom",
      "outputs": [
        {
          "internalType": "bool",
          "name": "",
          "type": "bool"
        }
      ],
      "stateMutability": "nonpayable",
      "type": "function"
    },
    {
      "inputs": [
        {
          "internalType": "address",
          "name": "_token",
          "type": "address"
        },
        {
          "internalType": "address",
          "name": "_account",
          "type": "address"
        },
        {
          "internalType": "uint256",
          "name": "_amount",
          "type": "uint256"
        }
      ],
      "name": "withdrawToken",
      "outputs": [],
      "stateMutability": "nonpayable",
      "type": "function"
    },
    {
      "inputs": [
        {
          "internalType": "uint256",
          "name": "",
          "type": "uint256"
        }
      ],
      "name": "yieldTrackers",
      "outputs": [
        {
          "internalType": "address",
          "name": "",
          "type": "address"
        }
      ],
      "stateMutability": "view",
      "type": "function"
    }
  ],
  "bytecode": "0x60806040523480156200001157600080fd5b506040516200268b3803806200268b833981810160405260608110156200003757600080fd5b81019080805160405193929190846401000000008211156200005857600080fd5b9083019060208201858111156200006e57600080fd5b82516401000000008111828201881017156200008957600080fd5b82525081516020918201929091019080838360005b83811015620000b85781810151838201526020016200009e565b50505050905090810190601f168015620000e65780820380516001836020036101000a031916815260200191505b50604052602001805160405193929190846401000000008211156200010a57600080fd5b9083019060208201858111156200012057600080fd5b82516401000000008111828201881017156200013b57600080fd5b82525081516020918201929091019080838360005b838110156200016a57818101518382015260200162000150565b50505050905090810190601f168015620001985780820380516001836020036101000a031916815260200191505b50604052602090810151855190935085925084918491620001c0916000919086019062000456565b508151620001d690600190602085019062000456565b50600480546001600160a01b03191633908117909155620001f890826200021f565b5050336000908152600c60205260409020805460ff1916600117905550620004f292505050565b6001600160a01b038216620002665760405162461bcd60e51b8152600401808060200182810382526023815260200180620026686023913960400191505060405180910390fd5b620002718262000355565b6200028d81600254620003f460201b6200142e1790919060201c565b6002556001600160a01b038216600090815260056020908152604090912054620002c29183906200142e620003f4821b17901c565b6001600160a01b03831660009081526005602090815260408083209390935560089052205460ff161562000310576200030c81600354620003f460201b6200142e1790919060201c565b6003555b6040805182815290516001600160a01b038416916000917fddf252ad1be2c89b69c2b068fc378daa952ba7f163c4a11628f55a4df523b3ef9181900360200190a35050565b60005b600754811015620003f0576000600782815481106200037357fe5b600091825260208220015460408051635fd6196560e01b81526001600160a01b03878116600483015291519190921693508392635fd61965926024808201939182900301818387803b158015620003c957600080fd5b505af1158015620003de573d6000803e3d6000fd5b50506001909301925062000358915050565b5050565b6000828201838110156200044f576040805162461bcd60e51b815260206004820152601b60248201527f536166654d6174683a206164646974696f6e206f766572666c6f770000000000604482015290519081900360640190fd5b9392505050565b828054600181600116156101000203166002900490600052602060002090601f016020900481019282601f106200049957805160ff1916838001178555620004c9565b82800160010185558215620004c9579182015b82811115620004c9578251825591602001919060010190620004ac565b50620004d7929150620004db565b5090565b5b80821115620004d75760008155600101620004dc565b61216680620005026000396000f3fe608060405234801561001057600080fd5b50600436106101ac5760003560e01c806301e33667146101b157806306fdde03146101e9578063095ea7b31461026657806312d43a51146102a65780631785f53c146102ca57806318160ddd146102f05780631e83409a1461030a57806323b872dd14610330578063276eab4e1461036657806327e235e314610407578063313ce5671461042d57806340c10f191461044b578063429b62e51461047757806346ea87af1461049d57806352cd38d9146104c357806355b6ed5c146104e05780635a47a1a71461050e578063602172671461052d5780636228907714610553578063704802751461057957806370a082311461059f578063817b1cd2146105c55780639554381a146105cd57806395d89b41146105f3578063996f11ee146105fb5780639cb7de4b146106295780639dc29fac14610657578063a9059cbb14610683578063a923fc40146106af578063aa271e1a146107d8578063c93be636146107fe578063cfad57a214610806578063dd62ed3e1461082c578063dfbaefb11461085a578063fb30d91614610862578063fca3b5aa14610888575b600080fd5b6101e7600480360360608110156101c757600080fd5b506001600160a01b038135811691602081013590911690604001356108ae565b005b6101f1610914565b6040805160208082528351818301528351919283929083019185019080838360005b8381101561022b578181015183820152602001610213565b50505050905090810190601f1680156102585780820380516001836020036101000a031916815260200191505b509250505060405180910390f35b6102926004803603604081101561027c57600080fd5b506001600160a01b0381351690602001356109a2565b604080519115158252519081900360200190f35b6102ae6109b8565b604080516001600160a01b039092168252519081900360200190f35b6101e7600480360360208110156102e057600080fd5b50356001600160a01b03166109c7565b6102f8610a35565b60408051918252519081900360200190f35b6101e76004803603602081101561032057600080fd5b50356001600160a01b0316610a3b565b6102926004803603606081101561034657600080fd5b506001600160a01b03813581169160208101359091169060400135610af2565b6101e76004803603602081101561037c57600080fd5b810190602081018135600160201b81111561039657600080fd5b8201836020820111156103a857600080fd5b803590602001918460208302840111600160201b831117156103c957600080fd5b919080806020026020016040519081016040528093929190818152602001838360200280828437600092019190915250929550610b8c945050505050565b6102f86004803603602081101561041d57600080fd5b50356001600160a01b0316610bec565b610435610bfe565b6040805160ff9092168252519081900360200190f35b6101e76004803603604081101561046157600080fd5b506001600160a01b038135169060200135610c03565b6102926004803603602081101561048d57600080fd5b50356001600160a01b0316610c70565b610292600480360360208110156104b357600080fd5b50356001600160a01b0316610c85565b6102ae600480360360208110156104d957600080fd5b5035610c9a565b6102f8600480360360408110156104f657600080fd5b506001600160a01b0381358116916020013516610cc1565b6101e76004803603602081101561052457600080fd5b50351515610cde565b6102f86004803603602081101561054357600080fd5b50356001600160a01b0316610d3e565b6101e76004803603602081101561056957600080fd5b50356001600160a01b0316610d87565b6101e76004803603602081101561058f57600080fd5b50356001600160a01b0316610e7a565b6102f8600480360360208110156105b557600080fd5b50356001600160a01b0316610eeb565b6102f8610f06565b610292600480360360208110156105e357600080fd5b50356001600160a01b0316610f24565b6101f1610f39565b6101e76004803603604081101561061157600080fd5b506001600160a01b0381358116916020013516610f93565b6101e76004803603604081101561063f57600080fd5b506001600160a01b038135169060200135151561109a565b6101e76004803603604081101561066d57600080fd5b506001600160a01b038135169060200135611112565b6102926004803603604081101561069957600080fd5b506001600160a01b03813516906020013561117f565b6101e7600480360360408110156106c557600080fd5b810190602081018135600160201b8111156106df57600080fd5b8201836020820111156106f157600080fd5b803590602001918460018302840111600160201b8311171561071257600080fd5b91908080601f0160208091040260200160405190810160405280939291908181526020018383808284376000920191909152509295949360208101935035915050600160201b81111561076457600080fd5b82018360208201111561077657600080fd5b803590602001918460018302840111600160201b8311171561079757600080fd5b91908080601f01602080910402602001604051908101604052809392919081815260200183838082843760009201919091525092955061118c945050505050565b610292600480360360208110156107ee57600080fd5b50356001600160a01b0316611200565b6102f8611215565b6101e76004803603602081101561081c57600080fd5b50356001600160a01b031661121b565b6102f86004803603604081101561084257600080fd5b506001600160a01b038135811691602001351661128a565b6102926112b5565b6101e76004803603602081101561087857600080fd5b50356001600160a01b03166112be565b6101e76004803603602081101561089e57600080fd5b50356001600160a01b03166113bd565b6004546001600160a01b031633146108fb576040805162461bcd60e51b81526020600482015260146024820152600080516020611fdf833981519152604482015290519081900360640190fd5b61090f6001600160a01b0384168383611486565b505050565b6000805460408051602060026001851615610100026000190190941693909304601f8101849004840282018401909252818152929183018282801561099a5780601f1061096f5761010080835404028352916020019161099a565b820191906000526020600020905b81548152906001019060200180831161097d57829003601f168201915b505050505081565b60006109af3384846114d8565b50600192915050565b6004546001600160a01b031681565b6004546001600160a01b03163314610a14576040805162461bcd60e51b81526020600482015260146024820152600080516020611fdf833981519152604482015290519081900360640190fd5b6001600160a01b03166000908152600960205260409020805460ff19169055565b60025481565b60005b600754811015610aee57600060078281548110610a5757fe5b6000918252602080832090910154604080516310e059a160e11b81523360048201526001600160a01b038881166024830152915191909216945084936321c0b34293604480850194919392918390030190829087803b158015610ab957600080fd5b505af1158015610acd573d6000803e3d6000fd5b505050506040513d6020811015610ae357600080fd5b505050600101610a3e565b5050565b336000908152600b602052604081205460ff1615610b1d57610b158484846115c4565b506001610b85565b6000610b67836040518060600160405280602c8152602001611f8d602c91396001600160a01b038816600090815260066020908152604080832033845290915290205491906117da565b9050610b748533836114d8565b610b7f8585856115c4565b60019150505b9392505050565b6004546001600160a01b03163314610bd9576040805162461bcd60e51b81526020600482015260146024820152600080516020611fdf833981519152604482015290519081900360640190fd5b8051610aee906007906020840190611de4565b60056020526000908152604090205481565b601281565b336000908152600c602052604090205460ff16610c66576040805162461bcd60e51b815260206004820152601c60248201527b26b4b73a30b13632a130b9b2aa37b5b2b71d103337b93134b23232b760211b604482015290519081900360640190fd5b610aee8282611871565b60096020526000908152604090205460ff1681565b600b6020526000908152604090205460ff1681565b60078181548110610ca757fe5b6000918252602090912001546001600160a01b0316905081565b600660209081526000928352604080842090915290825290205481565b6004546001600160a01b03163314610d2b576040805162461bcd60e51b81526020600482015260146024820152600080516020611fdf833981519152604482015290519081900360640190fd5b600a805460ff1916911515919091179055565b6001600160a01b03811660009081526008602052604081205460ff1615610d6757506000610d82565b506001600160a01b0381166000908152600560205260409020545b919050565b3360009081526009602052604090205460ff16610dd9576040805162461bcd60e51b81526020600482015260146024820152600080516020611fdf833981519152604482015290519081900360640190fd5b6001600160a01b03811660009081526008602052604090205460ff1615610e315760405162461bcd60e51b81526004018080602001828103825260228152602001806120716022913960400191505060405180910390fd5b610e3a81611963565b6001600160a01b0381166000908152600860209081526040808320805460ff191660011790556005909152902054600354610e749161142e565b60035550565b6004546001600160a01b03163314610ec7576040805162461bcd60e51b81526020600482015260146024820152600080516020611fdf833981519152604482015290519081900360640190fd5b6001600160a01b03166000908152600960205260409020805460ff19166001179055565b6001600160a01b031660009081526005602052604090205490565b6000610f1f6003546002546119f990919063ffffffff16565b905090565b60086020526000908152604090205460ff1681565b60018054604080516020600284861615610100026000190190941693909304601f8101849004840282018401909252818152929183018282801561099a5780601f1061096f5761010080835404028352916020019161099a565b3360009081526009602052604090205460ff16610fe5576040805162461bcd60e51b81526020600482015260146024820152600080516020611fdf833981519152604482015290519081900360640190fd5b60005b60075481101561090f5760006007828154811061100157fe5b6000918252602080832090910154604080516310e059a160e11b81526001600160a01b0389811660048301528881166024830152915191909216945084936321c0b34293604480850194919392918390030190829087803b15801561106557600080fd5b505af1158015611079573d6000803e3d6000fd5b505050506040513d602081101561108f57600080fd5b505050600101610fe8565b6004546001600160a01b031633146110e7576040805162461bcd60e51b81526020600482015260146024820152600080516020611fdf833981519152604482015290519081900360640190fd5b6001600160a01b03919091166000908152600b60205260409020805460ff1916911515919091179055565b336000908152600c602052604090205460ff16611175576040805162461bcd60e51b815260206004820152601c60248201527b26b4b73a30b13632a130b9b2aa37b5b2b71d103337b93134b23232b760211b604482015290519081900360640190fd5b610aee8282611a3b565b60006109af3384846115c4565b6004546001600160a01b031633146111d9576040805162461bcd60e51b81526020600482015260146024820152600080516020611fdf833981519152604482015290519081900360640190fd5b81516111ec906000906020850190611e49565b50805161090f906001906020840190611e49565b600c6020526000908152604090205460ff1681565b60035481565b6004546001600160a01b03163314611268576040805162461bcd60e51b81526020600482015260146024820152600080516020611fdf833981519152604482015290519081900360640190fd5b600480546001600160a01b0319166001600160a01b0392909216919091179055565b6001600160a01b03918216600090815260066020908152604080832093909416825291909152205490565b600a5460ff1681565b3360009081526009602052604090205460ff16611310576040805162461bcd60e51b81526020600482015260146024820152600080516020611fdf833981519152604482015290519081900360640190fd5b6001600160a01b03811660009081526008602052604090205460ff1661137d576040805162461bcd60e51b815260206004820152601e60248201527f42617365546f6b656e3a205f6163636f756e74206e6f74206d61726b65640000604482015290519081900360640190fd5b61138681611963565b6001600160a01b0381166000908152600860209081526040808320805460ff191690556005909152902054600354610e74916119f9565b6004546001600160a01b0316331461140a576040805162461bcd60e51b81526020600482015260146024820152600080516020611fdf833981519152604482015290519081900360640190fd5b6001600160a01b03166000908152600c60205260409020805460ff19166001179055565b600082820183811015610b85576040805162461bcd60e51b815260206004820152601b60248201527a536166654d6174683a206164646974696f6e206f766572666c6f7760281b604482015290519081900360640190fd5b604080516001600160a01b038416602482015260448082018490528251808303909101815260649091019091526020810180516001600160e01b031663a9059cbb60e01b17905261090f908490611b54565b6001600160a01b03831661151d5760405162461bcd60e51b8152600401808060200182810382526028815260200180611fff6028913960400191505060405180910390fd5b6001600160a01b0382166115625760405162461bcd60e51b8152600401808060200182810382526026815260200180611f676026913960400191505060405180910390fd5b6001600160a01b03808416600081815260066020908152604080832094871680845294825291829020859055815185815291517f8c5be1e5ebec7d5bd14f71427d1e84f3dd0314c0f7b2291e5b200ac8c7c3b9259281900390910190a3505050565b6001600160a01b0383166116095760405162461bcd60e51b81526004018080602001828103825260298152602001806121086029913960400191505060405180910390fd5b6001600160a01b03821661164e5760405162461bcd60e51b8152600401808060200182810382526027815260200180611f1d6027913960400191505060405180910390fd5b600a5460ff16156116a757336000908152600b602052604090205460ff166116a75760405162461bcd60e51b8152600401808060200182810382526025815260200180611ef86025913960400191505060405180910390fd5b6116b083611963565b6116b982611963565b6116f6816040518060600160405280602a8152602001612027602a91396001600160a01b03861660009081526005602052604090205491906117da565b6001600160a01b038085166000908152600560205260408082209390935590841681522054611725908261142e565b6001600160a01b0380841660009081526005602090815260408083209490945591861681526008909152205460ff161561176a5760035461176690826119f9565b6003555b6001600160a01b03821660009081526008602052604090205460ff161561179c57600354611798908261142e565b6003555b816001600160a01b0316836001600160a01b0316600080516020612051833981519152836040518082815260200191505060405180910390a3505050565b600081848411156118695760405162461bcd60e51b81526004018080602001828103825283818151815260200191508051906020019080838360005b8381101561182e578181015183820152602001611816565b50505050905090810190601f16801561185b5780820380516001836020036101000a031916815260200191505b509250505060405180910390fd5b505050900390565b6001600160a01b0382166118b65760405162461bcd60e51b8152600401808060200182810382526023815260200180611f446023913960400191505060405180910390fd5b6118bf82611963565b6002546118cc908261142e565b6002556001600160a01b0382166000908152600560205260409020546118f2908261142e565b6001600160a01b03831660009081526005602090815260408083209390935560089052205460ff16156119305760035461192c908261142e565b6003555b6040805182815290516001600160a01b038416916000916000805160206120518339815191529181900360200190a35050565b60005b600754811015610aee5760006007828154811061197f57fe5b600091825260208220015460408051635fd6196560e01b81526001600160a01b03878116600483015291519190921693508392635fd61965926024808201939182900301818387803b1580156119d457600080fd5b505af11580156119e8573d6000803e3d6000fd5b505060019093019250611966915050565b6000610b8583836040518060400160405280601e81526020017f536166654d6174683a207375627472616374696f6e206f766572666c6f7700008152506117da565b6001600160a01b038216611a805760405162461bcd60e51b81526004018080602001828103825260258152602001806120e36025913960400191505060405180910390fd5b611a8982611963565b611ac681604051806060016040528060268152602001612093602691396001600160a01b03851660009081526005602052604090205491906117da565b6001600160a01b038316600090815260056020526040902055600254611aec90826119f9565b6002556001600160a01b03821660009081526008602052604090205460ff1615611b2157600354611b1d90826119f9565b6003555b6040805182815290516000916001600160a01b038516916000805160206120518339815191529181900360200190a35050565b6060611ba9826040518060400160405280602081526020017f5361666545524332303a206c6f772d6c6576656c2063616c6c206661696c6564815250856001600160a01b0316611c059092919063ffffffff16565b80519091501561090f57808060200190516020811015611bc857600080fd5b505161090f5760405162461bcd60e51b815260040180806020018281038252602a8152602001806120b9602a913960400191505060405180910390fd5b6060611c148484600085611c1c565b949350505050565b606082471015611c5d5760405162461bcd60e51b8152600401808060200182810382526026815260200180611fb96026913960400191505060405180910390fd5b611c6685611d78565b611cb7576040805162461bcd60e51b815260206004820152601d60248201527f416464726573733a2063616c6c20746f206e6f6e2d636f6e7472616374000000604482015290519081900360640190fd5b60006060866001600160a01b031685876040518082805190602001908083835b60208310611cf65780518252601f199092019160209182019101611cd7565b6001836020036101000a03801982511681845116808217855250505050505090500191505060006040518083038185875af1925050503d8060008114611d58576040519150601f19603f3d011682016040523d82523d6000602084013e611d5d565b606091505b5091509150611d6d828286611d7e565b979650505050505050565b3b151590565b60608315611d8d575081610b85565b825115611d9d5782518084602001fd5b60405162461bcd60e51b815260206004820181815284516024840152845185939192839260440191908501908083836000831561182e578181015183820152602001611816565b828054828255906000526020600020908101928215611e39579160200282015b82811115611e3957825182546001600160a01b0319166001600160a01b03909116178255602090920191600190910190611e04565b50611e45929150611ec3565b5090565b828054600181600116156101000203166002900490600052602060002090601f016020900481019282601f10611e8a57805160ff1916838001178555611eb7565b82800160010185558215611eb7579182015b82811115611eb7578251825591602001919060010190611e9c565b50611e45929150611ee2565b5b80821115611e455780546001600160a01b0319168155600101611ec4565b5b80821115611e455760008155600101611ee356fe42617365546f6b656e3a206d73672e73656e646572206e6f742077686974656c697374656442617365546f6b656e3a207472616e7366657220746f20746865207a65726f206164647265737342617365546f6b656e3a206d696e7420746f20746865207a65726f206164647265737342617365546f6b656e3a20617070726f766520746f20746865207a65726f206164647265737342617365546f6b656e3a207472616e7366657220616d6f756e74206578636565647320616c6c6f77616e6365416464726573733a20696e73756666696369656e742062616c616e636520666f722063616c6c42617365546f6b656e3a20666f7262696464656e00000000000000000000000042617365546f6b656e3a20617070726f76652066726f6d20746865207a65726f206164647265737342617365546f6b656e3a207472616e7366657220616d6f756e7420657863656564732062616c616e6365ddf252ad1be2c89b69c2b068fc378daa952ba7f163c4a11628f55a4df523b3ef42617365546f6b656e3a205f6163636f756e7420616c7265616479206d61726b656442617365546f6b656e3a206275726e20616d6f756e7420657863656564732062616c616e63655361666545524332303a204552433230206f7065726174696f6e20646964206e6f74207375636365656442617365546f6b656e3a206275726e2066726f6d20746865207a65726f206164647265737342617365546f6b656e3a207472616e736665722066726f6d20746865207a65726f2061646472657373a26469706673582212202f57dd97d87de0c2431365dbb040079ae1860c3438f0a6b7514cbfac792328b064736f6c634300060c003342617365546f6b656e3a206d696e7420746f20746865207a65726f2061646472657373",
  "linkReferences": {},
  "deployedLinkReferences": {}
}