{
  "_format": "hh-sol-artifact-1",
  "contractName": "RewardRouterV2",
  "sourceName": "contracts/staking/RewardRouterV2.sol",
  "abi": [
    {
      "anonymous": false,
      "inputs": [
        {
          "indexed": false,
          "internalType": "address",
          "name": "account",
          "type": "address"
        },
        {
          "indexed": false,
          "internalType": "address",
          "name": "token",
          "type": "address"
        },
        {
          "indexed": false,
          "internalType": "uint256",
          "name": "amount",
          "type": "uint256"
        }
      ],
      "name": "StakeXDX",
      "type": "event"
    },
    {
      "anonymous": false,
      "inputs": [
        {
          "indexed": false,
          "internalType": "address",
          "name": "account",
          "type": "address"
        },
        {
          "indexed": false,
          "internalType": "uint256",
          "name": "amount",
          "type": "uint256"
        }
      ],
      "name": "StakeXLX",
      "type": "event"
    },
    {
      "anonymous": false,
      "inputs": [
        {
          "indexed": false,
          "internalType": "address",
          "name": "account",
          "type": "address"
        },
        {
          "indexed": false,
          "internalType": "address",
          "name": "token",
          "type": "address"
        },
        {
          "indexed": false,
          "internalType": "uint256",
          "name": "amount",
          "type": "uint256"
        }
      ],
      "name": "UnstakeXDX",
      "type": "event"
    },
    {
      "anonymous": false,
      "inputs": [
        {
          "indexed": false,
          "internalType": "address",
          "name": "account",
          "type": "address"
        },
        {
          "indexed": false,
          "internalType": "uint256",
          "name": "amount",
          "type": "uint256"
        }
      ],
      "name": "UnstakeXLX",
      "type": "event"
    },
    {
      "inputs": [
        {
          "internalType": "address",
          "name": "_sender",
          "type": "address"
        }
      ],
      "name": "acceptTransfer",
      "outputs": [],
      "stateMutability": "nonpayable",
      "type": "function"
    },
    {
      "inputs": [
        {
          "internalType": "address[]",
          "name": "_accounts",
          "type": "address[]"
        }
      ],
      "name": "batchCompoundForAccounts",
      "outputs": [],
      "stateMutability": "nonpayable",
      "type": "function"
    },
    {
      "inputs": [
        {
          "internalType": "address[]",
          "name": "_accounts",
          "type": "address[]"
        },
        {
          "internalType": "uint256[]",
          "name": "_amounts",
          "type": "uint256[]"
        }
      ],
      "name": "batchStakeXDXForAccount",
      "outputs": [],
      "stateMutability": "nonpayable",
      "type": "function"
    },
    {
      "inputs": [],
      "name": "bnXDX",
      "outputs": [
        {
          "internalType": "address",
          "name": "",
          "type": "address"
        }
      ],
      "stateMutability": "view",
      "type": "function"
    },
    {
      "inputs": [],
      "name": "bonusXDXTracker",
      "outputs": [
        {
          "internalType": "address",
          "name": "",
          "type": "address"
        }
      ],
      "stateMutability": "view",
      "type": "function"
    },
    {
      "inputs": [],
      "name": "claim",
      "outputs": [],
      "stateMutability": "nonpayable",
      "type": "function"
    },
    {
      "inputs": [],
      "name": "claimEsXDX",
      "outputs": [],
      "stateMutability": "nonpayable",
      "type": "function"
    },
    {
      "inputs": [],
      "name": "claimFees",
      "outputs": [],
      "stateMutability": "nonpayable",
      "type": "function"
    },
    {
      "inputs": [],
      "name": "compound",
      "outputs": [],
      "stateMutability": "nonpayable",
      "type": "function"
    },
    {
      "inputs": [
        {
          "internalType": "address",
          "name": "_account",
          "type": "address"
        }
      ],
      "name": "compoundForAccount",
      "outputs": [],
      "stateMutability": "nonpayable",
      "type": "function"
    },
    {
      "inputs": [],
      "name": "esXDX",
      "outputs": [
        {
          "internalType": "address",
          "name": "",
          "type": "address"
        }
      ],
      "stateMutability": "view",
      "type": "function"
    },
    {
      "inputs": [],
      "name": "feeXDXTracker",
      "outputs": [
        {
          "internalType": "address",
          "name": "",
          "type": "address"
        }
      ],
      "stateMutability": "view",
      "type": "function"
    },
    {
      "inputs": [],
      "name": "feeXLXTracker",
      "outputs": [
        {
          "internalType": "address",
          "name": "",
          "type": "address"
        }
      ],
      "stateMutability": "view",
      "type": "function"
    },
    {
      "inputs": [],
      "name": "gov",
      "outputs": [
        {
          "internalType": "address",
          "name": "",
          "type": "address"
        }
      ],
      "stateMutability": "view",
      "type": "function"
    },
    {
      "inputs": [
        {
          "internalType": "bool",
          "name": "_shouldClaimXDX",
          "type": "bool"
        },
        {
          "internalType": "bool",
          "name": "_shouldStakeXDX",
          "type": "bool"
        },
        {
          "internalType": "bool",
          "name": "_shouldClaimEsXDX",
          "type": "bool"
        },
        {
          "internalType": "bool",
          "name": "_shouldStakeEsXDX",
          "type": "bool"
        },
        {
          "internalType": "bool",
          "name": "_shouldStakeMultiplierPoints",
          "type": "bool"
        },
        {
          "internalType": "bool",
          "name": "_shouldClaimWeth",
          "type": "bool"
        },
        {
          "internalType": "bool",
          "name": "_shouldConvertWethToEth",
          "type": "bool"
        }
      ],
      "name": "handleRewards",
      "outputs": [],
      "stateMutability": "nonpayable",
      "type": "function"
    },
    {
      "inputs": [
        {
          "internalType": "address",
          "name": "_weth",
          "type": "address"
        },
        {
          "internalType": "address",
          "name": "_xdx",
          "type": "address"
        },
        {
          "internalType": "address",
          "name": "_esXDX",
          "type": "address"
        },
        {
          "internalType": "address",
          "name": "_bnXDX",
          "type": "address"
        },
        {
          "internalType": "address",
          "name": "_xlx",
          "type": "address"
        },
        {
          "internalType": "address",
          "name": "_stakedXDXTracker",
          "type": "address"
        },
        {
          "internalType": "address",
          "name": "_bonusXDXTracker",
          "type": "address"
        },
        {
          "internalType": "address",
          "name": "_feeXDXTracker",
          "type": "address"
        },
        {
          "internalType": "address",
          "name": "_feeXLXTracker",
          "type": "address"
        },
        {
          "internalType": "address",
          "name": "_stakedXLXTracker",
          "type": "address"
        },
        {
          "internalType": "address",
          "name": "_xlxManager",
          "type": "address"
        },
        {
          "internalType": "address",
          "name": "_xdxVester",
          "type": "address"
        },
        {
          "internalType": "address",
          "name": "_xlxVester",
          "type": "address"
        }
      ],
      "name": "initialize",
      "outputs": [],
      "stateMutability": "nonpayable",
      "type": "function"
    },
    {
      "inputs": [],
      "name": "isInitialized",
      "outputs": [
        {
          "internalType": "bool",
          "name": "",
          "type": "bool"
        }
      ],
      "stateMutability": "view",
      "type": "function"
    },
    {
      "inputs": [
        {
          "internalType": "address",
          "name": "_token",
          "type": "address"
        },
        {
          "internalType": "uint256",
          "name": "_amount",
          "type": "uint256"
        },
        {
          "internalType": "uint256",
          "name": "_minUsdg",
          "type": "uint256"
        },
        {
          "internalType": "uint256",
          "name": "_minXLX",
          "type": "uint256"
        }
      ],
      "name": "mintAndStakeXLX",
      "outputs": [
        {
          "internalType": "uint256",
          "name": "",
          "type": "uint256"
        }
      ],
      "stateMutability": "nonpayable",
      "type": "function"
    },
    {
      "inputs": [
        {
          "internalType": "uint256",
          "name": "_minUsdg",
          "type": "uint256"
        },
        {
          "internalType": "uint256",
          "name": "_minXLX",
          "type": "uint256"
        }
      ],
      "name": "mintAndStakeXLXETH",
      "outputs": [
        {
          "internalType": "uint256",
          "name": "",
          "type": "uint256"
        }
      ],
      "stateMutability": "payable",
      "type": "function"
    },
    {
      "inputs": [
        {
          "internalType": "address",
          "name": "",
          "type": "address"
        }
      ],
      "name": "pendingReceivers",
      "outputs": [
        {
          "internalType": "address",
          "name": "",
          "type": "address"
        }
      ],
      "stateMutability": "view",
      "type": "function"
    },
    {
      "inputs": [
        {
          "internalType": "address",
          "name": "_gov",
          "type": "address"
        }
      ],
      "name": "setGov",
      "outputs": [],
      "stateMutability": "nonpayable",
      "type": "function"
    },
    {
      "inputs": [
        {
          "internalType": "address",
          "name": "_receiver",
          "type": "address"
        }
      ],
      "name": "signalTransfer",
      "outputs": [],
      "stateMutability": "nonpayable",
      "type": "function"
    },
    {
      "inputs": [
        {
          "internalType": "uint256",
          "name": "_amount",
          "type": "uint256"
        }
      ],
      "name": "stakeEsXDX",
      "outputs": [],
      "stateMutability": "nonpayable",
      "type": "function"
    },
    {
      "inputs": [
        {
          "internalType": "uint256",
          "name": "_amount",
          "type": "uint256"
        }
      ],
      "name": "stakeXDX",
      "outputs": [],
      "stateMutability": "nonpayable",
      "type": "function"
    },
    {
      "inputs": [
        {
          "internalType": "address",
          "name": "_account",
          "type": "address"
        },
        {
          "internalType": "uint256",
          "name": "_amount",
          "type": "uint256"
        }
      ],
      "name": "stakeXDXForAccount",
      "outputs": [],
      "stateMutability": "nonpayable",
      "type": "function"
    },
    {
      "inputs": [],
      "name": "stakedXDXTracker",
      "outputs": [
        {
          "internalType": "address",
          "name": "",
          "type": "address"
        }
      ],
      "stateMutability": "view",
      "type": "function"
    },
    {
      "inputs": [],
      "name": "stakedXLXTracker",
      "outputs": [
        {
          "internalType": "address",
          "name": "",
          "type": "address"
        }
      ],
      "stateMutability": "view",
      "type": "function"
    },
    {
      "inputs": [
        {
          "internalType": "address",
          "name": "_tokenOut",
          "type": "address"
        },
        {
          "internalType": "uint256",
          "name": "_xlxAmount",
          "type": "uint256"
        },
        {
          "internalType": "uint256",
          "name": "_minOut",
          "type": "uint256"
        },
        {
          "internalType": "address",
          "name": "_receiver",
          "type": "address"
        }
      ],
      "name": "unstakeAndRedeemXLX",
      "outputs": [
        {
          "internalType": "uint256",
          "name": "",
          "type": "uint256"
        }
      ],
      "stateMutability": "nonpayable",
      "type": "function"
    },
    {
      "inputs": [
        {
          "internalType": "uint256",
          "name": "_xlxAmount",
          "type": "uint256"
        },
        {
          "internalType": "uint256",
          "name": "_minOut",
          "type": "uint256"
        },
        {
          "internalType": "address payable",
          "name": "_receiver",
          "type": "address"
        }
      ],
      "name": "unstakeAndRedeemXLXETH",
      "outputs": [
        {
          "internalType": "uint256",
          "name": "",
          "type": "uint256"
        }
      ],
      "stateMutability": "nonpayable",
      "type": "function"
    },
    {
      "inputs": [
        {
          "internalType": "uint256",
          "name": "_amount",
          "type": "uint256"
        }
      ],
      "name": "unstakeEsXDX",
      "outputs": [],
      "stateMutability": "nonpayable",
      "type": "function"
    },
    {
      "inputs": [
        {
          "internalType": "uint256",
          "name": "_amount",
          "type": "uint256"
        }
      ],
      "name": "unstakeXDX",
      "outputs": [],
      "stateMutability": "nonpayable",
      "type": "function"
    },
    {
      "inputs": [],
      "name": "weth",
      "outputs": [
        {
          "internalType": "address",
          "name": "",
          "type": "address"
        }
      ],
      "stateMutability": "view",
      "type": "function"
    },
    {
      "inputs": [
        {
          "internalType": "address",
          "name": "_token",
          "type": "address"
        },
        {
          "internalType": "address",
          "name": "_account",
          "type": "address"
        },
        {
          "internalType": "uint256",
          "name": "_amount",
          "type": "uint256"
        }
      ],
      "name": "withdrawToken",
      "outputs": [],
      "stateMutability": "nonpayable",
      "type": "function"
    },
    {
      "inputs": [],
      "name": "xdx",
      "outputs": [
        {
          "internalType": "address",
          "name": "",
          "type": "address"
        }
      ],
      "stateMutability": "view",
      "type": "function"
    },
    {
      "inputs": [],
      "name": "xdxVester",
      "outputs": [
        {
          "internalType": "address",
          "name": "",
          "type": "address"
        }
      ],
      "stateMutability": "view",
      "type": "function"
    },
    {
      "inputs": [],
      "name": "xlx",
      "outputs": [
        {
          "internalType": "address",
          "name": "",
          "type": "address"
        }
      ],
      "stateMutability": "view",
      "type": "function"
    },
    {
      "inputs": [],
      "name": "xlxManager",
      "outputs": [
        {
          "internalType": "address",
          "name": "",
          "type": "address"
        }
      ],
      "stateMutability": "view",
      "type": "function"
    },
    {
      "inputs": [],
      "name": "xlxVester",
      "outputs": [
        {
          "internalType": "address",
          "name": "",
          "type": "address"
        }
      ],
      "stateMutability": "view",
      "type": "function"
    },
    {
      "stateMutability": "payable",
      "type": "receive"
    }
  ],
  "bytecode": "0x608060405234801561001057600080fd5b506001600081905580546001600160a01b031916331790556153a4806100376000396000f3fe6080604052600436106101b95760003560e01c806301d7073d1461021d57806301e336671461024e57806312d43a51146102915780631af276a6146102a65780632187a3f31461035457806324d03993146103695780632a9f4083146103935780632c493842146103c65780632fdd983d1461041757806330b70002146104b2578063392e53cd1461050e5780633fc8cef314610537578063416200df1461054c5780634a99c366146105615780634b0181d2146105a65780634e71d92d146105d057806353a18057146105e5578063540f36681461060f57806363efdf38146106245780636498819014610639578063655603a41461064e57806365e7106614610681578063671e18c6146106a45780636cc83955146107d4578063700522f8146107e9578063818b2713146108305780638d65485014610845578063a339d1931461086f578063bd08154314610884578063cfad57a214610899578063d294f093146108cc578063dbaf181c146108e1578063e1b9db891461091a578063e6bf7dc51461094d578063ee0f7f1c14610962578063ef9aacfd14610977578063f69e2046146109aa578063fbc3e6f2146109bf57610218565b36610218576002546001600160a01b03163314610216576040805162461bcd60e51b81526020600482015260166024820152752937baba32b91d1034b73b30b634b21039b2b73232b960511b604482015290519081900360640190fd5b005b600080fd5b34801561022957600080fd5b506102326109d4565b604080516001600160a01b039092168252519081900360200190f35b34801561025a57600080fd5b506102166004803603606081101561027157600080fd5b506001600160a01b038135811691602081013590911690604001356109e3565b34801561029d57600080fd5b50610232610a49565b3480156102b257600080fd5b50610216600480360360208110156102c957600080fd5b810190602081018135600160201b8111156102e357600080fd5b8201836020820111156102f557600080fd5b803590602001918460208302840111600160201b8311171561031657600080fd5b919080806020026020016040519081016040528093929190818152602001838360200280828437600092019190915250929550610a58945050505050565b34801561036057600080fd5b50610232610b29565b34801561037557600080fd5b506102166004803603602081101561038c57600080fd5b5035610b38565b34801561039f57600080fd5b50610216600480360360208110156103b657600080fd5b50356001600160a01b0316610ba5565b3480156103d257600080fd5b50610405600480360360608110156103e957600080fd5b50803590602081013590604001356001600160a01b0316610c46565b60408051918252519081900360200190f35b34801561042357600080fd5b5061021660048036036101a081101561043b57600080fd5b506001600160a01b038135811691602081013582169160408201358116916060810135821691608082013581169160a081013582169160c082013581169160e08101358216916101008201358116916101208101358216916101408201358116916101608101358216916101809091013516610f2f565b3480156104be57600080fd5b50610216600480360360e08110156104d557600080fd5b508035151590602081013515159060408101351515906060810135151590608081013515159060a081013515159060c0013515156110bc565b34801561051a57600080fd5b5061052361177e565b604080519115158252519081900360200190f35b34801561054357600080fd5b5061023261178e565b34801561055857600080fd5b5061021661179d565b34801561056d57600080fd5b506104056004803603608081101561058457600080fd5b506001600160a01b0381351690602081013590604081013590606001356118f8565b3480156105b257600080fd5b50610216600480360360208110156105c957600080fd5b5035611b66565b3480156105dc57600080fd5b50610216611bcb565b3480156105f157600080fd5b506102166004803603602081101561060857600080fd5b5035611d74565b34801561061b57600080fd5b50610232611dd9565b34801561063057600080fd5b50610232611de8565b34801561064557600080fd5b50610232611df7565b34801561065a57600080fd5b506102166004803603602081101561067157600080fd5b50356001600160a01b0316611e06565b6104056004803603604081101561069757600080fd5b508035906020013561280f565b3480156106b057600080fd5b50610216600480360360408110156106c757600080fd5b810190602081018135600160201b8111156106e157600080fd5b8201836020820111156106f357600080fd5b803590602001918460208302840111600160201b8311171561071457600080fd5b9190808060200260200160405190810160405280939291908181526020018383602002808284376000920191909152509295949360208101935035915050600160201b81111561076357600080fd5b82018360208201111561077557600080fd5b803590602001918460208302840111600160201b8311171561079657600080fd5b919080806020026020016040519081016040528093929190818152602001838360200280828437600092019190915250929550612b7a945050505050565b3480156107e057600080fd5b50610232612c6f565b3480156107f557600080fd5b506104056004803603608081101561080c57600080fd5b506001600160a01b0381358116916020810135916040820135916060013516612c7e565b34801561083c57600080fd5b50610232612eee565b34801561085157600080fd5b506102166004803603602081101561086857600080fd5b5035612efd565b34801561087b57600080fd5b50610232612f62565b34801561089057600080fd5b50610232612f71565b3480156108a557600080fd5b50610216600480360360208110156108bc57600080fd5b50356001600160a01b0316612f80565b3480156108d857600080fd5b50610216612fef565b3480156108ed57600080fd5b506102166004803603604081101561090457600080fd5b506001600160a01b038135169060200135613116565b34801561092657600080fd5b506102326004803603602081101561093d57600080fd5b50356001600160a01b03166131c8565b34801561095957600080fd5b506102326131e3565b34801561096e57600080fd5b506102326131f2565b34801561098357600080fd5b506102166004803603602081101561099a57600080fd5b50356001600160a01b0316613201565b3480156109b657600080fd5b506102166133ef565b3480156109cb57600080fd5b5061023261344a565b6007546001600160a01b031681565b6001546001600160a01b03163314610a30576040805162461bcd60e51b81526020600482015260156024820152600080516020614f88833981519152604482015290519081900360640190fd5b610a446001600160a01b0384168383613459565b505050565b6001546001600160a01b031681565b60026000541415610a9e576040805162461bcd60e51b815260206004820152601f6024820152600080516020614f0b833981519152604482015290519081900360640190fd5b60026000556001546001600160a01b03163314610af0576040805162461bcd60e51b81526020600482015260156024820152600080516020614f88833981519152604482015290519081900360640190fd5b60005b8151811015610b2057610b18828281518110610b0b57fe5b60200260200101516134ab565b600101610af3565b50506001600055565b600d546001600160a01b031681565b60026000541415610b7e576040805162461bcd60e51b815260206004820152601f6024820152600080516020614f0b833981519152604482015290519081900360640190fd5b6002600055600354610b9d90339081906001600160a01b0316846134c0565b506001600055565b60026000541415610beb576040805162461bcd60e51b815260206004820152601f6024820152600080516020614f0b833981519152604482015290519081900360640190fd5b60026000556001546001600160a01b03163314610c3d576040805162461bcd60e51b81526020600482015260156024820152600080516020614f88833981519152604482015290519081900360640190fd5b610b9d816134ab565b600060026000541415610c8e576040805162461bcd60e51b815260206004820152601f6024820152600080516020614f0b833981519152604482015290519081900360640190fd5b600260005583610cd3576040805162461bcd60e51b8152602060048201819052602482015260008051602061532f833981519152604482015290519081900360640190fd5b600a54600b546040805163098bf59d60e01b815233600482018190526001600160a01b039384166024830152604482018990526064820181905291519193929092169163098bf59d91608480830192600092919082900301818387803b158015610d3c57600080fd5b505af1158015610d50573d6000803e3d6000fd5b5050600b546006546040805163098bf59d60e01b81526001600160a01b03878116600483018190529381166024830152604482018c90526064820193909352905191909216935063098bf59d9250608480830192600092919082900301818387803b158015610dbe57600080fd5b505af1158015610dd2573d6000803e3d6000fd5b5050600c54600254604080516371d597ad60e01b81526001600160a01b0387811660048301529283166024820152604481018b9052606481018a90523060848201529051600095509190921692506371d597ad9160a48082019260209290919082900301818787803b158015610e4757600080fd5b505af1158015610e5b573d6000803e3d6000fd5b505050506040513d6020811015610e7157600080fd5b505160025460408051632e1a7d4d60e01b81526004810184905290519293506001600160a01b0390911691632e1a7d4d9160248082019260009290919082900301818387803b158015610ec357600080fd5b505af1158015610ed7573d6000803e3d6000fd5b50610eef925050506001600160a01b038516826136cf565b604080516001600160a01b0384168152602081018890528151600080516020615291833981519152929181900390910190a1600160005595945050505050565b6001546001600160a01b03163314610f7c576040805162461bcd60e51b81526020600482015260156024820152600080516020614f88833981519152604482015290519081900360640190fd5b600154600160a01b900460ff1615610fc55760405162461bcd60e51b815260040180806020018281038252602181526020018061507c6021913960400191505060405180910390fd5b6001805460ff60a01b1916600160a01b179055600280546001600160a01b039e8f166001600160a01b031991821617909155600380549d8f169d82169d909d17909c55600480549b8e169b8d169b909b17909a5560058054998d16998c169990991790985560068054978c16978b169790971790965560078054958b16958a169590951790945560088054938a169389169390931790925560098054918916918816919091179055600b8054918816918716919091179055600a8054918716918616919091179055600c8054918616918516919091179055600d8054918516918416919091179055600e8054919093169116179055565b60026000541415611102576040805162461bcd60e51b815260206004820152601f6024820152600080516020614f0b833981519152604482015290519081900360640190fd5b600260009081553390881561122e57600d54604080516309f4173d60e11b81526001600160a01b03858116600483018190526024830152915160009392909216916313e82e7a9160448082019260209290919082900301818787803b15801561116a57600080fd5b505af115801561117e573d6000803e3d6000fd5b505050506040513d602081101561119457600080fd5b5051600e54604080516309f4173d60e11b81526001600160a01b03878116600483018190526024830152915193945060009391909216916313e82e7a91604480830192602092919082900301818787803b1580156111f157600080fd5b505af1158015611205573d6000803e3d6000fd5b505050506040513d602081101561121b57600080fd5b5051905061122982826137b4565b925050505b87801561123b5750600081115b1561125a5760035461125a90839081906001600160a01b0316846134c0565b6000871561137f57600754604080516309f4173d60e11b81526001600160a01b03868116600483018190526024830152915160009392909216916313e82e7a9160448082019260209290919082900301818787803b1580156112bb57600080fd5b505af11580156112cf573d6000803e3d6000fd5b505050506040513d60208110156112e557600080fd5b5051600a54604080516309f4173d60e11b81526001600160a01b03888116600483018190526024830152915193945060009391909216916313e82e7a91604480830192602092919082900301818787803b15801561134257600080fd5b505af1158015611356573d6000803e3d6000fd5b505050506040513d602081101561136c57600080fd5b5051905061137a82826137b4565b925050505b86801561138c5750600081115b156113ab576004546113ab90849081906001600160a01b0316846134c0565b85156114c057600854604080516309f4173d60e11b81526001600160a01b03868116600483018190526024830152915160009392909216916313e82e7a9160448082019260209290919082900301818787803b15801561140a57600080fd5b505af115801561141e573d6000803e3d6000fd5b505050506040513d602081101561143457600080fd5b5051905080156114be5760095460055460408051631e42d69b60e21b81526001600160a01b038881166004830181905260248301529283166044820152606481018590529051919092169163790b5a6c91608480830192600092919082900301818387803b1580156114a557600080fd5b505af11580156114b9573d6000803e3d6000fd5b505050505b505b841561176d57831561166857600954604080516309f4173d60e11b81526001600160a01b038681166004830152306024830152915160009392909216916313e82e7a9160448082019260209290919082900301818787803b15801561152457600080fd5b505af1158015611538573d6000803e3d6000fd5b505050506040513d602081101561154e57600080fd5b5051600b54604080516309f4173d60e11b81526001600160a01b038881166004830152306024830152915193945060009391909216916313e82e7a91604480830192602092919082900301818787803b1580156115aa57600080fd5b505af11580156115be573d6000803e3d6000fd5b505050506040513d60208110156115d457600080fd5b5051905060006115e483836137b4565b60025460408051632e1a7d4d60e01b81526004810184905290519293506001600160a01b0390911691632e1a7d4d9160248082019260009290919082900301818387803b15801561163457600080fd5b505af1158015611648573d6000803e3d6000fd5b50611660925050506001600160a01b038716826136cf565b50505061176d565b600954604080516309f4173d60e11b81526001600160a01b03868116600483018190526024830152915191909216916313e82e7a9160448083019260209291908290030181600087803b1580156116be57600080fd5b505af11580156116d2573d6000803e3d6000fd5b505050506040513d60208110156116e857600080fd5b5050600b54604080516309f4173d60e11b81526001600160a01b03868116600483018190526024830152915191909216916313e82e7a9160448083019260209291908290030181600087803b15801561174057600080fd5b505af1158015611754573d6000803e3d6000fd5b505050506040513d602081101561176a57600080fd5b50505b505060016000555050505050505050565b600154600160a01b900460ff1681565b6002546001600160a01b031681565b600260005414156117e3576040805162461bcd60e51b815260206004820152601f6024820152600080516020614f0b833981519152604482015290519081900360640190fd5b60026000908155600754604080516309f4173d60e11b8152336004820181905260248201819052915191936001600160a01b03909316926313e82e7a926044808401936020939083900390910190829087803b15801561184257600080fd5b505af1158015611856573d6000803e3d6000fd5b505050506040513d602081101561186c57600080fd5b5050600a54604080516309f4173d60e11b81526001600160a01b03848116600483018190526024830152915191909216916313e82e7a9160448083019260209291908290030181600087803b1580156118c457600080fd5b505af11580156118d8573d6000803e3d6000fd5b505050506040513d60208110156118ee57600080fd5b5050600160005550565b600060026000541415611940576040805162461bcd60e51b815260206004820152601f6024820152600080516020614f0b833981519152604482015290519081900360640190fd5b600260005583611985576040805162461bcd60e51b815260206004820152601d602482015260008051602061534f833981519152604482015290519081900360640190fd5b600c54604080516317eb2a1560e01b81523360048201819052602482018190526001600160a01b038981166044840152606483018990526084830188905260a483018790529251909360009316916317eb2a159160c480830192602092919082900301818787803b1580156119f957600080fd5b505af1158015611a0d573d6000803e3d6000fd5b505050506040513d6020811015611a2357600080fd5b5051600b5460065460408051631e42d69b60e21b81526001600160a01b03878116600483018190526024830152928316604482015260648101859052905193945091169163790b5a6c9160848082019260009290919082900301818387803b158015611a8e57600080fd5b505af1158015611aa2573d6000803e3d6000fd5b5050600a54600b5460408051631e42d69b60e21b81526001600160a01b03888116600483018190526024830152928316604482015260648101879052905191909216935063790b5a6c9250608480830192600092919082900301818387803b158015611b0d57600080fd5b505af1158015611b21573d6000803e3d6000fd5b5050604080516001600160a01b038616815260208101859052815160008051602061519a8339815191529450908190039091019150a160016000559695505050505050565b60026000541415611bac576040805162461bcd60e51b815260206004820152601f6024820152600080516020614f0b833981519152604482015290519081900360640190fd5b6002600055600454610b9d90339081906001600160a01b0316846134c0565b60026000541415611c11576040805162461bcd60e51b815260206004820152601f6024820152600080516020614f0b833981519152604482015290519081900360640190fd5b60026000908155600954604080516309f4173d60e11b8152336004820181905260248201819052915191936001600160a01b03909316926313e82e7a926044808401936020939083900390910190829087803b158015611c7057600080fd5b505af1158015611c84573d6000803e3d6000fd5b505050506040513d6020811015611c9a57600080fd5b5050600b54604080516309f4173d60e11b81526001600160a01b03848116600483018190526024830152915191909216916313e82e7a9160448083019260209291908290030181600087803b158015611cf257600080fd5b505af1158015611d06573d6000803e3d6000fd5b505050506040513d6020811015611d1c57600080fd5b5050600754604080516309f4173d60e11b81526001600160a01b03848116600483018190526024830152915191909216916313e82e7a9160448083019260209291908290030181600087803b15801561184257600080fd5b60026000541415611dba576040805162461bcd60e51b815260206004820152601f6024820152600080516020614f0b833981519152604482015290519081900360640190fd5b6002600055600454610b9d9033906001600160a01b0316836001613815565b600c546001600160a01b031681565b6006546001600160a01b031681565b600a546001600160a01b031681565b60026000541415611e4c576040805162461bcd60e51b815260206004820152601f6024820152600080516020614f0b833981519152604482015290519081900360640190fd5b6002600055600d54604080516370a0823160e01b81526001600160a01b038481166004830152915191909216916370a08231916024808301926020929190829003018186803b158015611e9e57600080fd5b505afa158015611eb2573d6000803e3d6000fd5b505050506040513d6020811015611ec857600080fd5b505115611f065760405162461bcd60e51b8152600401808060200182810382526026815260200180614f626026913960400191505060405180910390fd5b600e54604080516370a0823160e01b81526001600160a01b038481166004830152915191909216916370a08231916024808301926020929190829003018186803b158015611f5357600080fd5b505afa158015611f67573d6000803e3d6000fd5b505050506040513d6020811015611f7d57600080fd5b505115611fbb5760405162461bcd60e51b8152600401808060200182810382526026815260200180614f626026913960400191505060405180910390fd5b6001600160a01b038181166000908152600f602052604090205433911681146120155760405162461bcd60e51b815260040180806020018281038252602481526020018061511a6024913960400191505060405180910390fd5b6001600160a01b0382166000908152600f6020526040902080546001600160a01b031916905561204481613d57565b61204d826134ab565b60075460035460408051637aeceb1f60e11b81526001600160a01b03868116600483015292831660248201529051600093929092169163f5d9d63e91604480820192602092909190829003018186803b1580156120a957600080fd5b505afa1580156120bd573d6000803e3d6000fd5b505050506040513d60208110156120d357600080fd5b505190508015612111576003546120f79084906001600160a01b0316836000613815565b60035461211190849084906001600160a01b0316846134c0565b6007546004805460408051637aeceb1f60e11b81526001600160a01b0388811694820194909452918316602483015251600093929092169163f5d9d63e91604480820192602092909190829003018186803b15801561216f57600080fd5b505afa158015612183573d6000803e3d6000fd5b505050506040513d602081101561219957600080fd5b5051905080156121d7576004546121bd9085906001600160a01b0316836000613815565b6004546121d790859085906001600160a01b0316846134c0565b60095460055460408051637aeceb1f60e11b81526001600160a01b03888116600483015292831660248201529051600093929092169163f5d9d63e91604480820192602092909190829003018186803b15801561223357600080fd5b505afa158015612247573d6000803e3d6000fd5b505050506040513d602081101561225d57600080fd5b50519050801561236a576009546005546040805163098bf59d60e01b81526001600160a01b038981166004830181905293811660248301526044820186905260648201939093529051919092169163098bf59d91608480830192600092919082900301818387803b1580156122d157600080fd5b505af11580156122e5573d6000803e3d6000fd5b505060095460055460408051631e42d69b60e21b81526001600160a01b038b811660048301528a81166024830152928316604482015260648101879052905191909216935063790b5a6c9250608480830192600092919082900301818387803b15801561235157600080fd5b505af1158015612365573d6000803e3d6000fd5b505050505b6000600460009054906101000a90046001600160a01b03166001600160a01b03166370a08231876040518263ffffffff1660e01b815260040180826001600160a01b0316815260200191505060206040518083038186803b1580156123ce57600080fd5b505afa1580156123e2573d6000803e3d6000fd5b505050506040513d60208110156123f857600080fd5b5051905080156124915760048054604080516323b872dd60e01b81526001600160a01b038a811694820194909452888416602482015260448101859052905192909116916323b872dd916064808201926020929091908290030181600087803b15801561246457600080fd5b505af1158015612478573d6000803e3d6000fd5b505050506040513d602081101561248e57600080fd5b50505b600b5460065460408051637aeceb1f60e11b81526001600160a01b038a8116600483015292831660248201529051600093929092169163f5d9d63e91604480820192602092909190829003018186803b1580156124ed57600080fd5b505afa158015612501573d6000803e3d6000fd5b505050506040513d602081101561251757600080fd5b50519050801561272557600a54600b546040805163098bf59d60e01b81526001600160a01b038b81166004830181905293811660248301526044820186905260648201939093529051919092169163098bf59d91608480830192600092919082900301818387803b15801561258b57600080fd5b505af115801561259f573d6000803e3d6000fd5b5050600b546006546040805163098bf59d60e01b81526001600160a01b038d8116600483018190529381166024830152604482018890526064820193909352905191909216935063098bf59d9250608480830192600092919082900301818387803b15801561260d57600080fd5b505af1158015612621573d6000803e3d6000fd5b5050600b5460065460408051631e42d69b60e21b81526001600160a01b038d811660048301528c81166024830152928316604482015260648101879052905191909216935063790b5a6c9250608480830192600092919082900301818387803b15801561268d57600080fd5b505af11580156126a1573d6000803e3d6000fd5b5050600a54600b5460408051631e42d69b60e21b81526001600160a01b038c8116600483018190526024830152928316604482015260648101879052905191909216935063790b5a6c9250608480830192600092919082900301818387803b15801561270c57600080fd5b505af1158015612720573d6000803e3d6000fd5b505050505b600d5460408051630f713c2360e41b81526001600160a01b038a8116600483015289811660248301529151919092169163f713c23091604480830192600092919082900301818387803b15801561277b57600080fd5b505af115801561278f573d6000803e3d6000fd5b5050600e5460408051630f713c2360e41b81526001600160a01b038c811660048301528b81166024830152915191909216935063f713c2309250604480830192600092919082900301818387803b1580156127e957600080fd5b505af11580156127fd573d6000803e3d6000fd5b50506001600055505050505050505050565b600060026000541415612857576040805162461bcd60e51b815260206004820152601f6024820152600080516020614f0b833981519152604482015290519081900360640190fd5b6002600055346128ae576040805162461bcd60e51b815260206004820152601f60248201527f526577617264526f757465723a20696e76616c6964206d73672e76616c756500604482015290519081900360640190fd5b600260009054906101000a90046001600160a01b03166001600160a01b031663d0e30db0346040518263ffffffff1660e01b81526004016000604051808303818588803b1580156128fe57600080fd5b505af1158015612912573d6000803e3d6000fd5b5050600254600c546040805163095ea7b360e01b81526001600160a01b039283166004820152346024820152905191909216945063095ea7b39350604480830193506020928290030181600087803b15801561296d57600080fd5b505af1158015612981573d6000803e3d6000fd5b505050506040513d602081101561299757600080fd5b5050600c54600254604080516317eb2a1560e01b815230600482015233602482018190526001600160a01b0393841660448301523460648301526084820188905260a482018790529151919360009316916317eb2a159160c48082019260209290919082900301818787803b158015612a0f57600080fd5b505af1158015612a23573d6000803e3d6000fd5b505050506040513d6020811015612a3957600080fd5b5051600b5460065460408051631e42d69b60e21b81526001600160a01b03878116600483018190526024830152928316604482015260648101859052905193945091169163790b5a6c9160848082019260009290919082900301818387803b158015612aa457600080fd5b505af1158015612ab8573d6000803e3d6000fd5b5050600a54600b5460408051631e42d69b60e21b81526001600160a01b03888116600483018190526024830152928316604482015260648101879052905191909216935063790b5a6c9250608480830192600092919082900301818387803b158015612b2357600080fd5b505af1158015612b37573d6000803e3d6000fd5b5050604080516001600160a01b038616815260208101859052815160008051602061519a8339815191529450908190039091019150a16001600055949350505050565b60026000541415612bc0576040805162461bcd60e51b815260206004820152601f6024820152600080516020614f0b833981519152604482015290519081900360640190fd5b60026000556001546001600160a01b03163314612c12576040805162461bcd60e51b81526020600482015260156024820152600080516020614f88833981519152604482015290519081900360640190fd5b6003546001600160a01b031660005b8351811015612c6457612c5c33858381518110612c3a57fe5b602002602001015184868581518110612c4f57fe5b60200260200101516134c0565b600101612c21565b505060016000555050565b600e546001600160a01b031681565b600060026000541415612cc6576040805162461bcd60e51b815260206004820152601f6024820152600080516020614f0b833981519152604482015290519081900360640190fd5b600260005583612d0b576040805162461bcd60e51b8152602060048201819052602482015260008051602061532f833981519152604482015290519081900360640190fd5b600a54600b546040805163098bf59d60e01b815233600482018190526001600160a01b039384166024830152604482018990526064820181905291519193929092169163098bf59d91608480830192600092919082900301818387803b158015612d7457600080fd5b505af1158015612d88573d6000803e3d6000fd5b5050600b546006546040805163098bf59d60e01b81526001600160a01b03878116600483018190529381166024830152604482018c90526064820193909352905191909216935063098bf59d9250608480830192600092919082900301818387803b158015612df657600080fd5b505af1158015612e0a573d6000803e3d6000fd5b5050600c54604080516371d597ad60e01b81526001600160a01b0386811660048301528b81166024830152604482018b9052606482018a905288811660848301529151600095509190921692506371d597ad9160a48082019260209290919082900301818787803b158015612e7e57600080fd5b505af1158015612e92573d6000803e3d6000fd5b505050506040513d6020811015612ea857600080fd5b5051604080516001600160a01b0385168152602081018990528151929350600080516020615291833981519152929081900390910190a160016000559695505050505050565b6009546001600160a01b031681565b60026000541415612f43576040805162461bcd60e51b815260206004820152601f6024820152600080516020614f0b833981519152604482015290519081900360640190fd5b6002600055600354610b9d9033906001600160a01b0316836001613815565b6004546001600160a01b031681565b600b546001600160a01b031681565b6001546001600160a01b03163314612fcd576040805162461bcd60e51b81526020600482015260156024820152600080516020614f88833981519152604482015290519081900360640190fd5b600180546001600160a01b0319166001600160a01b0392909216919091179055565b60026000541415613035576040805162461bcd60e51b815260206004820152601f6024820152600080516020614f0b833981519152604482015290519081900360640190fd5b60026000908155600954604080516309f4173d60e11b8152336004820181905260248201819052915191936001600160a01b03909316926313e82e7a926044808401936020939083900390910190829087803b15801561309457600080fd5b505af11580156130a8573d6000803e3d6000fd5b505050506040513d60208110156130be57600080fd5b5050600b54604080516309f4173d60e11b81526001600160a01b03848116600483018190526024830152915191909216916313e82e7a9160448083019260209291908290030181600087803b1580156118c457600080fd5b6002600054141561315c576040805162461bcd60e51b815260206004820152601f6024820152600080516020614f0b833981519152604482015290519081900360640190fd5b60026000556001546001600160a01b031633146131ae576040805162461bcd60e51b81526020600482015260156024820152600080516020614f88833981519152604482015290519081900360640190fd5b600354610b2090339084906001600160a01b0316846134c0565b600f602052600090815260409020546001600160a01b031681565b6005546001600160a01b031681565b6008546001600160a01b031681565b60026000541415613247576040805162461bcd60e51b815260206004820152601f6024820152600080516020614f0b833981519152604482015290519081900360640190fd5b6002600055600d54604080516370a0823160e01b815233600482015290516001600160a01b03909216916370a0823191602480820192602092909190829003018186803b15801561329757600080fd5b505afa1580156132ab573d6000803e3d6000fd5b505050506040513d60208110156132c157600080fd5b5051156132ff5760405162461bcd60e51b8152600401808060200182810382526026815260200180614f626026913960400191505060405180910390fd5b600e54604080516370a0823160e01b815233600482015290516001600160a01b03909216916370a0823191602480820192602092909190829003018186803b15801561334a57600080fd5b505afa15801561335e573d6000803e3d6000fd5b505050506040513d602081101561337457600080fd5b5051156133b25760405162461bcd60e51b8152600401808060200182810382526026815260200180614f626026913960400191505060405180910390fd5b6133bb81613d57565b336000908152600f6020526040812080546001600160a01b0319166001600160a01b03939093169290921790915560019055565b60026000541415613435576040805162461bcd60e51b815260206004820152601f6024820152600080516020614f0b833981519152604482015290519081900360640190fd5b6002600055613443336134ab565b6001600055565b6003546001600160a01b031681565b604080516001600160a01b038416602482015260448082018490528251808303909101815260649091019091526020810180516001600160e01b031663a9059cbb60e01b179052610a449084906148a7565b6134b481614958565b6134bd81614b10565b50565b60008111613503576040805162461bcd60e51b815260206004820152601d602482015260008051602061534f833981519152604482015290519081900360640190fd5b60075460408051631e42d69b60e21b81526001600160a01b03878116600483015286811660248301528581166044830152606482018590529151919092169163790b5a6c91608480830192600092919082900301818387803b15801561356857600080fd5b505af115801561357c573d6000803e3d6000fd5b505060085460075460408051631e42d69b60e21b81526001600160a01b03898116600483018190526024830152928316604482015260648101879052905191909216935063790b5a6c9250608480830192600092919082900301818387803b1580156135e757600080fd5b505af11580156135fb573d6000803e3d6000fd5b505060095460085460408051631e42d69b60e21b81526001600160a01b03898116600483018190526024830152928316604482015260648101879052905191909216935063790b5a6c9250608480830192600092919082900301818387803b15801561366657600080fd5b505af115801561367a573d6000803e3d6000fd5b5050604080516001600160a01b0380881682528616602082015280820185905290517f38698808746c6b8e5c3f68e5416e99a02a1298e077c1e6e9eefe84ad51869aa09350908190036060019150a150505050565b80471015613724576040805162461bcd60e51b815260206004820152601d60248201527f416464726573733a20696e73756666696369656e742062616c616e6365000000604482015290519081900360640190fd5b6040516000906001600160a01b0384169083908381818185875af1925050503d806000811461376f576040519150601f19603f3d011682016040523d82523d6000602084013e613774565b606091505b5050905080610a445760405162461bcd60e51b815260040180806020018281038252603a815260200180615042603a913960400191505060405180910390fd5b60008282018381101561380c576040805162461bcd60e51b815260206004820152601b60248201527a536166654d6174683a206164646974696f6e206f766572666c6f7760281b604482015290519081900360640190fd5b90505b92915050565b60008211613858576040805162461bcd60e51b815260206004820152601d602482015260008051602061534f833981519152604482015290519081900360640190fd5b600754604080516310c1c10360e01b81526001600160a01b038781166004830152915160009392909216916310c1c10391602480820192602092909190829003018186803b1580156138a957600080fd5b505afa1580156138bd573d6000803e3d6000fd5b505050506040513d60208110156138d357600080fd5b50516009546008546040805163098bf59d60e01b81526001600160a01b038a8116600483018190529381166024830152604482018990526064820193909352905193945091169163098bf59d9160848082019260009290919082900301818387803b15801561394157600080fd5b505af1158015613955573d6000803e3d6000fd5b50506008546007546040805163098bf59d60e01b81526001600160a01b038b8116600483018190529381166024830152604482018a90526064820193909352905191909216935063098bf59d9250608480830192600092919082900301818387803b1580156139c357600080fd5b505af11580156139d7573d6000803e3d6000fd5b50506007546040805163098bf59d60e01b81526001600160a01b038a8116600483018190528a82166024840152604483018a90526064830152915191909216935063098bf59d9250608480830192600092919082900301818387803b158015613a3f57600080fd5b505af1158015613a53573d6000803e3d6000fd5b505050508115613d0657600854604080516309f4173d60e11b81526001600160a01b03888116600483018190526024830152915160009392909216916313e82e7a9160448082019260209290919082900301818787803b158015613ab657600080fd5b505af1158015613aca573d6000803e3d6000fd5b505050506040513d6020811015613ae057600080fd5b505190508015613b6a5760095460055460408051631e42d69b60e21b81526001600160a01b038a81166004830181905260248301529283166044820152606481018590529051919092169163790b5a6c91608480830192600092919082900301818387803b158015613b5157600080fd5b505af1158015613b65573d6000803e3d6000fd5b505050505b60095460055460408051637aeceb1f60e11b81526001600160a01b038a8116600483015292831660248201529051600093929092169163f5d9d63e91604480820192602092909190829003018186803b158015613bc657600080fd5b505afa158015613bda573d6000803e3d6000fd5b505050506040513d6020811015613bf057600080fd5b505190508015613d03576000613c1084613c0a8489614bbb565b90614c14565b6009546005546040805163098bf59d60e01b81526001600160a01b038d8116600483018190529381166024830152604482018690526064820193909352905193945091169163098bf59d9160848082019260009290919082900301818387803b158015613c7c57600080fd5b505af1158015613c90573d6000803e3d6000fd5b505060055460408051632770a7eb60e21b81526001600160a01b038d81166004830152602482018790529151919092169350639dc29fac9250604480830192600092919082900301818387803b158015613ce957600080fd5b505af1158015613cfd573d6000803e3d6000fd5b50505050505b50505b604080516001600160a01b0380881682528616602082015280820185905290517f3bbe33bfb28b5df45bef4b5c4449e368c395569261d705d5943b5909acd11b959181900360600190a15050505050565b6007546040805163a318021760e01b81526001600160a01b0384811660048301529151919092169163a3180217916024808301926020929190829003018186803b158015613da457600080fd5b505afa158015613db8573d6000803e3d6000fd5b505050506040513d6020811015613dce57600080fd5b505115613e0c5760405162461bcd60e51b81526004018080602001828103825260378152602001806151ee6037913960400191505060405180910390fd5b60075460408051633792def360e01b81526001600160a01b03848116600483015291519190921691633792def3916024808301926020929190829003018186803b158015613e5957600080fd5b505afa158015613e6d573d6000803e3d6000fd5b505050506040513d6020811015613e8357600080fd5b505115613ec15760405162461bcd60e51b815260040180806020018281038252603481526020018061525d6034913960400191505060405180910390fd5b6008546040805163a318021760e01b81526001600160a01b0384811660048301529151919092169163a3180217916024808301926020929190829003018186803b158015613f0e57600080fd5b505afa158015613f22573d6000803e3d6000fd5b505050506040513d6020811015613f3857600080fd5b505115613f765760405162461bcd60e51b815260040180806020018281038252603681526020018061500c6036913960400191505060405180910390fd5b60085460408051633792def360e01b81526001600160a01b03848116600483015291519190921691633792def3916024808301926020929190829003018186803b158015613fc357600080fd5b505afa158015613fd7573d6000803e3d6000fd5b505050506040513d6020811015613fed57600080fd5b50511561402b5760405162461bcd60e51b8152600401808060200182810382526033815260200180614fd96033913960400191505060405180910390fd5b6009546040805163a318021760e01b81526001600160a01b0384811660048301529151919092169163a3180217916024808301926020929190829003018186803b15801561407857600080fd5b505afa15801561408c573d6000803e3d6000fd5b505050506040513d60208110156140a257600080fd5b5051156140e05760405162461bcd60e51b8152600401808060200182810382526034815260200180614ed76034913960400191505060405180910390fd5b60095460408051633792def360e01b81526001600160a01b03848116600483015291519190921691633792def3916024808301926020929190829003018186803b15801561412d57600080fd5b505afa158015614141573d6000803e3d6000fd5b505050506040513d602081101561415757600080fd5b5051156141955760405162461bcd60e51b8152600401808060200182810382526031815260200180614fa86031913960400191505060405180910390fd5b600d5460408051631ccdc0d760e21b81526001600160a01b03848116600483015291519190921691637337035c916024808301926020929190829003018186803b1580156141e257600080fd5b505afa1580156141f6573d6000803e3d6000fd5b505050506040513d602081101561420c57600080fd5b50511561424a5760405162461bcd60e51b815260040180806020018281038252603b81526020018061515f603b913960400191505060405180910390fd5b600d5460408051635b8de71560e11b81526001600160a01b0384811660048301529151919092169163b71bce2a916024808301926020929190829003018186803b15801561429757600080fd5b505afa1580156142ab573d6000803e3d6000fd5b505050506040513d60208110156142c157600080fd5b5051156142ff5760405162461bcd60e51b81526004018080602001828103825260388152602001806152256038913960400191505060405180910390fd5b600a546040805163a318021760e01b81526001600160a01b0384811660048301529151919092169163a3180217916024808301926020929190829003018186803b15801561434c57600080fd5b505afa158015614360573d6000803e3d6000fd5b505050506040513d602081101561437657600080fd5b5051156143b45760405162461bcd60e51b8152600401808060200182810382526037815260200180614f2b6037913960400191505060405180910390fd5b600a5460408051633792def360e01b81526001600160a01b03848116600483015291519190921691633792def3916024808301926020929190829003018186803b15801561440157600080fd5b505afa158015614415573d6000803e3d6000fd5b505050506040513d602081101561442b57600080fd5b5051156144695760405162461bcd60e51b815260040180806020018281038252603481526020018061509d6034913960400191505060405180910390fd5b600b546040805163a318021760e01b81526001600160a01b0384811660048301529151919092169163a3180217916024808301926020929190829003018186803b1580156144b657600080fd5b505afa1580156144ca573d6000803e3d6000fd5b505050506040513d60208110156144e057600080fd5b50511561451e5760405162461bcd60e51b81526004018080602001828103825260348152602001806151ba6034913960400191505060405180910390fd5b600b5460408051633792def360e01b81526001600160a01b03848116600483015291519190921691633792def3916024808301926020929190829003018186803b15801561456b57600080fd5b505afa15801561457f573d6000803e3d6000fd5b505050506040513d602081101561459557600080fd5b5051156145d35760405162461bcd60e51b81526004018080602001828103825260318152602001806152fe6031913960400191505060405180910390fd5b600e5460408051631ccdc0d760e21b81526001600160a01b03848116600483015291519190921691637337035c916024808301926020929190829003018186803b15801561462057600080fd5b505afa158015614634573d6000803e3d6000fd5b505050506040513d602081101561464a57600080fd5b5051156146885760405162461bcd60e51b815260040180806020018281038252603b81526020018061515f603b913960400191505060405180910390fd5b600e5460408051635b8de71560e11b81526001600160a01b0384811660048301529151919092169163b71bce2a916024808301926020929190829003018186803b1580156146d557600080fd5b505afa1580156146e9573d6000803e3d6000fd5b505050506040513d60208110156146ff57600080fd5b50511561473d5760405162461bcd60e51b81526004018080602001828103825260388152602001806152256038913960400191505060405180910390fd5b600d54604080516370a0823160e01b81526001600160a01b038481166004830152915191909216916370a08231916024808301926020929190829003018186803b15801561478a57600080fd5b505afa15801561479e573d6000803e3d6000fd5b505050506040513d60208110156147b457600080fd5b5051156147f25760405162461bcd60e51b81526004018080602001828103825260238152602001806150f76023913960400191505060405180910390fd5b600e54604080516370a0823160e01b81526001600160a01b038481166004830152915191909216916370a08231916024808301926020929190829003018186803b15801561483f57600080fd5b505afa158015614853573d6000803e3d6000fd5b505050506040513d602081101561486957600080fd5b5051156134bd5760405162461bcd60e51b81526004018080602001828103825260238152602001806152b16023913960400191505060405180910390fd5b60606148fc826040518060400160405280602081526020017f5361666545524332303a206c6f772d6c6576656c2063616c6c206661696c6564815250856001600160a01b0316614c539092919063ffffffff16565b805190915015610a445780806020019051602081101561491b57600080fd5b5051610a445760405162461bcd60e51b815260040180806020018281038252602a8152602001806152d4602a913960400191505060405180910390fd5b600754604080516309f4173d60e11b81526001600160a01b03848116600483018190526024830152915160009392909216916313e82e7a9160448082019260209290919082900301818787803b1580156149b157600080fd5b505af11580156149c5573d6000803e3d6000fd5b505050506040513d60208110156149db57600080fd5b5051905080156149ff576004546149ff90839081906001600160a01b0316846134c0565b600854604080516309f4173d60e11b81526001600160a01b03858116600483018190526024830152915160009392909216916313e82e7a9160448082019260209290919082900301818787803b158015614a5857600080fd5b505af1158015614a6c573d6000803e3d6000fd5b505050506040513d6020811015614a8257600080fd5b505190508015610a445760095460055460408051631e42d69b60e21b81526001600160a01b038781166004830181905260248301529283166044820152606481018590529051919092169163790b5a6c91608480830192600092919082900301818387803b158015614af357600080fd5b505af1158015614b07573d6000803e3d6000fd5b50505050505050565b600a54604080516309f4173d60e11b81526001600160a01b03848116600483018190526024830152915160009392909216916313e82e7a9160448082019260209290919082900301818787803b158015614b6957600080fd5b505af1158015614b7d573d6000803e3d6000fd5b505050506040513d6020811015614b9357600080fd5b505190508015614bb757600454614bb790839081906001600160a01b0316846134c0565b5050565b600082614bca5750600061380f565b82820282848281614bd757fe5b041461380c5760405162461bcd60e51b815260040180806020018281038252602181526020018061513e6021913960400191505060405180910390fd5b600061380c83836040518060400160405280601a815260200179536166654d6174683a206469766973696f6e206279207a65726f60301b815250614c6c565b6060614c628484600085614d0e565b90505b9392505050565b60008183614cf85760405162461bcd60e51b81526004018080602001828103825283818151815260200191508051906020019080838360005b83811015614cbd578181015183820152602001614ca5565b50505050905090810190601f168015614cea5780820380516001836020036101000a031916815260200191505b509250505060405180910390fd5b506000838581614d0457fe5b0495945050505050565b606082471015614d4f5760405162461bcd60e51b81526004018080602001828103825260268152602001806150d16026913960400191505060405180910390fd5b614d5885614e6a565b614da9576040805162461bcd60e51b815260206004820152601d60248201527f416464726573733a2063616c6c20746f206e6f6e2d636f6e7472616374000000604482015290519081900360640190fd5b60006060866001600160a01b031685876040518082805190602001908083835b60208310614de85780518252601f199092019160209182019101614dc9565b6001836020036101000a03801982511681845116808217855250505050505090500191505060006040518083038185875af1925050503d8060008114614e4a576040519150601f19603f3d011682016040523d82523d6000602084013e614e4f565b606091505b5091509150614e5f828286614e70565b979650505050505050565b3b151590565b60608315614e7f575081614c65565b825115614e8f5782518084602001fd5b60405162461bcd60e51b8152602060048201818152845160248401528451859391928392604401919085019080838360008315614cbd578181015183820152602001614ca556fe526577617264526f757465723a20666565584458547261636b65722e617665726167655374616b6564416d6f756e7473203e20305265656e7472616e637947756172643a207265656e7472616e742063616c6c00526577617264526f757465723a207374616b6564584c58547261636b65722e617665726167655374616b6564416d6f756e7473203e2030526577617264526f757465723a2073656e646572206861732076657374656420746f6b656e73476f7665726e61626c653a20666f7262696464656e0000000000000000000000526577617264526f757465723a20666565584458547261636b65722e63756d756c617469766552657761726473203e2030526577617264526f757465723a20626f6e7573584458547261636b65722e63756d756c617469766552657761726473203e2030526577617264526f757465723a20626f6e7573584458547261636b65722e617665726167655374616b6564416d6f756e7473203e2030416464726573733a20756e61626c6520746f2073656e642076616c75652c20726563697069656e74206d61792068617665207265766572746564526577617264526f757465723a20616c726561647920696e697469616c697a6564526577617264526f757465723a207374616b6564584c58547261636b65722e63756d756c617469766552657761726473203e2030416464726573733a20696e73756666696369656e742062616c616e636520666f722063616c6c526577617264526f757465723a207864785665737465722e62616c616e6365203e2030526577617264526f757465723a207472616e73666572206e6f74207369676e616c6c6564536166654d6174683a206d756c7469706c69636174696f6e206f766572666c6f77526577617264526f757465723a207864785665737465722e7472616e73666572726564417665726167655374616b6564416d6f756e7473203e203073ef9341d28c08d95e38a701e5c2834ebf53967da0fabd2dc566185ce8c9e85d526577617264526f757465723a20666565584c58547261636b65722e617665726167655374616b6564416d6f756e7473203e2030526577617264526f757465723a207374616b6564584458547261636b65722e617665726167655374616b6564416d6f756e7473203e2030526577617264526f757465723a207864785665737465722e7472616e7366657272656443756d756c617469766552657761726473203e2030526577617264526f757465723a207374616b6564584458547261636b65722e63756d756c617469766552657761726473203e2030c265e4374e2a03f09fd8722117174ca206c57d71d6e240581182666374be2c1b526577617264526f757465723a20786c785665737465722e62616c616e6365203e20305361666545524332303a204552433230206f7065726174696f6e20646964206e6f742073756363656564526577617264526f757465723a20666565584c58547261636b65722e63756d756c617469766552657761726473203e2030526577617264526f757465723a20696e76616c6964205f786c78416d6f756e74526577617264526f757465723a20696e76616c6964205f616d6f756e74000000a26469706673582212204d4a06f8d34af93a749740bae53c29cf32f023a8a851f358ec5508c8a9e1c2dd64736f6c634300060c0033",
  "linkReferences": {},
  "deployedLinkReferences": {}
}