{
  "_format": "hh-sol-artifact-1",
  "contractName": "RewardRouter",
  "sourceName": "contracts/staking/RewardRouter.sol",
  "abi": [
    {
      "anonymous": false,
      "inputs": [
        {
          "indexed": false,
          "internalType": "address",
          "name": "account",
          "type": "address"
        },
        {
          "indexed": false,
          "internalType": "uint256",
          "name": "amount",
          "type": "uint256"
        }
      ],
      "name": "StakeXDX",
      "type": "event"
    },
    {
      "anonymous": false,
      "inputs": [
        {
          "indexed": false,
          "internalType": "address",
          "name": "account",
          "type": "address"
        },
        {
          "indexed": false,
          "internalType": "uint256",
          "name": "amount",
          "type": "uint256"
        }
      ],
      "name": "StakeXLX",
      "type": "event"
    },
    {
      "anonymous": false,
      "inputs": [
        {
          "indexed": false,
          "internalType": "address",
          "name": "account",
          "type": "address"
        },
        {
          "indexed": false,
          "internalType": "uint256",
          "name": "amount",
          "type": "uint256"
        }
      ],
      "name": "UnstakeXDX",
      "type": "event"
    },
    {
      "anonymous": false,
      "inputs": [
        {
          "indexed": false,
          "internalType": "address",
          "name": "account",
          "type": "address"
        },
        {
          "indexed": false,
          "internalType": "uint256",
          "name": "amount",
          "type": "uint256"
        }
      ],
      "name": "UnstakeXLX",
      "type": "event"
    },
    {
      "inputs": [
        {
          "internalType": "address[]",
          "name": "_accounts",
          "type": "address[]"
        }
      ],
      "name": "batchCompoundForAccounts",
      "outputs": [],
      "stateMutability": "nonpayable",
      "type": "function"
    },
    {
      "inputs": [
        {
          "internalType": "address[]",
          "name": "_accounts",
          "type": "address[]"
        },
        {
          "internalType": "uint256[]",
          "name": "_amounts",
          "type": "uint256[]"
        }
      ],
      "name": "batchStakeXDXForAccount",
      "outputs": [],
      "stateMutability": "nonpayable",
      "type": "function"
    },
    {
      "inputs": [],
      "name": "bnXDX",
      "outputs": [
        {
          "internalType": "address",
          "name": "",
          "type": "address"
        }
      ],
      "stateMutability": "view",
      "type": "function"
    },
    {
      "inputs": [],
      "name": "bonusXDXTracker",
      "outputs": [
        {
          "internalType": "address",
          "name": "",
          "type": "address"
        }
      ],
      "stateMutability": "view",
      "type": "function"
    },
    {
      "inputs": [],
      "name": "claim",
      "outputs": [],
      "stateMutability": "nonpayable",
      "type": "function"
    },
    {
      "inputs": [],
      "name": "claimEsXDX",
      "outputs": [],
      "stateMutability": "nonpayable",
      "type": "function"
    },
    {
      "inputs": [],
      "name": "claimFees",
      "outputs": [],
      "stateMutability": "nonpayable",
      "type": "function"
    },
    {
      "inputs": [],
      "name": "compound",
      "outputs": [],
      "stateMutability": "nonpayable",
      "type": "function"
    },
    {
      "inputs": [
        {
          "internalType": "address",
          "name": "_account",
          "type": "address"
        }
      ],
      "name": "compoundForAccount",
      "outputs": [],
      "stateMutability": "nonpayable",
      "type": "function"
    },
    {
      "inputs": [],
      "name": "esXDX",
      "outputs": [
        {
          "internalType": "address",
          "name": "",
          "type": "address"
        }
      ],
      "stateMutability": "view",
      "type": "function"
    },
    {
      "inputs": [],
      "name": "feeXDXTracker",
      "outputs": [
        {
          "internalType": "address",
          "name": "",
          "type": "address"
        }
      ],
      "stateMutability": "view",
      "type": "function"
    },
    {
      "inputs": [],
      "name": "feeXLXTracker",
      "outputs": [
        {
          "internalType": "address",
          "name": "",
          "type": "address"
        }
      ],
      "stateMutability": "view",
      "type": "function"
    },
    {
      "inputs": [],
      "name": "gov",
      "outputs": [
        {
          "internalType": "address",
          "name": "",
          "type": "address"
        }
      ],
      "stateMutability": "view",
      "type": "function"
    },
    {
      "inputs": [
        {
          "internalType": "address",
          "name": "_weth",
          "type": "address"
        },
        {
          "internalType": "address",
          "name": "_xdx",
          "type": "address"
        },
        {
          "internalType": "address",
          "name": "_esXDX",
          "type": "address"
        },
        {
          "internalType": "address",
          "name": "_bnXDX",
          "type": "address"
        },
        {
          "internalType": "address",
          "name": "_xlx",
          "type": "address"
        },
        {
          "internalType": "address",
          "name": "_stakedXDXTracker",
          "type": "address"
        },
        {
          "internalType": "address",
          "name": "_bonusXDXTracker",
          "type": "address"
        },
        {
          "internalType": "address",
          "name": "_feeXDXTracker",
          "type": "address"
        },
        {
          "internalType": "address",
          "name": "_feeXLXTracker",
          "type": "address"
        },
        {
          "internalType": "address",
          "name": "_stakedXLXTracker",
          "type": "address"
        },
        {
          "internalType": "address",
          "name": "_xlxManager",
          "type": "address"
        }
      ],
      "name": "initialize",
      "outputs": [],
      "stateMutability": "nonpayable",
      "type": "function"
    },
    {
      "inputs": [],
      "name": "isInitialized",
      "outputs": [
        {
          "internalType": "bool",
          "name": "",
          "type": "bool"
        }
      ],
      "stateMutability": "view",
      "type": "function"
    },
    {
      "inputs": [
        {
          "internalType": "address",
          "name": "_token",
          "type": "address"
        },
        {
          "internalType": "uint256",
          "name": "_amount",
          "type": "uint256"
        },
        {
          "internalType": "uint256",
          "name": "_minUsdg",
          "type": "uint256"
        },
        {
          "internalType": "uint256",
          "name": "_minXLX",
          "type": "uint256"
        }
      ],
      "name": "mintAndStakeXLX",
      "outputs": [
        {
          "internalType": "uint256",
          "name": "",
          "type": "uint256"
        }
      ],
      "stateMutability": "nonpayable",
      "type": "function"
    },
    {
      "inputs": [
        {
          "internalType": "uint256",
          "name": "_minUsdg",
          "type": "uint256"
        },
        {
          "internalType": "uint256",
          "name": "_minXLX",
          "type": "uint256"
        }
      ],
      "name": "mintAndStakeXLXETH",
      "outputs": [
        {
          "internalType": "uint256",
          "name": "",
          "type": "uint256"
        }
      ],
      "stateMutability": "payable",
      "type": "function"
    },
    {
      "inputs": [
        {
          "internalType": "address",
          "name": "_gov",
          "type": "address"
        }
      ],
      "name": "setGov",
      "outputs": [],
      "stateMutability": "nonpayable",
      "type": "function"
    },
    {
      "inputs": [
        {
          "internalType": "uint256",
          "name": "_amount",
          "type": "uint256"
        }
      ],
      "name": "stakeEsXDX",
      "outputs": [],
      "stateMutability": "nonpayable",
      "type": "function"
    },
    {
      "inputs": [
        {
          "internalType": "uint256",
          "name": "_amount",
          "type": "uint256"
        }
      ],
      "name": "stakeXDX",
      "outputs": [],
      "stateMutability": "nonpayable",
      "type": "function"
    },
    {
      "inputs": [
        {
          "internalType": "address",
          "name": "_account",
          "type": "address"
        },
        {
          "internalType": "uint256",
          "name": "_amount",
          "type": "uint256"
        }
      ],
      "name": "stakeXDXForAccount",
      "outputs": [],
      "stateMutability": "nonpayable",
      "type": "function"
    },
    {
      "inputs": [],
      "name": "stakedXDXTracker",
      "outputs": [
        {
          "internalType": "address",
          "name": "",
          "type": "address"
        }
      ],
      "stateMutability": "view",
      "type": "function"
    },
    {
      "inputs": [],
      "name": "stakedXLXTracker",
      "outputs": [
        {
          "internalType": "address",
          "name": "",
          "type": "address"
        }
      ],
      "stateMutability": "view",
      "type": "function"
    },
    {
      "inputs": [
        {
          "internalType": "address",
          "name": "_tokenOut",
          "type": "address"
        },
        {
          "internalType": "uint256",
          "name": "_xlxAmount",
          "type": "uint256"
        },
        {
          "internalType": "uint256",
          "name": "_minOut",
          "type": "uint256"
        },
        {
          "internalType": "address",
          "name": "_receiver",
          "type": "address"
        }
      ],
      "name": "unstakeAndRedeemXLX",
      "outputs": [
        {
          "internalType": "uint256",
          "name": "",
          "type": "uint256"
        }
      ],
      "stateMutability": "nonpayable",
      "type": "function"
    },
    {
      "inputs": [
        {
          "internalType": "uint256",
          "name": "_xlxAmount",
          "type": "uint256"
        },
        {
          "internalType": "uint256",
          "name": "_minOut",
          "type": "uint256"
        },
        {
          "internalType": "address payable",
          "name": "_receiver",
          "type": "address"
        }
      ],
      "name": "unstakeAndRedeemXLXETH",
      "outputs": [
        {
          "internalType": "uint256",
          "name": "",
          "type": "uint256"
        }
      ],
      "stateMutability": "nonpayable",
      "type": "function"
    },
    {
      "inputs": [
        {
          "internalType": "uint256",
          "name": "_amount",
          "type": "uint256"
        }
      ],
      "name": "unstakeEsXDX",
      "outputs": [],
      "stateMutability": "nonpayable",
      "type": "function"
    },
    {
      "inputs": [
        {
          "internalType": "uint256",
          "name": "_amount",
          "type": "uint256"
        }
      ],
      "name": "unstakeXDX",
      "outputs": [],
      "stateMutability": "nonpayable",
      "type": "function"
    },
    {
      "inputs": [],
      "name": "weth",
      "outputs": [
        {
          "internalType": "address",
          "name": "",
          "type": "address"
        }
      ],
      "stateMutability": "view",
      "type": "function"
    },
    {
      "inputs": [
        {
          "internalType": "address",
          "name": "_token",
          "type": "address"
        },
        {
          "internalType": "address",
          "name": "_account",
          "type": "address"
        },
        {
          "internalType": "uint256",
          "name": "_amount",
          "type": "uint256"
        }
      ],
      "name": "withdrawToken",
      "outputs": [],
      "stateMutability": "nonpayable",
      "type": "function"
    },
    {
      "inputs": [],
      "name": "xdx",
      "outputs": [
        {
          "internalType": "address",
          "name": "",
          "type": "address"
        }
      ],
      "stateMutability": "view",
      "type": "function"
    },
    {
      "inputs": [],
      "name": "xlx",
      "outputs": [
        {
          "internalType": "address",
          "name": "",
          "type": "address"
        }
      ],
      "stateMutability": "view",
      "type": "function"
    },
    {
      "inputs": [],
      "name": "xlxManager",
      "outputs": [
        {
          "internalType": "address",
          "name": "",
          "type": "address"
        }
      ],
      "stateMutability": "view",
      "type": "function"
    },
    {
      "stateMutability": "payable",
      "type": "receive"
    }
  ],
  "bytecode": "0x608060405234801561001057600080fd5b506001600081905580546001600160a01b0319163317905561304c806100376000396000f3fe6080604052600436106101775760003560e01c806301d7073d146101db57806301e336671461020c57806312d43a511461024f5780631af276a61461026457806324d03993146103125780632a9f40831461033c5780632c4938421461036f578063392e53cd146103c05780633fc8cef3146103e9578063416200df146103fe5780634a99c366146104135780634b0181d2146104585780634e71d92d1461048257806353a1805714610497578063540f3668146104c157806363efdf38146104d657806364988190146104eb57806365e7106614610500578063671e18c614610523578063700522f81461065357806376902b831461069a578063818b2713146107235780638d65485014610738578063a339d19314610762578063bd08154314610777578063cfad57a21461078c578063d294f093146107bf578063dbaf181c146107d4578063e6bf7dc51461080d578063ee0f7f1c14610822578063f69e204614610837578063fbc3e6f21461084c576101d6565b366101d6576002546001600160a01b031633146101d4576040805162461bcd60e51b81526020600482015260166024820152752937baba32b91d1034b73b30b634b21039b2b73232b960511b604482015290519081900360640190fd5b005b600080fd5b3480156101e757600080fd5b506101f0610861565b604080516001600160a01b039092168252519081900360200190f35b34801561021857600080fd5b506101d46004803603606081101561022f57600080fd5b506001600160a01b03813581169160208101359091169060400135610870565b34801561025b57600080fd5b506101f06108d6565b34801561027057600080fd5b506101d46004803603602081101561028757600080fd5b810190602081018135600160201b8111156102a157600080fd5b8201836020820111156102b357600080fd5b803590602001918460208302840111600160201b831117156102d457600080fd5b9190808060200260200160405190810160405280939291908181526020018383602002808284376000920191909152509295506108e5945050505050565b34801561031e57600080fd5b506101d46004803603602081101561033557600080fd5b50356109b6565b34801561034857600080fd5b506101d46004803603602081101561035f57600080fd5b50356001600160a01b0316610a23565b34801561037b57600080fd5b506103ae6004803603606081101561039257600080fd5b50803590602081013590604001356001600160a01b0316610ac4565b60408051918252519081900360200190f35b3480156103cc57600080fd5b506103d5610dad565b604080519115158252519081900360200190f35b3480156103f557600080fd5b506101f0610dbd565b34801561040a57600080fd5b506101d4610dcc565b34801561041f57600080fd5b506103ae6004803603608081101561043657600080fd5b506001600160a01b038135169060208101359060408101359060600135610f27565b34801561046457600080fd5b506101d46004803603602081101561047b57600080fd5b5035611195565b34801561048e57600080fd5b506101d46111fa565b3480156104a357600080fd5b506101d4600480360360208110156104ba57600080fd5b50356113a3565b3480156104cd57600080fd5b506101f0611406565b3480156104e257600080fd5b506101f0611415565b3480156104f757600080fd5b506101f0611424565b6103ae6004803603604081101561051657600080fd5b5080359060200135611433565b34801561052f57600080fd5b506101d46004803603604081101561054657600080fd5b810190602081018135600160201b81111561056057600080fd5b82018360208201111561057257600080fd5b803590602001918460208302840111600160201b8311171561059357600080fd5b9190808060200260200160405190810160405280939291908181526020018383602002808284376000920191909152509295949360208101935035915050600160201b8111156105e257600080fd5b8201836020820111156105f457600080fd5b803590602001918460208302840111600160201b8311171561061557600080fd5b91908080602002602001604051908101604052809392919081815260200183836020028082843760009201919091525092955061179e945050505050565b34801561065f57600080fd5b506103ae6004803603608081101561067657600080fd5b506001600160a01b0381358116916020810135916040820135916060013516611893565b3480156106a657600080fd5b506101d460048036036101608110156106be57600080fd5b506001600160a01b038135811691602081013582169160408201358116916060810135821691608082013581169160a081013582169160c082013581169160e08101358216916101008201358116916101208101358216916101409091013516611b03565b34801561072f57600080fd5b506101f0611c6a565b34801561074457600080fd5b506101d46004803603602081101561075b57600080fd5b5035611c79565b34801561076e57600080fd5b506101f0611cdc565b34801561078357600080fd5b506101f0611ceb565b34801561079857600080fd5b506101d4600480360360208110156107af57600080fd5b50356001600160a01b0316611cfa565b3480156107cb57600080fd5b506101d4611d69565b3480156107e057600080fd5b506101d4600480360360408110156107f757600080fd5b506001600160a01b038135169060200135611e90565b34801561081957600080fd5b506101f0611f42565b34801561082e57600080fd5b506101f0611f51565b34801561084357600080fd5b506101d4611f60565b34801561085857600080fd5b506101f0611fbb565b6007546001600160a01b031681565b6001546001600160a01b031633146108bd576040805162461bcd60e51b81526020600482015260156024820152600080516020612eab833981519152604482015290519081900360640190fd5b6108d16001600160a01b0384168383611fca565b505050565b6001546001600160a01b031681565b6002600054141561092b576040805162461bcd60e51b815260206004820152601f6024820152600080516020612e8b833981519152604482015290519081900360640190fd5b60026000556001546001600160a01b0316331461097d576040805162461bcd60e51b81526020600482015260156024820152600080516020612eab833981519152604482015290519081900360640190fd5b60005b81518110156109ad576109a582828151811061099857fe5b602002602001015161201c565b600101610980565b50506001600055565b600260005414156109fc576040805162461bcd60e51b815260206004820152601f6024820152600080516020612e8b833981519152604482015290519081900360640190fd5b6002600055600354610a1b90339081906001600160a01b031684612031565b506001600055565b60026000541415610a69576040805162461bcd60e51b815260206004820152601f6024820152600080516020612e8b833981519152604482015290519081900360640190fd5b60026000556001546001600160a01b03163314610abb576040805162461bcd60e51b81526020600482015260156024820152600080516020612eab833981519152604482015290519081900360640190fd5b610a1b8161201c565b600060026000541415610b0c576040805162461bcd60e51b815260206004820152601f6024820152600080516020612e8b833981519152604482015290519081900360640190fd5b600260005583610b51576040805162461bcd60e51b81526020600482018190526024820152600080516020612fd7833981519152604482015290519081900360640190fd5b600a54600b546040805163098bf59d60e01b815233600482018190526001600160a01b039384166024830152604482018990526064820181905291519193929092169163098bf59d91608480830192600092919082900301818387803b158015610bba57600080fd5b505af1158015610bce573d6000803e3d6000fd5b5050600b546006546040805163098bf59d60e01b81526001600160a01b03878116600483018190529381166024830152604482018c90526064820193909352905191909216935063098bf59d9250608480830192600092919082900301818387803b158015610c3c57600080fd5b505af1158015610c50573d6000803e3d6000fd5b5050600c54600254604080516371d597ad60e01b81526001600160a01b0387811660048301529283166024820152604481018b9052606481018a90523060848201529051600095509190921692506371d597ad9160a48082019260209290919082900301818787803b158015610cc557600080fd5b505af1158015610cd9573d6000803e3d6000fd5b505050506040513d6020811015610cef57600080fd5b505160025460408051632e1a7d4d60e01b81526004810184905290519293506001600160a01b0390911691632e1a7d4d9160248082019260009290919082900301818387803b158015610d4157600080fd5b505af1158015610d55573d6000803e3d6000fd5b50610d6d925050506001600160a01b03851682612239565b604080516001600160a01b0384168152602081018890528151600080516020612f8d833981519152929181900390910190a1600160005595945050505050565b600154600160a01b900460ff1681565b6002546001600160a01b031681565b60026000541415610e12576040805162461bcd60e51b815260206004820152601f6024820152600080516020612e8b833981519152604482015290519081900360640190fd5b60026000908155600754604080516309f4173d60e11b8152336004820181905260248201819052915191936001600160a01b03909316926313e82e7a926044808401936020939083900390910190829087803b158015610e7157600080fd5b505af1158015610e85573d6000803e3d6000fd5b505050506040513d6020811015610e9b57600080fd5b5050600a54604080516309f4173d60e11b81526001600160a01b03848116600483018190526024830152915191909216916313e82e7a9160448083019260209291908290030181600087803b158015610ef357600080fd5b505af1158015610f07573d6000803e3d6000fd5b505050506040513d6020811015610f1d57600080fd5b5050600160005550565b600060026000541415610f6f576040805162461bcd60e51b815260206004820152601f6024820152600080516020612e8b833981519152604482015290519081900360640190fd5b600260005583610fb4576040805162461bcd60e51b815260206004820152601d6024820152600080516020612ff7833981519152604482015290519081900360640190fd5b600c54604080516317eb2a1560e01b81523360048201819052602482018190526001600160a01b038981166044840152606483018990526084830188905260a483018790529251909360009316916317eb2a159160c480830192602092919082900301818787803b15801561102857600080fd5b505af115801561103c573d6000803e3d6000fd5b505050506040513d602081101561105257600080fd5b5051600b5460065460408051631e42d69b60e21b81526001600160a01b03878116600483018190526024830152928316604482015260648101859052905193945091169163790b5a6c9160848082019260009290919082900301818387803b1580156110bd57600080fd5b505af11580156110d1573d6000803e3d6000fd5b5050600a54600b5460408051631e42d69b60e21b81526001600160a01b03888116600483018190526024830152928316604482015260648101879052905191909216935063790b5a6c9250608480830192600092919082900301818387803b15801561113c57600080fd5b505af1158015611150573d6000803e3d6000fd5b5050604080516001600160a01b0386168152602081018590528151600080516020612f6d8339815191529450908190039091019150a160016000559695505050505050565b600260005414156111db576040805162461bcd60e51b815260206004820152601f6024820152600080516020612e8b833981519152604482015290519081900360640190fd5b6002600055600454610a1b90339081906001600160a01b031684612031565b60026000541415611240576040805162461bcd60e51b815260206004820152601f6024820152600080516020612e8b833981519152604482015290519081900360640190fd5b60026000908155600954604080516309f4173d60e11b8152336004820181905260248201819052915191936001600160a01b03909316926313e82e7a926044808401936020939083900390910190829087803b15801561129f57600080fd5b505af11580156112b3573d6000803e3d6000fd5b505050506040513d60208110156112c957600080fd5b5050600b54604080516309f4173d60e11b81526001600160a01b03848116600483018190526024830152915191909216916313e82e7a9160448083019260209291908290030181600087803b15801561132157600080fd5b505af1158015611335573d6000803e3d6000fd5b505050506040513d602081101561134b57600080fd5b5050600754604080516309f4173d60e11b81526001600160a01b03848116600483018190526024830152915191909216916313e82e7a9160448083019260209291908290030181600087803b158015610e7157600080fd5b600260005414156113e9576040805162461bcd60e51b815260206004820152601f6024820152600080516020612e8b833981519152604482015290519081900360640190fd5b6002600055600454610a1b9033906001600160a01b03168361231e565b600c546001600160a01b031681565b6006546001600160a01b031681565b600a546001600160a01b031681565b60006002600054141561147b576040805162461bcd60e51b815260206004820152601f6024820152600080516020612e8b833981519152604482015290519081900360640190fd5b6002600055346114d2576040805162461bcd60e51b815260206004820152601f60248201527f526577617264526f757465723a20696e76616c6964206d73672e76616c756500604482015290519081900360640190fd5b600260009054906101000a90046001600160a01b03166001600160a01b031663d0e30db0346040518263ffffffff1660e01b81526004016000604051808303818588803b15801561152257600080fd5b505af1158015611536573d6000803e3d6000fd5b5050600254600c546040805163095ea7b360e01b81526001600160a01b039283166004820152346024820152905191909216945063095ea7b39350604480830193506020928290030181600087803b15801561159157600080fd5b505af11580156115a5573d6000803e3d6000fd5b505050506040513d60208110156115bb57600080fd5b5050600c54600254604080516317eb2a1560e01b815230600482015233602482018190526001600160a01b0393841660448301523460648301526084820188905260a482018790529151919360009316916317eb2a159160c48082019260209290919082900301818787803b15801561163357600080fd5b505af1158015611647573d6000803e3d6000fd5b505050506040513d602081101561165d57600080fd5b5051600b5460065460408051631e42d69b60e21b81526001600160a01b03878116600483018190526024830152928316604482015260648101859052905193945091169163790b5a6c9160848082019260009290919082900301818387803b1580156116c857600080fd5b505af11580156116dc573d6000803e3d6000fd5b5050600a54600b5460408051631e42d69b60e21b81526001600160a01b03888116600483018190526024830152928316604482015260648101879052905191909216935063790b5a6c9250608480830192600092919082900301818387803b15801561174757600080fd5b505af115801561175b573d6000803e3d6000fd5b5050604080516001600160a01b0386168152602081018590528151600080516020612f6d8339815191529450908190039091019150a16001600055949350505050565b600260005414156117e4576040805162461bcd60e51b815260206004820152601f6024820152600080516020612e8b833981519152604482015290519081900360640190fd5b60026000556001546001600160a01b03163314611836576040805162461bcd60e51b81526020600482015260156024820152600080516020612eab833981519152604482015290519081900360640190fd5b6003546001600160a01b031660005b8351811015611888576118803385838151811061185e57fe5b60200260200101518486858151811061187357fe5b6020026020010151612031565b600101611845565b505060016000555050565b6000600260005414156118db576040805162461bcd60e51b815260206004820152601f6024820152600080516020612e8b833981519152604482015290519081900360640190fd5b600260005583611920576040805162461bcd60e51b81526020600482018190526024820152600080516020612fd7833981519152604482015290519081900360640190fd5b600a54600b546040805163098bf59d60e01b815233600482018190526001600160a01b039384166024830152604482018990526064820181905291519193929092169163098bf59d91608480830192600092919082900301818387803b15801561198957600080fd5b505af115801561199d573d6000803e3d6000fd5b5050600b546006546040805163098bf59d60e01b81526001600160a01b03878116600483018190529381166024830152604482018c90526064820193909352905191909216935063098bf59d9250608480830192600092919082900301818387803b158015611a0b57600080fd5b505af1158015611a1f573d6000803e3d6000fd5b5050600c54604080516371d597ad60e01b81526001600160a01b0386811660048301528b81166024830152604482018b9052606482018a905288811660848301529151600095509190921692506371d597ad9160a48082019260209290919082900301818787803b158015611a9357600080fd5b505af1158015611aa7573d6000803e3d6000fd5b505050506040513d6020811015611abd57600080fd5b5051604080516001600160a01b0385168152602081018990528151929350600080516020612f8d833981519152929081900390910190a160016000559695505050505050565b6001546001600160a01b03163314611b50576040805162461bcd60e51b81526020600482015260156024820152600080516020612eab833981519152604482015290519081900360640190fd5b600154600160a01b900460ff1615611b995760405162461bcd60e51b8152600401808060200182810382526021815260200180612f056021913960400191505060405180910390fd5b60018054600160a01b60ff60a01b19909116179055600280546001600160a01b03199081166001600160a01b039d8e16179091556003805482169b8d169b909b17909a55600480548b16998c1699909917909855600580548a16978b1697909717909655600680548916958a169590951790945560078054881693891693909317909255600880548716918816919091179055600980548616918716919091179055600b80548516918616919091179055600a80548416918516919091179055600c80549092169216919091179055565b6009546001600160a01b031681565b60026000541415611cbf576040805162461bcd60e51b815260206004820152601f6024820152600080516020612e8b833981519152604482015290519081900360640190fd5b6002600055600354610a1b9033906001600160a01b03168361231e565b6004546001600160a01b031681565b600b546001600160a01b031681565b6001546001600160a01b03163314611d47576040805162461bcd60e51b81526020600482015260156024820152600080516020612eab833981519152604482015290519081900360640190fd5b600180546001600160a01b0319166001600160a01b0392909216919091179055565b60026000541415611daf576040805162461bcd60e51b815260206004820152601f6024820152600080516020612e8b833981519152604482015290519081900360640190fd5b60026000908155600954604080516309f4173d60e11b8152336004820181905260248201819052915191936001600160a01b03909316926313e82e7a926044808401936020939083900390910190829087803b158015611e0e57600080fd5b505af1158015611e22573d6000803e3d6000fd5b505050506040513d6020811015611e3857600080fd5b5050600b54604080516309f4173d60e11b81526001600160a01b03848116600483018190526024830152915191909216916313e82e7a9160448083019260209291908290030181600087803b158015610ef357600080fd5b60026000541415611ed6576040805162461bcd60e51b815260206004820152601f6024820152600080516020612e8b833981519152604482015290519081900360640190fd5b60026000556001546001600160a01b03163314611f28576040805162461bcd60e51b81526020600482015260156024820152600080516020612eab833981519152604482015290519081900360640190fd5b6003546109ad90339084906001600160a01b031684612031565b6005546001600160a01b031681565b6008546001600160a01b031681565b60026000541415611fa6576040805162461bcd60e51b815260206004820152601f6024820152600080516020612e8b833981519152604482015290519081900360640190fd5b6002600055611fb43361201c565b6001600055565b6003546001600160a01b031681565b604080516001600160a01b038416602482015260448082018490528251808303909101815260649091019091526020810180516001600160e01b031663a9059cbb60e01b1790526108d1908490612852565b61202581612903565b61202e81612abb565b50565b60008111612074576040805162461bcd60e51b815260206004820152601d6024820152600080516020612ff7833981519152604482015290519081900360640190fd5b60075460408051631e42d69b60e21b81526001600160a01b03878116600483015286811660248301528581166044830152606482018590529151919092169163790b5a6c91608480830192600092919082900301818387803b1580156120d957600080fd5b505af11580156120ed573d6000803e3d6000fd5b505060085460075460408051631e42d69b60e21b81526001600160a01b03898116600483018190526024830152928316604482015260648101879052905191909216935063790b5a6c9250608480830192600092919082900301818387803b15801561215857600080fd5b505af115801561216c573d6000803e3d6000fd5b505060095460085460408051631e42d69b60e21b81526001600160a01b03898116600483018190526024830152928316604482015260648101879052905191909216935063790b5a6c9250608480830192600092919082900301818387803b1580156121d757600080fd5b505af11580156121eb573d6000803e3d6000fd5b5050604080516001600160a01b03871681526020810185905281517fc5c7cdc103f4a460df7076b588c80f71602c66ccfbe4cfc141d5ae1c4c1bad799450908190039091019150a150505050565b8047101561228e576040805162461bcd60e51b815260206004820152601d60248201527f416464726573733a20696e73756666696369656e742062616c616e6365000000604482015290519081900360640190fd5b6040516000906001600160a01b0384169083908381818185875af1925050503d80600081146122d9576040519150601f19603f3d011682016040523d82523d6000602084013e6122de565b606091505b50509050806108d15760405162461bcd60e51b815260040180806020018281038252603a815260200180612ecb603a913960400191505060405180910390fd5b60008111612361576040805162461bcd60e51b815260206004820152601d6024820152600080516020612ff7833981519152604482015290519081900360640190fd5b600754604080516310c1c10360e01b81526001600160a01b038681166004830152915160009392909216916310c1c10391602480820192602092909190829003018186803b1580156123b257600080fd5b505afa1580156123c6573d6000803e3d6000fd5b505050506040513d60208110156123dc57600080fd5b50516009546008546040805163098bf59d60e01b81526001600160a01b03898116600483018190529381166024830152604482018890526064820193909352905193945091169163098bf59d9160848082019260009290919082900301818387803b15801561244a57600080fd5b505af115801561245e573d6000803e3d6000fd5b50506008546007546040805163098bf59d60e01b81526001600160a01b038a8116600483018190529381166024830152604482018990526064820193909352905191909216935063098bf59d9250608480830192600092919082900301818387803b1580156124cc57600080fd5b505af11580156124e0573d6000803e3d6000fd5b50506007546040805163098bf59d60e01b81526001600160a01b03898116600483018190528982166024840152604483018990526064830152915191909216935063098bf59d9250608480830192600092919082900301818387803b15801561254857600080fd5b505af115801561255c573d6000803e3d6000fd5b5050600854604080516309f4173d60e11b81526001600160a01b038981166004830181905260248301529151600095509190921692506313e82e7a9160448082019260209290919082900301818787803b1580156125b957600080fd5b505af11580156125cd573d6000803e3d6000fd5b505050506040513d60208110156125e357600080fd5b50519050801561266d5760095460055460408051631e42d69b60e21b81526001600160a01b038981166004830181905260248301529283166044820152606481018590529051919092169163790b5a6c91608480830192600092919082900301818387803b15801561265457600080fd5b505af1158015612668573d6000803e3d6000fd5b505050505b60095460055460408051637aeceb1f60e11b81526001600160a01b03898116600483015292831660248201529051600093929092169163f5d9d63e91604480820192602092909190829003018186803b1580156126c957600080fd5b505afa1580156126dd573d6000803e3d6000fd5b505050506040513d60208110156126f357600080fd5b5051905080156128065760006127138461270d8488612b66565b90612bc8565b6009546005546040805163098bf59d60e01b81526001600160a01b038c8116600483018190529381166024830152604482018690526064820193909352905193945091169163098bf59d9160848082019260009290919082900301818387803b15801561277f57600080fd5b505af1158015612793573d6000803e3d6000fd5b505060055460408051632770a7eb60e21b81526001600160a01b038c81166004830152602482018790529151919092169350639dc29fac9250604480830192600092919082900301818387803b1580156127ec57600080fd5b505af1158015612800573d6000803e3d6000fd5b50505050505b604080516001600160a01b03881681526020810186905281517fc96a9997db979e73b6676c0e1a22a9e591a701bea9aa98a708ccf504057762c9929181900390910190a1505050505050565b60606128a7826040518060400160405280602081526020017f5361666545524332303a206c6f772d6c6576656c2063616c6c206661696c6564815250856001600160a01b0316612c079092919063ffffffff16565b8051909150156108d1578080602001905160208110156128c657600080fd5b50516108d15760405162461bcd60e51b815260040180806020018281038252602a815260200180612fad602a913960400191505060405180910390fd5b600754604080516309f4173d60e11b81526001600160a01b03848116600483018190526024830152915160009392909216916313e82e7a9160448082019260209290919082900301818787803b15801561295c57600080fd5b505af1158015612970573d6000803e3d6000fd5b505050506040513d602081101561298657600080fd5b5051905080156129aa576004546129aa90839081906001600160a01b031684612031565b600854604080516309f4173d60e11b81526001600160a01b03858116600483018190526024830152915160009392909216916313e82e7a9160448082019260209290919082900301818787803b158015612a0357600080fd5b505af1158015612a17573d6000803e3d6000fd5b505050506040513d6020811015612a2d57600080fd5b5051905080156108d15760095460055460408051631e42d69b60e21b81526001600160a01b038781166004830181905260248301529283166044820152606481018590529051919092169163790b5a6c91608480830192600092919082900301818387803b158015612a9e57600080fd5b505af1158015612ab2573d6000803e3d6000fd5b50505050505050565b600a54604080516309f4173d60e11b81526001600160a01b03848116600483018190526024830152915160009392909216916313e82e7a9160448082019260209290919082900301818787803b158015612b1457600080fd5b505af1158015612b28573d6000803e3d6000fd5b505050506040513d6020811015612b3e57600080fd5b505190508015612b6257600454612b6290839081906001600160a01b031684612031565b5050565b600082612b7557506000612bc2565b82820282848281612b8257fe5b0414612bbf5760405162461bcd60e51b8152600401808060200182810382526021815260200180612f4c6021913960400191505060405180910390fd5b90505b92915050565b6000612bbf83836040518060400160405280601a815260200179536166654d6174683a206469766973696f6e206279207a65726f60301b815250612c20565b6060612c168484600085612cc2565b90505b9392505050565b60008183612cac5760405162461bcd60e51b81526004018080602001828103825283818151815260200191508051906020019080838360005b83811015612c71578181015183820152602001612c59565b50505050905090810190601f168015612c9e5780820380516001836020036101000a031916815260200191505b509250505060405180910390fd5b506000838581612cb857fe5b0495945050505050565b606082471015612d035760405162461bcd60e51b8152600401808060200182810382526026815260200180612f266026913960400191505060405180910390fd5b612d0c85612e1e565b612d5d576040805162461bcd60e51b815260206004820152601d60248201527f416464726573733a2063616c6c20746f206e6f6e2d636f6e7472616374000000604482015290519081900360640190fd5b60006060866001600160a01b031685876040518082805190602001908083835b60208310612d9c5780518252601f199092019160209182019101612d7d565b6001836020036101000a03801982511681845116808217855250505050505090500191505060006040518083038185875af1925050503d8060008114612dfe576040519150601f19603f3d011682016040523d82523d6000602084013e612e03565b606091505b5091509150612e13828286612e24565b979650505050505050565b3b151590565b60608315612e33575081612c19565b825115612e435782518084602001fd5b60405162461bcd60e51b8152602060048201818152845160248401528451859391928392604401919085019080838360008315612c71578181015183820152602001612c5956fe5265656e7472616e637947756172643a207265656e7472616e742063616c6c00476f7665726e61626c653a20666f7262696464656e0000000000000000000000416464726573733a20756e61626c6520746f2073656e642076616c75652c20726563697069656e74206d61792068617665207265766572746564526577617264526f757465723a20616c726561647920696e697469616c697a6564416464726573733a20696e73756666696369656e742062616c616e636520666f722063616c6c536166654d6174683a206d756c7469706c69636174696f6e206f766572666c6f7773ef9341d28c08d95e38a701e5c2834ebf53967da0fabd2dc566185ce8c9e85dc265e4374e2a03f09fd8722117174ca206c57d71d6e240581182666374be2c1b5361666545524332303a204552433230206f7065726174696f6e20646964206e6f742073756363656564526577617264526f757465723a20696e76616c6964205f786c78416d6f756e74526577617264526f757465723a20696e76616c6964205f616d6f756e74000000a2646970667358221220dc9bde6a808f429134746d8f3c448f6f4d6152a4a4f247da244cc6175c07750a64736f6c634300060c0033",
  "linkReferences": {},
  "deployedLinkReferences": {}
}