{
  "_format": "hh-sol-artifact-1",
  "contractName": "SnapshotToken",
  "sourceName": "contracts/tokens/SnapshotToken.sol",
  "abi": [
    {
      "inputs": [
        {
          "internalType": "string",
          "name": "_name",
          "type": "string"
        },
        {
          "internalType": "string",
          "name": "_symbol",
          "type": "string"
        },
        {
          "internalType": "uint256",
          "name": "_initialSupply",
          "type": "uint256"
        }
      ],
      "stateMutability": "nonpayable",
      "type": "constructor"
    },
    {
      "anonymous": false,
      "inputs": [
        {
          "indexed": true,
          "internalType": "address",
          "name": "owner",
          "type": "address"
        },
        {
          "indexed": true,
          "internalType": "address",
          "name": "spender",
          "type": "address"
        },
        {
          "indexed": false,
          "internalType": "uint256",
          "name": "value",
          "type": "uint256"
        }
      ],
      "name": "Approval",
      "type": "event"
    },
    {
      "anonymous": false,
      "inputs": [
        {
          "indexed": true,
          "internalType": "address",
          "name": "from",
          "type": "address"
        },
        {
          "indexed": true,
          "internalType": "address",
          "name": "to",
          "type": "address"
        },
        {
          "indexed": false,
          "internalType": "uint256",
          "name": "value",
          "type": "uint256"
        }
      ],
      "name": "Transfer",
      "type": "event"
    },
    {
      "inputs": [
        {
          "internalType": "address",
          "name": "_account",
          "type": "address"
        }
      ],
      "name": "addAdmin",
      "outputs": [],
      "stateMutability": "nonpayable",
      "type": "function"
    },
    {
      "inputs": [
        {
          "internalType": "address",
          "name": "_account",
          "type": "address"
        }
      ],
      "name": "addNonStakingAccount",
      "outputs": [],
      "stateMutability": "nonpayable",
      "type": "function"
    },
    {
      "inputs": [
        {
          "internalType": "address",
          "name": "",
          "type": "address"
        }
      ],
      "name": "admins",
      "outputs": [
        {
          "internalType": "bool",
          "name": "",
          "type": "bool"
        }
      ],
      "stateMutability": "view",
      "type": "function"
    },
    {
      "inputs": [
        {
          "internalType": "address",
          "name": "_owner",
          "type": "address"
        },
        {
          "internalType": "address",
          "name": "_spender",
          "type": "address"
        }
      ],
      "name": "allowance",
      "outputs": [
        {
          "internalType": "uint256",
          "name": "",
          "type": "uint256"
        }
      ],
      "stateMutability": "view",
      "type": "function"
    },
    {
      "inputs": [
        {
          "internalType": "address",
          "name": "",
          "type": "address"
        },
        {
          "internalType": "address",
          "name": "",
          "type": "address"
        }
      ],
      "name": "allowances",
      "outputs": [
        {
          "internalType": "uint256",
          "name": "",
          "type": "uint256"
        }
      ],
      "stateMutability": "view",
      "type": "function"
    },
    {
      "inputs": [
        {
          "internalType": "address",
          "name": "_spender",
          "type": "address"
        },
        {
          "internalType": "uint256",
          "name": "_amount",
          "type": "uint256"
        }
      ],
      "name": "approve",
      "outputs": [
        {
          "internalType": "bool",
          "name": "",
          "type": "bool"
        }
      ],
      "stateMutability": "nonpayable",
      "type": "function"
    },
    {
      "inputs": [
        {
          "internalType": "address",
          "name": "_account",
          "type": "address"
        }
      ],
      "name": "balanceOf",
      "outputs": [
        {
          "internalType": "uint256",
          "name": "",
          "type": "uint256"
        }
      ],
      "stateMutability": "view",
      "type": "function"
    },
    {
      "inputs": [
        {
          "internalType": "address",
          "name": "",
          "type": "address"
        }
      ],
      "name": "balances",
      "outputs": [
        {
          "internalType": "uint256",
          "name": "",
          "type": "uint256"
        }
      ],
      "stateMutability": "view",
      "type": "function"
    },
    {
      "inputs": [
        {
          "internalType": "address[]",
          "name": "_accounts",
          "type": "address[]"
        },
        {
          "internalType": "uint256[]",
          "name": "_amounts",
          "type": "uint256[]"
        }
      ],
      "name": "batchMint",
      "outputs": [],
      "stateMutability": "nonpayable",
      "type": "function"
    },
    {
      "inputs": [
        {
          "internalType": "address",
          "name": "_account",
          "type": "address"
        },
        {
          "internalType": "uint256",
          "name": "_amount",
          "type": "uint256"
        }
      ],
      "name": "burn",
      "outputs": [],
      "stateMutability": "nonpayable",
      "type": "function"
    },
    {
      "inputs": [
        {
          "internalType": "address",
          "name": "_receiver",
          "type": "address"
        }
      ],
      "name": "claim",
      "outputs": [],
      "stateMutability": "nonpayable",
      "type": "function"
    },
    {
      "inputs": [],
      "name": "decimals",
      "outputs": [
        {
          "internalType": "uint8",
          "name": "",
          "type": "uint8"
        }
      ],
      "stateMutability": "view",
      "type": "function"
    },
    {
      "inputs": [],
      "name": "gov",
      "outputs": [
        {
          "internalType": "address",
          "name": "",
          "type": "address"
        }
      ],
      "stateMutability": "view",
      "type": "function"
    },
    {
      "inputs": [],
      "name": "inPrivateTransferMode",
      "outputs": [
        {
          "internalType": "bool",
          "name": "",
          "type": "bool"
        }
      ],
      "stateMutability": "view",
      "type": "function"
    },
    {
      "inputs": [
        {
          "internalType": "address",
          "name": "",
          "type": "address"
        }
      ],
      "name": "isHandler",
      "outputs": [
        {
          "internalType": "bool",
          "name": "",
          "type": "bool"
        }
      ],
      "stateMutability": "view",
      "type": "function"
    },
    {
      "inputs": [
        {
          "internalType": "address",
          "name": "",
          "type": "address"
        }
      ],
      "name": "isMinter",
      "outputs": [
        {
          "internalType": "bool",
          "name": "",
          "type": "bool"
        }
      ],
      "stateMutability": "view",
      "type": "function"
    },
    {
      "inputs": [
        {
          "internalType": "address",
          "name": "_account",
          "type": "address"
        },
        {
          "internalType": "uint256",
          "name": "_amount",
          "type": "uint256"
        }
      ],
      "name": "mint",
      "outputs": [],
      "stateMutability": "nonpayable",
      "type": "function"
    },
    {
      "inputs": [],
      "name": "name",
      "outputs": [
        {
          "internalType": "string",
          "name": "",
          "type": "string"
        }
      ],
      "stateMutability": "view",
      "type": "function"
    },
    {
      "inputs": [
        {
          "internalType": "address",
          "name": "",
          "type": "address"
        }
      ],
      "name": "nonStakingAccounts",
      "outputs": [
        {
          "internalType": "bool",
          "name": "",
          "type": "bool"
        }
      ],
      "stateMutability": "view",
      "type": "function"
    },
    {
      "inputs": [],
      "name": "nonStakingSupply",
      "outputs": [
        {
          "internalType": "uint256",
          "name": "",
          "type": "uint256"
        }
      ],
      "stateMutability": "view",
      "type": "function"
    },
    {
      "inputs": [
        {
          "internalType": "address",
          "name": "_account",
          "type": "address"
        },
        {
          "internalType": "address",
          "name": "_receiver",
          "type": "address"
        }
      ],
      "name": "recoverClaim",
      "outputs": [],
      "stateMutability": "nonpayable",
      "type": "function"
    },
    {
      "inputs": [
        {
          "internalType": "address",
          "name": "_account",
          "type": "address"
        }
      ],
      "name": "removeAdmin",
      "outputs": [],
      "stateMutability": "nonpayable",
      "type": "function"
    },
    {
      "inputs": [
        {
          "internalType": "address",
          "name": "_account",
          "type": "address"
        }
      ],
      "name": "removeNonStakingAccount",
      "outputs": [],
      "stateMutability": "nonpayable",
      "type": "function"
    },
    {
      "inputs": [
        {
          "internalType": "address",
          "name": "_gov",
          "type": "address"
        }
      ],
      "name": "setGov",
      "outputs": [],
      "stateMutability": "nonpayable",
      "type": "function"
    },
    {
      "inputs": [
        {
          "internalType": "address",
          "name": "_handler",
          "type": "address"
        },
        {
          "internalType": "bool",
          "name": "_isActive",
          "type": "bool"
        }
      ],
      "name": "setHandler",
      "outputs": [],
      "stateMutability": "nonpayable",
      "type": "function"
    },
    {
      "inputs": [
        {
          "internalType": "bool",
          "name": "_inPrivateTransferMode",
          "type": "bool"
        }
      ],
      "name": "setInPrivateTransferMode",
      "outputs": [],
      "stateMutability": "nonpayable",
      "type": "function"
    },
    {
      "inputs": [
        {
          "internalType": "string",
          "name": "_name",
          "type": "string"
        },
        {
          "internalType": "string",
          "name": "_symbol",
          "type": "string"
        }
      ],
      "name": "setInfo",
      "outputs": [],
      "stateMutability": "nonpayable",
      "type": "function"
    },
    {
      "inputs": [
        {
          "internalType": "address",
          "name": "_minter",
          "type": "address"
        }
      ],
      "name": "setMinter",
      "outputs": [],
      "stateMutability": "nonpayable",
      "type": "function"
    },
    {
      "inputs": [
        {
          "internalType": "address[]",
          "name": "_yieldTrackers",
          "type": "address[]"
        }
      ],
      "name": "setYieldTrackers",
      "outputs": [],
      "stateMutability": "nonpayable",
      "type": "function"
    },
    {
      "inputs": [
        {
          "internalType": "address",
          "name": "_account",
          "type": "address"
        }
      ],
      "name": "stakedBalance",
      "outputs": [
        {
          "internalType": "uint256",
          "name": "",
          "type": "uint256"
        }
      ],
      "stateMutability": "view",
      "type": "function"
    },
    {
      "inputs": [],
      "name": "symbol",
      "outputs": [
        {
          "internalType": "string",
          "name": "",
          "type": "string"
        }
      ],
      "stateMutability": "view",
      "type": "function"
    },
    {
      "inputs": [],
      "name": "totalStaked",
      "outputs": [
        {
          "internalType": "uint256",
          "name": "",
          "type": "uint256"
        }
      ],
      "stateMutability": "view",
      "type": "function"
    },
    {
      "inputs": [],
      "name": "totalSupply",
      "outputs": [
        {
          "internalType": "uint256",
          "name": "",
          "type": "uint256"
        }
      ],
      "stateMutability": "view",
      "type": "function"
    },
    {
      "inputs": [
        {
          "internalType": "address",
          "name": "_recipient",
          "type": "address"
        },
        {
          "internalType": "uint256",
          "name": "_amount",
          "type": "uint256"
        }
      ],
      "name": "transfer",
      "outputs": [
        {
          "internalType": "bool",
          "name": "",
          "type": "bool"
        }
      ],
      "stateMutability": "nonpayable",
      "type": "function"
    },
    {
      "inputs": [
        {
          "internalType": "address",
          "name": "_sender",
          "type": "address"
        },
        {
          "internalType": "address",
          "name": "_recipient",
          "type": "address"
        },
        {
          "internalType": "uint256",
          "name": "_amount",
          "type": "uint256"
        }
      ],
      "name": "transferFrom",
      "outputs": [
        {
          "internalType": "bool",
          "name": "",
          "type": "bool"
        }
      ],
      "stateMutability": "nonpayable",
      "type": "function"
    },
    {
      "inputs": [
        {
          "internalType": "address",
          "name": "_token",
          "type": "address"
        },
        {
          "internalType": "address",
          "name": "_account",
          "type": "address"
        },
        {
          "internalType": "uint256",
          "name": "_amount",
          "type": "uint256"
        }
      ],
      "name": "withdrawToken",
      "outputs": [],
      "stateMutability": "nonpayable",
      "type": "function"
    },
    {
      "inputs": [
        {
          "internalType": "uint256",
          "name": "",
          "type": "uint256"
        }
      ],
      "name": "yieldTrackers",
      "outputs": [
        {
          "internalType": "address",
          "name": "",
          "type": "address"
        }
      ],
      "stateMutability": "view",
      "type": "function"
    }
  ],
  "bytecode": "0x60806040523480156200001157600080fd5b506040516200286138038062002861833981810160405260608110156200003757600080fd5b81019080805160405193929190846401000000008211156200005857600080fd5b9083019060208201858111156200006e57600080fd5b82516401000000008111828201881017156200008957600080fd5b82525081516020918201929091019080838360005b83811015620000b85781810151838201526020016200009e565b50505050905090810190601f168015620000e65780820380516001836020036101000a031916815260200191505b50604052602001805160405193929190846401000000008211156200010a57600080fd5b9083019060208201858111156200012057600080fd5b82516401000000008111828201881017156200013b57600080fd5b82525081516020918201929091019080838360005b838110156200016a57818101518382015260200162000150565b50505050905090810190601f168015620001985780820380516001836020036101000a031916815260200191505b50604052602090810151855190935085925084918491849184918491620001c5916000918601906200045e565b508151620001db9060019060208501906200045e565b50600480546001600160a01b03191633908117909155620001fd908262000227565b5050336000908152600c60205260409020805460ff1916600117905550620004fa95505050505050565b6001600160a01b0382166200026e5760405162461bcd60e51b81526004018080602001828103825260238152602001806200283e6023913960400191505060405180910390fd5b62000279826200035d565b6200029581600254620003fc60201b620015dc1790919060201c565b6002556001600160a01b038216600090815260056020908152604090912054620002ca918390620015dc620003fc821b17901c565b6001600160a01b03831660009081526005602090815260408083209390935560089052205460ff161562000318576200031481600354620003fc60201b620015dc1790919060201c565b6003555b6040805182815290516001600160a01b038416916000917fddf252ad1be2c89b69c2b068fc378daa952ba7f163c4a11628f55a4df523b3ef9181900360200190a35050565b60005b600754811015620003f8576000600782815481106200037b57fe5b600091825260208220015460408051635fd6196560e01b81526001600160a01b03878116600483015291519190921693508392635fd61965926024808201939182900301818387803b158015620003d157600080fd5b505af1158015620003e6573d6000803e3d6000fd5b50506001909301925062000360915050565b5050565b60008282018381101562000457576040805162461bcd60e51b815260206004820152601b60248201527f536166654d6174683a206164646974696f6e206f766572666c6f770000000000604482015290519081900360640190fd5b9392505050565b828054600181600116156101000203166002900490600052602060002090601f016020900481019282601f10620004a157805160ff1916838001178555620004d1565b82800160010185558215620004d1579182015b82811115620004d1578251825591602001919060010190620004b4565b50620004df929150620004e3565b5090565b5b80821115620004df5760008155600101620004e4565b612334806200050a6000396000f3fe608060405234801561001057600080fd5b50600436106101b75760003560e01c806301e33667146101bc57806306fdde03146101f4578063095ea7b31461027157806312d43a51146102b15780631785f53c146102d557806318160ddd146102fb5780631e83409a1461031557806323b872dd1461033b578063276eab4e1461037157806327e235e314610412578063313ce5671461043857806340c10f1914610456578063429b62e51461048257806346ea87af146104a857806352cd38d9146104ce57806355b6ed5c146104eb5780635a47a1a7146105195780636021726714610538578063622890771461055e578063685731071461058457806370480275146106a757806370a08231146106cd578063817b1cd2146106f35780639554381a146106fb57806395d89b4114610721578063996f11ee146107295780639cb7de4b146107575780639dc29fac14610785578063a9059cbb146107b1578063a923fc40146107dd578063aa271e1a14610906578063c93be6361461092c578063cfad57a214610934578063dd62ed3e1461095a578063dfbaefb114610988578063fb30d91614610990578063fca3b5aa146109b6575b600080fd5b6101f2600480360360608110156101d257600080fd5b506001600160a01b038135811691602081013590911690604001356109dc565b005b6101fc610a42565b6040805160208082528351818301528351919283929083019185019080838360005b8381101561023657818101518382015260200161021e565b50505050905090810190601f1680156102635780820380516001836020036101000a031916815260200191505b509250505060405180910390f35b61029d6004803603604081101561028757600080fd5b506001600160a01b038135169060200135610ad0565b604080519115158252519081900360200190f35b6102b9610ae6565b604080516001600160a01b039092168252519081900360200190f35b6101f2600480360360208110156102eb57600080fd5b50356001600160a01b0316610af5565b610303610b63565b60408051918252519081900360200190f35b6101f26004803603602081101561032b57600080fd5b50356001600160a01b0316610b69565b61029d6004803603606081101561035157600080fd5b506001600160a01b03813581169160208101359091169060400135610c20565b6101f26004803603602081101561038757600080fd5b810190602081018135600160201b8111156103a157600080fd5b8201836020820111156103b357600080fd5b803590602001918460208302840111600160201b831117156103d457600080fd5b919080806020026020016040519081016040528093929190818152602001838360200280828437600092019190915250929550610cba945050505050565b6103036004803603602081101561042857600080fd5b50356001600160a01b0316610d1a565b610440610d2c565b6040805160ff9092168252519081900360200190f35b6101f26004803603604081101561046c57600080fd5b506001600160a01b038135169060200135610d31565b61029d6004803603602081101561049857600080fd5b50356001600160a01b0316610d8d565b61029d600480360360208110156104be57600080fd5b50356001600160a01b0316610da2565b6102b9600480360360208110156104e457600080fd5b5035610db7565b6103036004803603604081101561050157600080fd5b506001600160a01b0381358116916020013516610dde565b6101f26004803603602081101561052f57600080fd5b50351515610dfb565b6103036004803603602081101561054e57600080fd5b50356001600160a01b0316610e5b565b6101f26004803603602081101561057457600080fd5b50356001600160a01b0316610ea4565b6101f26004803603604081101561059a57600080fd5b810190602081018135600160201b8111156105b457600080fd5b8201836020820111156105c657600080fd5b803590602001918460208302840111600160201b831117156105e757600080fd5b9190808060200260200160405190810160405280939291908181526020018383602002808284376000920191909152509295949360208101935035915050600160201b81111561063657600080fd5b82018360208201111561064857600080fd5b803590602001918460208302840111600160201b8311171561066957600080fd5b919080806020026020016040519081016040528093929190818152602001838360200280828437600092019190915250929550610f97945050505050565b6101f2600480360360208110156106bd57600080fd5b50356001600160a01b0316611039565b610303600480360360208110156106e357600080fd5b50356001600160a01b03166110aa565b6103036110c5565b61029d6004803603602081101561071157600080fd5b50356001600160a01b03166110e3565b6101fc6110f8565b6101f26004803603604081101561073f57600080fd5b506001600160a01b0381358116916020013516611152565b6101f26004803603604081101561076d57600080fd5b506001600160a01b0381351690602001351515611259565b6101f26004803603604081101561079b57600080fd5b506001600160a01b0381351690602001356112d1565b61029d600480360360408110156107c757600080fd5b506001600160a01b03813516906020013561132d565b6101f2600480360360408110156107f357600080fd5b810190602081018135600160201b81111561080d57600080fd5b82018360208201111561081f57600080fd5b803590602001918460018302840111600160201b8311171561084057600080fd5b91908080601f0160208091040260200160405190810160405280939291908181526020018383808284376000920191909152509295949360208101935035915050600160201b81111561089257600080fd5b8201836020820111156108a457600080fd5b803590602001918460018302840111600160201b831117156108c557600080fd5b91908080601f01602080910402602001604051908101604052809392919081815260200183838082843760009201919091525092955061133a945050505050565b61029d6004803603602081101561091c57600080fd5b50356001600160a01b03166113ae565b6103036113c3565b6101f26004803603602081101561094a57600080fd5b50356001600160a01b03166113c9565b6103036004803603604081101561097057600080fd5b506001600160a01b0381358116916020013516611438565b61029d611463565b6101f2600480360360208110156109a657600080fd5b50356001600160a01b031661146c565b6101f2600480360360208110156109cc57600080fd5b50356001600160a01b031661156b565b6004546001600160a01b03163314610a29576040805162461bcd60e51b815260206004820152601460248201526000805160206121ad833981519152604482015290519081900360640190fd5b610a3d6001600160a01b0384168383611634565b505050565b6000805460408051602060026001851615610100026000190190941693909304601f81018490048402820184019092528181529291830182828015610ac85780601f10610a9d57610100808354040283529160200191610ac8565b820191906000526020600020905b815481529060010190602001808311610aab57829003601f168201915b505050505081565b6000610add338484611686565b50600192915050565b6004546001600160a01b031681565b6004546001600160a01b03163314610b42576040805162461bcd60e51b815260206004820152601460248201526000805160206121ad833981519152604482015290519081900360640190fd5b6001600160a01b03166000908152600960205260409020805460ff19169055565b60025481565b60005b600754811015610c1c57600060078281548110610b8557fe5b6000918252602080832090910154604080516310e059a160e11b81523360048201526001600160a01b038881166024830152915191909216945084936321c0b34293604480850194919392918390030190829087803b158015610be757600080fd5b505af1158015610bfb573d6000803e3d6000fd5b505050506040513d6020811015610c1157600080fd5b505050600101610b6c565b5050565b336000908152600b602052604081205460ff1615610c4b57610c43848484611772565b506001610cb3565b6000610c95836040518060600160405280602c815260200161213b602c91396001600160a01b03881660009081526006602090815260408083203384529091529020549190611988565b9050610ca2853383611686565b610cad858585611772565b60019150505b9392505050565b6004546001600160a01b03163314610d07576040805162461bcd60e51b815260206004820152601460248201526000805160206121ad833981519152604482015290519081900360640190fd5b8051610c1c906007906020840190611f92565b60056020526000908152604090205481565b601281565b336000908152600c602052604090205460ff16610d83576040805162461bcd60e51b815260206004820152601c6024820152600080516020612167833981519152604482015290519081900360640190fd5b610c1c8282611a1f565b60096020526000908152604090205460ff1681565b600b6020526000908152604090205460ff1681565b60078181548110610dc457fe5b6000918252602090912001546001600160a01b0316905081565b600660209081526000928352604080842090915290825290205481565b6004546001600160a01b03163314610e48576040805162461bcd60e51b815260206004820152601460248201526000805160206121ad833981519152604482015290519081900360640190fd5b600a805460ff1916911515919091179055565b6001600160a01b03811660009081526008602052604081205460ff1615610e8457506000610e9f565b506001600160a01b0381166000908152600560205260409020545b919050565b3360009081526009602052604090205460ff16610ef6576040805162461bcd60e51b815260206004820152601460248201526000805160206121ad833981519152604482015290519081900360640190fd5b6001600160a01b03811660009081526008602052604090205460ff1615610f4e5760405162461bcd60e51b815260040180806020018281038252602281526020018061223f6022913960400191505060405180910390fd5b610f5781611b11565b6001600160a01b0381166000908152600860209081526040808320805460ff191660011790556005909152902054600354610f91916115dc565b60035550565b336000908152600c602052604090205460ff16610fe9576040805162461bcd60e51b815260206004820152601c6024820152600080516020612167833981519152604482015290519081900360640190fd5b60005b8251811015610a3d57600083828151811061100357fe5b60200260200101519050600083838151811061101b57fe5b6020026020010151905061102f8282611a1f565b5050600101610fec565b6004546001600160a01b03163314611086576040805162461bcd60e51b815260206004820152601460248201526000805160206121ad833981519152604482015290519081900360640190fd5b6001600160a01b03166000908152600960205260409020805460ff19166001179055565b6001600160a01b031660009081526005602052604090205490565b60006110de600354600254611ba790919063ffffffff16565b905090565b60086020526000908152604090205460ff1681565b60018054604080516020600284861615610100026000190190941693909304601f81018490048402820184019092528181529291830182828015610ac85780601f10610a9d57610100808354040283529160200191610ac8565b3360009081526009602052604090205460ff166111a4576040805162461bcd60e51b815260206004820152601460248201526000805160206121ad833981519152604482015290519081900360640190fd5b60005b600754811015610a3d576000600782815481106111c057fe5b6000918252602080832090910154604080516310e059a160e11b81526001600160a01b0389811660048301528881166024830152915191909216945084936321c0b34293604480850194919392918390030190829087803b15801561122457600080fd5b505af1158015611238573d6000803e3d6000fd5b505050506040513d602081101561124e57600080fd5b5050506001016111a7565b6004546001600160a01b031633146112a6576040805162461bcd60e51b815260206004820152601460248201526000805160206121ad833981519152604482015290519081900360640190fd5b6001600160a01b03919091166000908152600b60205260409020805460ff1916911515919091179055565b336000908152600c602052604090205460ff16611323576040805162461bcd60e51b815260206004820152601c6024820152600080516020612167833981519152604482015290519081900360640190fd5b610c1c8282611be9565b6000610add338484611772565b6004546001600160a01b03163314611387576040805162461bcd60e51b815260206004820152601460248201526000805160206121ad833981519152604482015290519081900360640190fd5b815161139a906000906020850190611ff7565b508051610a3d906001906020840190611ff7565b600c6020526000908152604090205460ff1681565b60035481565b6004546001600160a01b03163314611416576040805162461bcd60e51b815260206004820152601460248201526000805160206121ad833981519152604482015290519081900360640190fd5b600480546001600160a01b0319166001600160a01b0392909216919091179055565b6001600160a01b03918216600090815260066020908152604080832093909416825291909152205490565b600a5460ff1681565b3360009081526009602052604090205460ff166114be576040805162461bcd60e51b815260206004820152601460248201526000805160206121ad833981519152604482015290519081900360640190fd5b6001600160a01b03811660009081526008602052604090205460ff1661152b576040805162461bcd60e51b815260206004820152601e60248201527f42617365546f6b656e3a205f6163636f756e74206e6f74206d61726b65640000604482015290519081900360640190fd5b61153481611b11565b6001600160a01b0381166000908152600860209081526040808320805460ff191690556005909152902054600354610f9191611ba7565b6004546001600160a01b031633146115b8576040805162461bcd60e51b815260206004820152601460248201526000805160206121ad833981519152604482015290519081900360640190fd5b6001600160a01b03166000908152600c60205260409020805460ff19166001179055565b600082820183811015610cb3576040805162461bcd60e51b815260206004820152601b60248201527a536166654d6174683a206164646974696f6e206f766572666c6f7760281b604482015290519081900360640190fd5b604080516001600160a01b038416602482015260448082018490528251808303909101815260649091019091526020810180516001600160e01b031663a9059cbb60e01b179052610a3d908490611d02565b6001600160a01b0383166116cb5760405162461bcd60e51b81526004018080602001828103825260288152602001806121cd6028913960400191505060405180910390fd5b6001600160a01b0382166117105760405162461bcd60e51b81526004018080602001828103825260268152602001806121156026913960400191505060405180910390fd5b6001600160a01b03808416600081815260066020908152604080832094871680845294825291829020859055815185815291517f8c5be1e5ebec7d5bd14f71427d1e84f3dd0314c0f7b2291e5b200ac8c7c3b9259281900390910190a3505050565b6001600160a01b0383166117b75760405162461bcd60e51b81526004018080602001828103825260298152602001806122d66029913960400191505060405180910390fd5b6001600160a01b0382166117fc5760405162461bcd60e51b81526004018080602001828103825260278152602001806120cb6027913960400191505060405180910390fd5b600a5460ff161561185557336000908152600b602052604090205460ff166118555760405162461bcd60e51b81526004018080602001828103825260258152602001806120a66025913960400191505060405180910390fd5b61185e83611b11565b61186782611b11565b6118a4816040518060600160405280602a81526020016121f5602a91396001600160a01b0386166000908152600560205260409020549190611988565b6001600160a01b0380851660009081526005602052604080822093909355908416815220546118d390826115dc565b6001600160a01b0380841660009081526005602090815260408083209490945591861681526008909152205460ff1615611918576003546119149082611ba7565b6003555b6001600160a01b03821660009081526008602052604090205460ff161561194a5760035461194690826115dc565b6003555b816001600160a01b0316836001600160a01b031660008051602061221f833981519152836040518082815260200191505060405180910390a3505050565b60008184841115611a175760405162461bcd60e51b81526004018080602001828103825283818151815260200191508051906020019080838360005b838110156119dc5781810151838201526020016119c4565b50505050905090810190601f168015611a095780820380516001836020036101000a031916815260200191505b509250505060405180910390fd5b505050900390565b6001600160a01b038216611a645760405162461bcd60e51b81526004018080602001828103825260238152602001806120f26023913960400191505060405180910390fd5b611a6d82611b11565b600254611a7a90826115dc565b6002556001600160a01b038216600090815260056020526040902054611aa090826115dc565b6001600160a01b03831660009081526005602090815260408083209390935560089052205460ff1615611ade57600354611ada90826115dc565b6003555b6040805182815290516001600160a01b0384169160009160008051602061221f8339815191529181900360200190a35050565b60005b600754811015610c1c57600060078281548110611b2d57fe5b600091825260208220015460408051635fd6196560e01b81526001600160a01b03878116600483015291519190921693508392635fd61965926024808201939182900301818387803b158015611b8257600080fd5b505af1158015611b96573d6000803e3d6000fd5b505060019093019250611b14915050565b6000610cb383836040518060400160405280601e81526020017f536166654d6174683a207375627472616374696f6e206f766572666c6f770000815250611988565b6001600160a01b038216611c2e5760405162461bcd60e51b81526004018080602001828103825260258152602001806122b16025913960400191505060405180910390fd5b611c3782611b11565b611c7481604051806060016040528060268152602001612261602691396001600160a01b0385166000908152600560205260409020549190611988565b6001600160a01b038316600090815260056020526040902055600254611c9a9082611ba7565b6002556001600160a01b03821660009081526008602052604090205460ff1615611ccf57600354611ccb9082611ba7565b6003555b6040805182815290516000916001600160a01b0385169160008051602061221f8339815191529181900360200190a35050565b6060611d57826040518060400160405280602081526020017f5361666545524332303a206c6f772d6c6576656c2063616c6c206661696c6564815250856001600160a01b0316611db39092919063ffffffff16565b805190915015610a3d57808060200190516020811015611d7657600080fd5b5051610a3d5760405162461bcd60e51b815260040180806020018281038252602a815260200180612287602a913960400191505060405180910390fd5b6060611dc28484600085611dca565b949350505050565b606082471015611e0b5760405162461bcd60e51b81526004018080602001828103825260268152602001806121876026913960400191505060405180910390fd5b611e1485611f26565b611e65576040805162461bcd60e51b815260206004820152601d60248201527f416464726573733a2063616c6c20746f206e6f6e2d636f6e7472616374000000604482015290519081900360640190fd5b60006060866001600160a01b031685876040518082805190602001908083835b60208310611ea45780518252601f199092019160209182019101611e85565b6001836020036101000a03801982511681845116808217855250505050505090500191505060006040518083038185875af1925050503d8060008114611f06576040519150601f19603f3d011682016040523d82523d6000602084013e611f0b565b606091505b5091509150611f1b828286611f2c565b979650505050505050565b3b151590565b60608315611f3b575081610cb3565b825115611f4b5782518084602001fd5b60405162461bcd60e51b81526020600482018181528451602484015284518593919283926044019190850190808383600083156119dc5781810151838201526020016119c4565b828054828255906000526020600020908101928215611fe7579160200282015b82811115611fe757825182546001600160a01b0319166001600160a01b03909116178255602090920191600190910190611fb2565b50611ff3929150612071565b5090565b828054600181600116156101000203166002900490600052602060002090601f016020900481019282601f1061203857805160ff1916838001178555612065565b82800160010185558215612065579182015b8281111561206557825182559160200191906001019061204a565b50611ff3929150612090565b5b80821115611ff35780546001600160a01b0319168155600101612072565b5b80821115611ff3576000815560010161209156fe42617365546f6b656e3a206d73672e73656e646572206e6f742077686974656c697374656442617365546f6b656e3a207472616e7366657220746f20746865207a65726f206164647265737342617365546f6b656e3a206d696e7420746f20746865207a65726f206164647265737342617365546f6b656e3a20617070726f766520746f20746865207a65726f206164647265737342617365546f6b656e3a207472616e7366657220616d6f756e74206578636565647320616c6c6f77616e63654d696e7461626c6542617365546f6b656e3a20666f7262696464656e00000000416464726573733a20696e73756666696369656e742062616c616e636520666f722063616c6c42617365546f6b656e3a20666f7262696464656e00000000000000000000000042617365546f6b656e3a20617070726f76652066726f6d20746865207a65726f206164647265737342617365546f6b656e3a207472616e7366657220616d6f756e7420657863656564732062616c616e6365ddf252ad1be2c89b69c2b068fc378daa952ba7f163c4a11628f55a4df523b3ef42617365546f6b656e3a205f6163636f756e7420616c7265616479206d61726b656442617365546f6b656e3a206275726e20616d6f756e7420657863656564732062616c616e63655361666545524332303a204552433230206f7065726174696f6e20646964206e6f74207375636365656442617365546f6b656e3a206275726e2066726f6d20746865207a65726f206164647265737342617365546f6b656e3a207472616e736665722066726f6d20746865207a65726f2061646472657373a2646970667358221220adbefb94e455005bceb77dbe03e96f8dc6760422248b1865507d7facf52364c664736f6c634300060c003342617365546f6b656e3a206d696e7420746f20746865207a65726f2061646472657373",
  "linkReferences": {},
  "deployedLinkReferences": {}
}